{"abi":[{"inputs":[{"internalType":"uint256","name":"minimum","type":"uint256"},{"internalType":"address","name":"creator","type":"address"}],"stateMutability":"nonpayable","type":"constructor"},{"inputs":[{"internalType":"uint256","name":"index","type":"uint256"}],"name":"approveRequest","outputs":[],"stateMutability":"nonpayable","type":"function"},{"inputs":[{"internalType":"address","name":"","type":"address"}],"name":"approvers","outputs":[{"internalType":"bool","name":"","type":"bool"}],"stateMutability":"view","type":"function"},{"inputs":[],"name":"compaignApproversCount","outputs":[{"internalType":"uint256","name":"","type":"uint256"}],"stateMutability":"view","type":"function"},{"inputs":[],"name":"contribute","outputs":[],"stateMutability":"payable","type":"function"},{"inputs":[{"internalType":"string","name":"description","type":"string"},{"internalType":"uint256","name":"value","type":"uint256"},{"internalType":"address payable","name":"recipient","type":"address"}],"name":"createRequest","outputs":[],"stateMutability":"nonpayable","type":"function"},{"inputs":[{"internalType":"uint256","name":"index","type":"uint256"}],"name":"finalizeRequest","outputs":[],"stateMutability":"nonpayable","type":"function"},{"inputs":[],"name":"finalizedRequestsCount","outputs":[{"internalType":"uint256","name":"","type":"uint256"}],"stateMutability":"view","type":"function"},{"inputs":[{"internalType":"uint256","name":"index","type":"uint256"}],"name":"getRequestDetails","outputs":[{"internalType":"string","name":"","type":"string"},{"internalType":"uint256","name":"","type":"uint256"},{"internalType":"address payable","name":"","type":"address"},{"internalType":"bool","name":"","type":"bool"},{"internalType":"uint256","name":"","type":"uint256"},{"internalType":"uint256","name":"","type":"uint256"}],"stateMutability":"view","type":"function"},{"inputs":[],"name":"getRequestsCount","outputs":[{"internalType":"uint256","name":"","type":"uint256"}],"stateMutability":"view","type":"function"},{"inputs":[],"name":"getSummary","outputs":[{"internalType":"uint256","name":"","type":"uint256"},{"internalType":"uint256","name":"","type":"uint256"},{"internalType":"uint256","name":"","type":"uint256"},{"internalType":"uint256","name":"","type":"uint256"},{"internalType":"address","name":"","type":"address"},{"internalType":"uint256","name":"","type":"uint256"},{"internalType":"uint256","name":"","type":"uint256"}],"stateMutability":"view","type":"function"},{"inputs":[],"name":"manager","outputs":[{"internalType":"address","name":"","type":"address"}],"stateMutability":"view","type":"function"},{"inputs":[],"name":"minimumContribution","outputs":[{"internalType":"uint256","name":"","type":"uint256"}],"stateMutability":"view","type":"function"},{"inputs":[{"internalType":"uint256","name":"","type":"uint256"}],"name":"requests","outputs":[{"internalType":"string","name":"description","type":"string"},{"internalType":"uint256","name":"value","type":"uint256"},{"internalType":"address payable","name":"recipient","type":"address"},{"internalType":"bool","name":"complete","type":"bool"},{"internalType":"uint256","name":"approvalCount","type":"uint256"}],"stateMutability":"view","type":"function"},{"inputs":[],"name":"requestsCount","outputs":[{"internalType":"uint256","name":"","type":"uint256"}],"stateMutability":"view","type":"function"}],"devdoc":{"kind":"dev","methods":{},"version":1},"evm":{"assembly":"    /* \"Campaign.sol\":524:3991  contract Compaign {... */\n  mstore(0x40, 0x80)\n    /* \"Campaign.sol\":1270:1392  constructor(uint256 minimum, address creator) {... */\n  callvalue\n  dup1\n  iszero\n  tag_1\n  jumpi\n  0x00\n  dup1\n  revert\ntag_1:\n  pop\n  mload(0x40)\n  sub(codesize, bytecodeSize)\n  dup1\n  bytecodeSize\n  dup4\n  codecopy\n  dup2\n  dup2\n  add\n  0x40\n  mstore\n  dup2\n  add\n  swap1\n  tag_2\n  swap2\n  swap1\n  tag_3\n  jump\t// in\ntag_2:\n    /* \"Campaign.sol\":1337:1344  creator */\n  dup1\n    /* \"Campaign.sol\":1327:1334  manager */\n  0x00\n  dup1\n    /* \"Campaign.sol\":1327:1344  manager = creator */\n  0x0100\n  exp\n  dup2\n  sload\n  dup2\n  0xffffffffffffffffffffffffffffffffffffffff\n  mul\n  not\n  and\n  swap1\n  dup4\n  0xffffffffffffffffffffffffffffffffffffffff\n  and\n  mul\n  or\n  swap1\n  sstore\n  pop\n    /* \"Campaign.sol\":1377:1384  minimum */\n  dup2\n    /* \"Campaign.sol\":1355:1374  minimumContribution */\n  0x01\n    /* \"Campaign.sol\":1355:1384  minimumContribution = minimum */\n  dup2\n  swap1\n  sstore\n  pop\n    /* \"Campaign.sol\":1270:1392  constructor(uint256 minimum, address creator) {... */\n  pop\n  pop\n    /* \"Campaign.sol\":524:3991  contract Compaign {... */\n  jump(tag_6)\n    /* \"#utility.yul\":88:205   */\ntag_8:\n    /* \"#utility.yul\":197:198   */\n  0x00\n    /* \"#utility.yul\":194:195   */\n  dup1\n    /* \"#utility.yul\":187:199   */\n  revert\n    /* \"#utility.yul\":334:411   */\ntag_10:\n    /* \"#utility.yul\":371:378   */\n  0x00\n    /* \"#utility.yul\":400:405   */\n  dup2\n    /* \"#utility.yul\":389:405   */\n  swap1\n  pop\n    /* \"#utility.yul\":334:411   */\n  swap2\n  swap1\n  pop\n  jump\t// out\n    /* \"#utility.yul\":417:539   */\ntag_11:\n    /* \"#utility.yul\":490:514   */\n  tag_23\n    /* \"#utility.yul\":508:513   */\n  dup2\n    /* \"#utility.yul\":490:514   */\n  tag_10\n  jump\t// in\ntag_23:\n    /* \"#utility.yul\":483:488   */\n  dup2\n    /* \"#utility.yul\":480:515   */\n  eq\n    /* \"#utility.yul\":470:533   */\n  tag_24\n  jumpi\n    /* \"#utility.yul\":529:530   */\n  0x00\n    /* \"#utility.yul\":526:527   */\n  dup1\n    /* \"#utility.yul\":519:531   */\n  revert\n    /* \"#utility.yul\":470:533   */\ntag_24:\n    /* \"#utility.yul\":417:539   */\n  pop\n  jump\t// out\n    /* \"#utility.yul\":545:688   */\ntag_12:\n    /* \"#utility.yul\":602:607   */\n  0x00\n    /* \"#utility.yul\":633:639   */\n  dup2\n    /* \"#utility.yul\":627:640   */\n  mload\n    /* \"#utility.yul\":618:640   */\n  swap1\n  pop\n    /* \"#utility.yul\":649:682   */\n  tag_26\n    /* \"#utility.yul\":676:681   */\n  dup2\n    /* \"#utility.yul\":649:682   */\n  tag_11\n  jump\t// in\ntag_26:\n    /* \"#utility.yul\":545:688   */\n  swap3\n  swap2\n  pop\n  pop\n  jump\t// out\n    /* \"#utility.yul\":694:820   */\ntag_13:\n    /* \"#utility.yul\":731:738   */\n  0x00\n    /* \"#utility.yul\":771:813   */\n  0xffffffffffffffffffffffffffffffffffffffff\n    /* \"#utility.yul\":764:769   */\n  dup3\n    /* \"#utility.yul\":760:814   */\n  and\n    /* \"#utility.yul\":749:814   */\n  swap1\n  pop\n    /* \"#utility.yul\":694:820   */\n  swap2\n  swap1\n  pop\n  jump\t// out\n    /* \"#utility.yul\":826:922   */\ntag_14:\n    /* \"#utility.yul\":863:870   */\n  0x00\n    /* \"#utility.yul\":892:916   */\n  tag_29\n    /* \"#utility.yul\":910:915   */\n  dup3\n    /* \"#utility.yul\":892:916   */\n  tag_13\n  jump\t// in\ntag_29:\n    /* \"#utility.yul\":881:916   */\n  swap1\n  pop\n    /* \"#utility.yul\":826:922   */\n  swap2\n  swap1\n  pop\n  jump\t// out\n    /* \"#utility.yul\":928:1050   */\ntag_15:\n    /* \"#utility.yul\":1001:1025   */\n  tag_31\n    /* \"#utility.yul\":1019:1024   */\n  dup2\n    /* \"#utility.yul\":1001:1025   */\n  tag_14\n  jump\t// in\ntag_31:\n    /* \"#utility.yul\":994:999   */\n  dup2\n    /* \"#utility.yul\":991:1026   */\n  eq\n    /* \"#utility.yul\":981:1044   */\n  tag_32\n  jumpi\n    /* \"#utility.yul\":1040:1041   */\n  0x00\n    /* \"#utility.yul\":1037:1038   */\n  dup1\n    /* \"#utility.yul\":1030:1042   */\n  revert\n    /* \"#utility.yul\":981:1044   */\ntag_32:\n    /* \"#utility.yul\":928:1050   */\n  pop\n  jump\t// out\n    /* \"#utility.yul\":1056:1199   */\ntag_16:\n    /* \"#utility.yul\":1113:1118   */\n  0x00\n    /* \"#utility.yul\":1144:1150   */\n  dup2\n    /* \"#utility.yul\":1138:1151   */\n  mload\n    /* \"#utility.yul\":1129:1151   */\n  swap1\n  pop\n    /* \"#utility.yul\":1160:1193   */\n  tag_34\n    /* \"#utility.yul\":1187:1192   */\n  dup2\n    /* \"#utility.yul\":1160:1193   */\n  tag_15\n  jump\t// in\ntag_34:\n    /* \"#utility.yul\":1056:1199   */\n  swap3\n  swap2\n  pop\n  pop\n  jump\t// out\n    /* \"#utility.yul\":1205:1712   */\ntag_3:\n    /* \"#utility.yul\":1284:1290   */\n  0x00\n    /* \"#utility.yul\":1292:1298   */\n  dup1\n    /* \"#utility.yul\":1341:1343   */\n  0x40\n    /* \"#utility.yul\":1329:1338   */\n  dup4\n    /* \"#utility.yul\":1320:1327   */\n  dup6\n    /* \"#utility.yul\":1316:1339   */\n  sub\n    /* \"#utility.yul\":1312:1344   */\n  slt\n    /* \"#utility.yul\":1309:1428   */\n  iszero\n  tag_36\n  jumpi\n    /* \"#utility.yul\":1347:1426   */\n  tag_37\n  tag_8\n  jump\t// in\ntag_37:\n    /* \"#utility.yul\":1309:1428   */\ntag_36:\n    /* \"#utility.yul\":1467:1468   */\n  0x00\n    /* \"#utility.yul\":1492:1556   */\n  tag_38\n    /* \"#utility.yul\":1548:1555   */\n  dup6\n    /* \"#utility.yul\":1539:1545   */\n  dup3\n    /* \"#utility.yul\":1528:1537   */\n  dup7\n    /* \"#utility.yul\":1524:1546   */\n  add\n    /* \"#utility.yul\":1492:1556   */\n  tag_12\n  jump\t// in\ntag_38:\n    /* \"#utility.yul\":1482:1556   */\n  swap3\n  pop\n    /* \"#utility.yul\":1438:1566   */\n  pop\n    /* \"#utility.yul\":1605:1607   */\n  0x20\n    /* \"#utility.yul\":1631:1695   */\n  tag_39\n    /* \"#utility.yul\":1687:1694   */\n  dup6\n    /* \"#utility.yul\":1678:1684   */\n  dup3\n    /* \"#utility.yul\":1667:1676   */\n  dup7\n    /* \"#utility.yul\":1663:1685   */\n  add\n    /* \"#utility.yul\":1631:1695   */\n  tag_16\n  jump\t// in\ntag_39:\n    /* \"#utility.yul\":1621:1695   */\n  swap2\n  pop\n    /* \"#utility.yul\":1576:1705   */\n  pop\n    /* \"#utility.yul\":1205:1712   */\n  swap3\n  pop\n  swap3\n  swap1\n  pop\n  jump\t// out\n    /* \"Campaign.sol\":524:3991  contract Compaign {... */\ntag_6:\n  dataSize(sub_0)\n  dup1\n  dataOffset(sub_0)\n  0x00\n  codecopy\n  0x00\n  return\nstop\n\nsub_0: assembly {\n        /* \"Campaign.sol\":524:3991  contract Compaign {... */\n      mstore(0x40, 0x80)\n      jumpi(tag_1, lt(calldatasize, 0x04))\n      shr(0xe0, calldataload(0x00))\n      dup1\n      0x81d12c58\n      gt\n      tag_16\n      jumpi\n      dup1\n      0xd7bb99ba\n      gt\n      tag_17\n      jumpi\n      dup1\n      0xd7bb99ba\n      eq\n      tag_12\n      jumpi\n      dup1\n      0xd7d1bbdb\n      eq\n      tag_13\n      jumpi\n      dup1\n      0xf34d4c63\n      eq\n      tag_14\n      jumpi\n      dup1\n      0xfbfa4b7f\n      eq\n      tag_15\n      jumpi\n      jump(tag_1)\n    tag_17:\n      dup1\n      0x81d12c58\n      eq\n      tag_9\n      jumpi\n      dup1\n      0x8a9cfd55\n      eq\n      tag_10\n      jumpi\n      dup1\n      0x937e09b1\n      eq\n      tag_11\n      jumpi\n      jump(tag_1)\n    tag_16:\n      dup1\n      0x168a0620\n      gt\n      tag_18\n      jumpi\n      dup1\n      0x168a0620\n      eq\n      tag_5\n      jumpi\n      dup1\n      0x3410452a\n      eq\n      tag_6\n      jumpi\n      dup1\n      0x4051ddac\n      eq\n      tag_7\n      jumpi\n      dup1\n      0x481c6a75\n      eq\n      tag_8\n      jumpi\n      jump(tag_1)\n    tag_18:\n      dup1\n      0x03441006\n      eq\n      tag_2\n      jumpi\n      dup1\n      0x0a144391\n      eq\n      tag_3\n      jumpi\n      dup1\n      0x0ff237a5\n      eq\n      tag_4\n      jumpi\n    tag_1:\n      0x00\n      dup1\n      revert\n        /* \"Campaign.sol\":2345:2661  function finalizeRequest(uint256 index) public restricted {... */\n    tag_2:\n      callvalue\n      dup1\n      iszero\n      tag_19\n      jumpi\n      0x00\n      dup1\n      revert\n    tag_19:\n      pop\n      tag_20\n      0x04\n      dup1\n      calldatasize\n      sub\n      dup2\n      add\n      swap1\n      tag_21\n      swap2\n      swap1\n      tag_22\n      jump\t// in\n    tag_21:\n      tag_23\n      jump\t// in\n    tag_20:\n      stop\n        /* \"Campaign.sol\":956:997  mapping(address => bool) public approvers */\n    tag_3:\n      callvalue\n      dup1\n      iszero\n      tag_24\n      jumpi\n      0x00\n      dup1\n      revert\n    tag_24:\n      pop\n      tag_25\n      0x04\n      dup1\n      calldatasize\n      sub\n      dup2\n      add\n      swap1\n      tag_26\n      swap2\n      swap1\n      tag_27\n      jump\t// in\n    tag_26:\n      tag_28\n      jump\t// in\n    tag_25:\n      mload(0x40)\n      tag_29\n      swap2\n      swap1\n      tag_30\n      jump\t// in\n    tag_29:\n      mload(0x40)\n      dup1\n      swap2\n      sub\n      swap1\n      return\n        /* \"Campaign.sol\":1133:1170  uint256 public finalizedRequestsCount */\n    tag_4:\n      callvalue\n      dup1\n      iszero\n      tag_31\n      jumpi\n      0x00\n      dup1\n      revert\n    tag_31:\n      pop\n      tag_32\n      tag_33\n      jump\t// in\n    tag_32:\n      mload(0x40)\n      tag_34\n      swap2\n      swap1\n      tag_35\n      jump\t// in\n    tag_34:\n      mload(0x40)\n      dup1\n      swap2\n      sub\n      swap1\n      return\n        /* \"Campaign.sol\":1089:1126  uint256 public compaignApproversCount */\n    tag_5:\n      callvalue\n      dup1\n      iszero\n      tag_36\n      jumpi\n      0x00\n      dup1\n      revert\n    tag_36:\n      pop\n      tag_37\n      tag_38\n      jump\t// in\n    tag_37:\n      mload(0x40)\n      tag_39\n      swap2\n      swap1\n      tag_35\n      jump\t// in\n    tag_39:\n      mload(0x40)\n      dup1\n      swap2\n      sub\n      swap1\n      return\n        /* \"Campaign.sol\":3245:3342  function getRequestsCount() public view returns (uint256) {... */\n    tag_6:\n      callvalue\n      dup1\n      iszero\n      tag_40\n      jumpi\n      0x00\n      dup1\n      revert\n    tag_40:\n      pop\n      tag_41\n      tag_42\n      jump\t// in\n    tag_41:\n      mload(0x40)\n      tag_43\n      swap2\n      swap1\n      tag_35\n      jump\t// in\n    tag_43:\n      mload(0x40)\n      dup1\n      swap2\n      sub\n      swap1\n      return\n        /* \"Campaign.sol\":2669:3237  function getSummary()... */\n    tag_7:\n      callvalue\n      dup1\n      iszero\n      tag_44\n      jumpi\n      0x00\n      dup1\n      revert\n    tag_44:\n      pop\n      tag_45\n      tag_46\n      jump\t// in\n    tag_45:\n      mload(0x40)\n      tag_47\n      swap8\n      swap7\n      swap6\n      swap5\n      swap4\n      swap3\n      swap2\n      swap1\n      tag_48\n      jump\t// in\n    tag_47:\n      mload(0x40)\n      dup1\n      swap2\n      sub\n      swap1\n      return\n        /* \"Campaign.sol\":822:844  address public manager */\n    tag_8:\n      callvalue\n      dup1\n      iszero\n      tag_49\n      jumpi\n      0x00\n      dup1\n      revert\n    tag_49:\n      pop\n      tag_50\n      tag_51\n      jump\t// in\n    tag_50:\n      mload(0x40)\n      tag_52\n      swap2\n      swap1\n      tag_53\n      jump\t// in\n    tag_52:\n      mload(0x40)\n      dup1\n      swap2\n      sub\n      swap1\n      return\n        /* \"Campaign.sol\":1039:1082  mapping(uint256 => Request) public requests */\n    tag_9:\n      callvalue\n      dup1\n      iszero\n      tag_54\n      jumpi\n      0x00\n      dup1\n      revert\n    tag_54:\n      pop\n      tag_55\n      0x04\n      dup1\n      calldatasize\n      sub\n      dup2\n      add\n      swap1\n      tag_56\n      swap2\n      swap1\n      tag_22\n      jump\t// in\n    tag_56:\n      tag_57\n      jump\t// in\n    tag_55:\n      mload(0x40)\n      tag_58\n      swap6\n      swap5\n      swap4\n      swap3\n      swap2\n      swap1\n      tag_59\n      jump\t// in\n    tag_58:\n      mload(0x40)\n      dup1\n      swap2\n      sub\n      swap1\n      return\n        /* \"Campaign.sol\":1650:2071  function createRequest(... */\n    tag_10:\n      callvalue\n      dup1\n      iszero\n      tag_60\n      jumpi\n      0x00\n      dup1\n      revert\n    tag_60:\n      pop\n      tag_61\n      0x04\n      dup1\n      calldatasize\n      sub\n      dup2\n      add\n      swap1\n      tag_62\n      swap2\n      swap1\n      tag_63\n      jump\t// in\n    tag_62:\n      tag_64\n      jump\t// in\n    tag_61:\n      stop\n        /* \"Campaign.sol\":851:885  uint256 public minimumContribution */\n    tag_11:\n      callvalue\n      dup1\n      iszero\n      tag_65\n      jumpi\n      0x00\n      dup1\n      revert\n    tag_65:\n      pop\n      tag_66\n      tag_67\n      jump\t// in\n    tag_66:\n      mload(0x40)\n      tag_68\n      swap2\n      swap1\n      tag_35\n      jump\t// in\n    tag_68:\n      mload(0x40)\n      dup1\n      swap2\n      sub\n      swap1\n      return\n        /* \"Campaign.sol\":1400:1642  function contribute() public payable {... */\n    tag_12:\n      tag_69\n      tag_70\n      jump\t// in\n    tag_69:\n      stop\n        /* \"Campaign.sol\":2079:2337  function approveRequest(uint256 index) public {... */\n    tag_13:\n      callvalue\n      dup1\n      iszero\n      tag_71\n      jumpi\n      0x00\n      dup1\n      revert\n    tag_71:\n      pop\n      tag_72\n      0x04\n      dup1\n      calldatasize\n      sub\n      dup2\n      add\n      swap1\n      tag_73\n      swap2\n      swap1\n      tag_22\n      jump\t// in\n    tag_73:\n      tag_74\n      jump\t// in\n    tag_72:\n      stop\n        /* \"Campaign.sol\":3350:3988  function getRequestDetails(uint256 index)... */\n    tag_14:\n      callvalue\n      dup1\n      iszero\n      tag_75\n      jumpi\n      0x00\n      dup1\n      revert\n    tag_75:\n      pop\n      tag_76\n      0x04\n      dup1\n      calldatasize\n      sub\n      dup2\n      add\n      swap1\n      tag_77\n      swap2\n      swap1\n      tag_22\n      jump\t// in\n    tag_77:\n      tag_78\n      jump\t// in\n    tag_76:\n      mload(0x40)\n      tag_79\n      swap7\n      swap6\n      swap5\n      swap4\n      swap3\n      swap2\n      swap1\n      tag_80\n      jump\t// in\n    tag_79:\n      mload(0x40)\n      dup1\n      swap2\n      sub\n      swap1\n      return\n        /* \"Campaign.sol\":1004:1032  uint256 public requestsCount */\n    tag_15:\n      callvalue\n      dup1\n      iszero\n      tag_81\n      jumpi\n      0x00\n      dup1\n      revert\n    tag_81:\n      pop\n      tag_82\n      tag_83\n      jump\t// in\n    tag_82:\n      mload(0x40)\n      tag_84\n      swap2\n      swap1\n      tag_35\n      jump\t// in\n    tag_84:\n      mload(0x40)\n      dup1\n      swap2\n      sub\n      swap1\n      return\n        /* \"Campaign.sol\":2345:2661  function finalizeRequest(uint256 index) public restricted {... */\n    tag_23:\n        /* \"Campaign.sol\":1234:1241  manager */\n      0x00\n      dup1\n      sload\n      swap1\n      0x0100\n      exp\n      swap1\n      div\n      0xffffffffffffffffffffffffffffffffffffffff\n      and\n        /* \"Campaign.sol\":1220:1241  msg.sender == manager */\n      0xffffffffffffffffffffffffffffffffffffffff\n      and\n        /* \"Campaign.sol\":1220:1230  msg.sender */\n      caller\n        /* \"Campaign.sol\":1220:1241  msg.sender == manager */\n      0xffffffffffffffffffffffffffffffffffffffff\n      and\n      eq\n        /* \"Campaign.sol\":1212:1242  require(msg.sender == manager) */\n      tag_86\n      jumpi\n      0x00\n      dup1\n      revert\n    tag_86:\n        /* \"Campaign.sol\":2414:2431  Request storage r */\n      0x00\n        /* \"Campaign.sol\":2434:2442  requests */\n      0x04\n        /* \"Campaign.sol\":2434:2449  requests[index] */\n      0x00\n        /* \"Campaign.sol\":2443:2448  index */\n      dup4\n        /* \"Campaign.sol\":2434:2449  requests[index] */\n      dup2\n      mstore\n      0x20\n      add\n      swap1\n      dup2\n      mstore\n      0x20\n      add\n      0x00\n      keccak256\n        /* \"Campaign.sol\":2414:2449  Request storage r = requests[index] */\n      swap1\n      pop\n        /* \"Campaign.sol\":2471:2472  r */\n      dup1\n        /* \"Campaign.sol\":2471:2481  r.complete */\n      0x02\n      add\n      0x14\n      swap1\n      sload\n      swap1\n      0x0100\n      exp\n      swap1\n      div\n      0xff\n      and\n        /* \"Campaign.sol\":2470:2481  !r.complete */\n      iszero\n        /* \"Campaign.sol\":2462:2482  require(!r.complete) */\n      tag_88\n      jumpi\n      0x00\n      dup1\n      revert\n    tag_88:\n        /* \"Campaign.sol\":2545:2546  2 */\n      0x02\n        /* \"Campaign.sol\":2520:2542  compaignApproversCount */\n      sload(0x05)\n        /* \"Campaign.sol\":2520:2546  compaignApproversCount / 2 */\n      tag_89\n      swap2\n      swap1\n      tag_90\n      jump\t// in\n    tag_89:\n        /* \"Campaign.sol\":2501:2502  r */\n      dup2\n        /* \"Campaign.sol\":2501:2516  r.approvalCount */\n      0x03\n      add\n      sload\n        /* \"Campaign.sol\":2501:2547  r.approvalCount > (compaignApproversCount / 2) */\n      gt\n        /* \"Campaign.sol\":2493:2548  require(r.approvalCount > (compaignApproversCount / 2)) */\n      tag_91\n      jumpi\n      0x00\n      dup1\n      revert\n    tag_91:\n        /* \"Campaign.sol\":2561:2562  r */\n      dup1\n        /* \"Campaign.sol\":2561:2572  r.recipient */\n      0x02\n      add\n      0x00\n      swap1\n      sload\n      swap1\n      0x0100\n      exp\n      swap1\n      div\n      0xffffffffffffffffffffffffffffffffffffffff\n      and\n        /* \"Campaign.sol\":2561:2581  r.recipient.transfer */\n      0xffffffffffffffffffffffffffffffffffffffff\n      and\n        /* \"Campaign.sol\":2561:2590  r.recipient.transfer(r.value) */\n      0x08fc\n        /* \"Campaign.sol\":2582:2583  r */\n      dup3\n        /* \"Campaign.sol\":2582:2589  r.value */\n      0x01\n      add\n      sload\n        /* \"Campaign.sol\":2561:2590  r.recipient.transfer(r.value) */\n      swap1\n      dup2\n      iszero\n      mul\n      swap1\n      mload(0x40)\n      0x00\n      mload(0x40)\n      dup1\n      dup4\n      sub\n      dup2\n      dup6\n      dup9\n      dup9\n      call\n      swap4\n      pop\n      pop\n      pop\n      pop\n      iszero\n      dup1\n      iszero\n      tag_93\n      jumpi\n      returndatasize\n      0x00\n      dup1\n      returndatacopy\n      revert(0x00, returndatasize)\n    tag_93:\n      pop\n        /* \"Campaign.sol\":2614:2618  true */\n      0x01\n        /* \"Campaign.sol\":2601:2602  r */\n      dup2\n        /* \"Campaign.sol\":2601:2611  r.complete */\n      0x02\n      add\n      0x14\n        /* \"Campaign.sol\":2601:2618  r.complete = true */\n      0x0100\n      exp\n      dup2\n      sload\n      dup2\n      0xff\n      mul\n      not\n      and\n      swap1\n      dup4\n      iszero\n      iszero\n      mul\n      or\n      swap1\n      sstore\n      pop\n        /* \"Campaign.sol\":2629:2651  finalizedRequestsCount */\n      0x06\n      0x00\n        /* \"Campaign.sol\":2629:2653  finalizedRequestsCount++ */\n      dup2\n      sload\n      dup1\n      swap3\n      swap2\n      swap1\n      tag_94\n      swap1\n      tag_95\n      jump\t// in\n    tag_94:\n      swap2\n      swap1\n      pop\n      sstore\n      pop\n        /* \"Campaign.sol\":2403:2661  {... */\n      pop\n        /* \"Campaign.sol\":2345:2661  function finalizeRequest(uint256 index) public restricted {... */\n      pop\n      jump\t// out\n        /* \"Campaign.sol\":956:997  mapping(address => bool) public approvers */\n    tag_28:\n      mstore(0x20, 0x02)\n      dup1\n      0x00\n      mstore\n      keccak256(0x00, 0x40)\n      0x00\n      swap2\n      pop\n      sload\n      swap1\n      0x0100\n      exp\n      swap1\n      div\n      0xff\n      and\n      dup2\n      jump\t// out\n        /* \"Campaign.sol\":1133:1170  uint256 public finalizedRequestsCount */\n    tag_33:\n      sload(0x06)\n      dup2\n      jump\t// out\n        /* \"Campaign.sol\":1089:1126  uint256 public compaignApproversCount */\n    tag_38:\n      sload(0x05)\n      dup2\n      jump\t// out\n        /* \"Campaign.sol\":3245:3342  function getRequestsCount() public view returns (uint256) {... */\n    tag_42:\n        /* \"Campaign.sol\":3294:3301  uint256 */\n      0x00\n        /* \"Campaign.sol\":3321:3334  requestsCount */\n      sload(0x03)\n        /* \"Campaign.sol\":3314:3334  return requestsCount */\n      swap1\n      pop\n        /* \"Campaign.sol\":3245:3342  function getRequestsCount() public view returns (uint256) {... */\n      swap1\n      jump\t// out\n        /* \"Campaign.sol\":2669:3237  function getSummary()... */\n    tag_46:\n        /* \"Campaign.sol\":2753:2760  uint256 */\n      0x00\n        /* \"Campaign.sol\":2775:2782  uint256 */\n      dup1\n        /* \"Campaign.sol\":2797:2804  uint256 */\n      0x00\n        /* \"Campaign.sol\":2819:2826  uint256 */\n      dup1\n        /* \"Campaign.sol\":2841:2848  address */\n      0x00\n        /* \"Campaign.sol\":2863:2870  uint256 */\n      dup1\n        /* \"Campaign.sol\":2885:2892  uint256 */\n      0x00\n        /* \"Campaign.sol\":2942:2961  minimumContribution */\n      sload(0x01)\n        /* \"Campaign.sol\":2976:2997  address(this).balance */\n      selfbalance\n        /* \"Campaign.sol\":3012:3025  requestsCount */\n      sload(0x03)\n        /* \"Campaign.sol\":3040:3062  compaignApproversCount */\n      sload(0x05)\n        /* \"Campaign.sol\":3077:3084  manager */\n      0x00\n      dup1\n      sload\n      swap1\n      0x0100\n      exp\n      swap1\n      div\n      0xffffffffffffffffffffffffffffffffffffffff\n      and\n        /* \"Campaign.sol\":3099:3121  finalizedRequestsCount */\n      sload(0x06)\n        /* \"Campaign.sol\":3152:3174  finalizedRequestsCount */\n      sload(0x06)\n        /* \"Campaign.sol\":3136:3149  requestsCount */\n      sload(0x03)\n        /* \"Campaign.sol\":3136:3174  requestsCount - finalizedRequestsCount */\n      tag_98\n      swap2\n      swap1\n      tag_99\n      jump\t// in\n    tag_98:\n        /* \"Campaign.sol\":2920:3229  return (... */\n      swap7\n      pop\n      swap7\n      pop\n      swap7\n      pop\n      swap7\n      pop\n      swap7\n      pop\n      swap7\n      pop\n      swap7\n      pop\n        /* \"Campaign.sol\":2669:3237  function getSummary()... */\n      swap1\n      swap2\n      swap3\n      swap4\n      swap5\n      swap6\n      swap7\n      jump\t// out\n        /* \"Campaign.sol\":822:844  address public manager */\n    tag_51:\n      0x00\n      dup1\n      sload\n      swap1\n      0x0100\n      exp\n      swap1\n      div\n      0xffffffffffffffffffffffffffffffffffffffff\n      and\n      dup2\n      jump\t// out\n        /* \"Campaign.sol\":1039:1082  mapping(uint256 => Request) public requests */\n    tag_57:\n      mstore(0x20, 0x04)\n      dup1\n      0x00\n      mstore\n      keccak256(0x00, 0x40)\n      0x00\n      swap2\n      pop\n      swap1\n      pop\n      dup1\n      0x00\n      add\n      dup1\n      sload\n      tag_100\n      swap1\n      tag_101\n      jump\t// in\n    tag_100:\n      dup1\n      0x1f\n      add\n      0x20\n      dup1\n      swap2\n      div\n      mul\n      0x20\n      add\n      mload(0x40)\n      swap1\n      dup2\n      add\n      0x40\n      mstore\n      dup1\n      swap3\n      swap2\n      swap1\n      dup2\n      dup2\n      mstore\n      0x20\n      add\n      dup3\n      dup1\n      sload\n      tag_102\n      swap1\n      tag_101\n      jump\t// in\n    tag_102:\n      dup1\n      iszero\n      tag_103\n      jumpi\n      dup1\n      0x1f\n      lt\n      tag_104\n      jumpi\n      0x0100\n      dup1\n      dup4\n      sload\n      div\n      mul\n      dup4\n      mstore\n      swap2\n      0x20\n      add\n      swap2\n      jump(tag_103)\n    tag_104:\n      dup3\n      add\n      swap2\n      swap1\n      0x00\n      mstore\n      keccak256(0x00, 0x20)\n      swap1\n    tag_105:\n      dup2\n      sload\n      dup2\n      mstore\n      swap1\n      0x01\n      add\n      swap1\n      0x20\n      add\n      dup1\n      dup4\n      gt\n      tag_105\n      jumpi\n      dup3\n      swap1\n      sub\n      0x1f\n      and\n      dup3\n      add\n      swap2\n    tag_103:\n      pop\n      pop\n      pop\n      pop\n      pop\n      swap1\n      dup1\n      0x01\n      add\n      sload\n      swap1\n      dup1\n      0x02\n      add\n      0x00\n      swap1\n      sload\n      swap1\n      0x0100\n      exp\n      swap1\n      div\n      0xffffffffffffffffffffffffffffffffffffffff\n      and\n      swap1\n      dup1\n      0x02\n      add\n      0x14\n      swap1\n      sload\n      swap1\n      0x0100\n      exp\n      swap1\n      div\n      0xff\n      and\n      swap1\n      dup1\n      0x03\n      add\n      sload\n      swap1\n      pop\n      dup6\n      jump\t// out\n        /* \"Campaign.sol\":1650:2071  function createRequest(... */\n    tag_64:\n        /* \"Campaign.sol\":1234:1241  manager */\n      0x00\n      dup1\n      sload\n      swap1\n      0x0100\n      exp\n      swap1\n      div\n      0xffffffffffffffffffffffffffffffffffffffff\n      and\n        /* \"Campaign.sol\":1220:1241  msg.sender == manager */\n      0xffffffffffffffffffffffffffffffffffffffff\n      and\n        /* \"Campaign.sol\":1220:1230  msg.sender */\n      caller\n        /* \"Campaign.sol\":1220:1241  msg.sender == manager */\n      0xffffffffffffffffffffffffffffffffffffffff\n      and\n      eq\n        /* \"Campaign.sol\":1212:1242  require(msg.sender == manager) */\n      tag_107\n      jumpi\n      0x00\n      dup1\n      revert\n    tag_107:\n        /* \"Campaign.sol\":1807:1833  Request storage newRequest */\n      0x00\n        /* \"Campaign.sol\":1836:1844  requests */\n      0x04\n        /* \"Campaign.sol\":1836:1861  requests[requestsCount++] */\n      0x00\n        /* \"Campaign.sol\":1845:1858  requestsCount */\n      0x03\n      0x00\n        /* \"Campaign.sol\":1845:1860  requestsCount++ */\n      dup2\n      sload\n      dup1\n      swap3\n      swap2\n      swap1\n      tag_109\n      swap1\n      tag_95\n      jump\t// in\n    tag_109:\n      swap2\n      swap1\n      pop\n      sstore\n        /* \"Campaign.sol\":1836:1861  requests[requestsCount++] */\n      dup2\n      mstore\n      0x20\n      add\n      swap1\n      dup2\n      mstore\n      0x20\n      add\n      0x00\n      keccak256\n        /* \"Campaign.sol\":1807:1861  Request storage newRequest = requests[requestsCount++] */\n      swap1\n      pop\n        /* \"Campaign.sol\":1897:1908  description */\n      dup5\n      dup5\n        /* \"Campaign.sol\":1872:1882  newRequest */\n      dup3\n        /* \"Campaign.sol\":1872:1894  newRequest.description */\n      0x00\n      add\n        /* \"Campaign.sol\":1872:1908  newRequest.description = description */\n      swap2\n      swap1\n      tag_110\n      swap3\n      swap2\n      swap1\n      tag_111\n      jump\t// in\n    tag_110:\n      pop\n        /* \"Campaign.sol\":1938:1943  value */\n      dup3\n        /* \"Campaign.sol\":1919:1929  newRequest */\n      dup2\n        /* \"Campaign.sol\":1919:1935  newRequest.value */\n      0x01\n      add\n        /* \"Campaign.sol\":1919:1943  newRequest.value = value */\n      dup2\n      swap1\n      sstore\n      pop\n        /* \"Campaign.sol\":1977:1986  recipient */\n      dup2\n        /* \"Campaign.sol\":1954:1964  newRequest */\n      dup2\n        /* \"Campaign.sol\":1954:1974  newRequest.recipient */\n      0x02\n      add\n      0x00\n        /* \"Campaign.sol\":1954:1986  newRequest.recipient = recipient */\n      0x0100\n      exp\n      dup2\n      sload\n      dup2\n      0xffffffffffffffffffffffffffffffffffffffff\n      mul\n      not\n      and\n      swap1\n      dup4\n      0xffffffffffffffffffffffffffffffffffffffff\n      and\n      mul\n      or\n      swap1\n      sstore\n      pop\n        /* \"Campaign.sol\":2019:2024  false */\n      0x00\n        /* \"Campaign.sol\":1997:2007  newRequest */\n      dup2\n        /* \"Campaign.sol\":1997:2016  newRequest.complete */\n      0x02\n      add\n      0x14\n        /* \"Campaign.sol\":1997:2024  newRequest.complete = false */\n      0x0100\n      exp\n      dup2\n      sload\n      dup2\n      0xff\n      mul\n      not\n      and\n      swap1\n      dup4\n      iszero\n      iszero\n      mul\n      or\n      swap1\n      sstore\n      pop\n        /* \"Campaign.sol\":2062:2063  0 */\n      0x00\n        /* \"Campaign.sol\":2035:2045  newRequest */\n      dup2\n        /* \"Campaign.sol\":2035:2059  newRequest.approvalCount */\n      0x03\n      add\n        /* \"Campaign.sol\":2035:2063  newRequest.approvalCount = 0 */\n      dup2\n      swap1\n      sstore\n      pop\n        /* \"Campaign.sol\":1796:2071  {... */\n      pop\n        /* \"Campaign.sol\":1650:2071  function createRequest(... */\n      pop\n      pop\n      pop\n      pop\n      jump\t// out\n        /* \"Campaign.sol\":851:885  uint256 public minimumContribution */\n    tag_67:\n      sload(0x01)\n      dup2\n      jump\t// out\n        /* \"Campaign.sol\":1400:1642  function contribute() public payable {... */\n    tag_70:\n        /* \"Campaign.sol\":1468:1487  minimumContribution */\n      sload(0x01)\n        /* \"Campaign.sol\":1456:1465  msg.value */\n      callvalue\n        /* \"Campaign.sol\":1456:1487  msg.value > minimumContribution */\n      gt\n        /* \"Campaign.sol\":1448:1488  require(msg.value > minimumContribution) */\n      tag_113\n      jumpi\n      0x00\n      dup1\n      revert\n    tag_113:\n        /* \"Campaign.sol\":1595:1599  true */\n      0x01\n        /* \"Campaign.sol\":1571:1580  approvers */\n      0x02\n        /* \"Campaign.sol\":1571:1592  approvers[msg.sender] */\n      0x00\n        /* \"Campaign.sol\":1581:1591  msg.sender */\n      caller\n        /* \"Campaign.sol\":1571:1592  approvers[msg.sender] */\n      0xffffffffffffffffffffffffffffffffffffffff\n      and\n      0xffffffffffffffffffffffffffffffffffffffff\n      and\n      dup2\n      mstore\n      0x20\n      add\n      swap1\n      dup2\n      mstore\n      0x20\n      add\n      0x00\n      keccak256\n      0x00\n        /* \"Campaign.sol\":1571:1599  approvers[msg.sender] = true */\n      0x0100\n      exp\n      dup2\n      sload\n      dup2\n      0xff\n      mul\n      not\n      and\n      swap1\n      dup4\n      iszero\n      iszero\n      mul\n      or\n      swap1\n      sstore\n      pop\n        /* \"Campaign.sol\":1610:1632  compaignApproversCount */\n      0x05\n      0x00\n        /* \"Campaign.sol\":1610:1634  compaignApproversCount++ */\n      dup2\n      sload\n      dup1\n      swap3\n      swap2\n      swap1\n      tag_114\n      swap1\n      tag_95\n      jump\t// in\n    tag_114:\n      swap2\n      swap1\n      pop\n      sstore\n      pop\n        /* \"Campaign.sol\":1400:1642  function contribute() public payable {... */\n      jump\t// out\n        /* \"Campaign.sol\":2079:2337  function approveRequest(uint256 index) public {... */\n    tag_74:\n        /* \"Campaign.sol\":2136:2153  Request storage r */\n      0x00\n        /* \"Campaign.sol\":2156:2164  requests */\n      0x04\n        /* \"Campaign.sol\":2156:2171  requests[index] */\n      0x00\n        /* \"Campaign.sol\":2165:2170  index */\n      dup4\n        /* \"Campaign.sol\":2156:2171  requests[index] */\n      dup2\n      mstore\n      0x20\n      add\n      swap1\n      dup2\n      mstore\n      0x20\n      add\n      0x00\n      keccak256\n        /* \"Campaign.sol\":2136:2171  Request storage r = requests[index] */\n      swap1\n      pop\n        /* \"Campaign.sol\":2192:2201  approvers */\n      0x02\n        /* \"Campaign.sol\":2192:2213  approvers[msg.sender] */\n      0x00\n        /* \"Campaign.sol\":2202:2212  msg.sender */\n      caller\n        /* \"Campaign.sol\":2192:2213  approvers[msg.sender] */\n      0xffffffffffffffffffffffffffffffffffffffff\n      and\n      0xffffffffffffffffffffffffffffffffffffffff\n      and\n      dup2\n      mstore\n      0x20\n      add\n      swap1\n      dup2\n      mstore\n      0x20\n      add\n      0x00\n      keccak256\n      0x00\n      swap1\n      sload\n      swap1\n      0x0100\n      exp\n      swap1\n      div\n      0xff\n      and\n        /* \"Campaign.sol\":2184:2214  require(approvers[msg.sender]) */\n      tag_116\n      jumpi\n      0x00\n      dup1\n      revert\n    tag_116:\n        /* \"Campaign.sol\":2234:2235  r */\n      dup1\n        /* \"Campaign.sol\":2234:2245  r.approvals */\n      0x04\n      add\n        /* \"Campaign.sol\":2234:2257  r.approvals[msg.sender] */\n      0x00\n        /* \"Campaign.sol\":2246:2256  msg.sender */\n      caller\n        /* \"Campaign.sol\":2234:2257  r.approvals[msg.sender] */\n      0xffffffffffffffffffffffffffffffffffffffff\n      and\n      0xffffffffffffffffffffffffffffffffffffffff\n      and\n      dup2\n      mstore\n      0x20\n      add\n      swap1\n      dup2\n      mstore\n      0x20\n      add\n      0x00\n      keccak256\n      0x00\n      swap1\n      sload\n      swap1\n      0x0100\n      exp\n      swap1\n      div\n      0xff\n      and\n        /* \"Campaign.sol\":2233:2257  !r.approvals[msg.sender] */\n      iszero\n        /* \"Campaign.sol\":2225:2258  require(!r.approvals[msg.sender]) */\n      tag_117\n      jumpi\n      0x00\n      dup1\n      revert\n    tag_117:\n        /* \"Campaign.sol\":2297:2301  true */\n      0x01\n        /* \"Campaign.sol\":2271:2272  r */\n      dup2\n        /* \"Campaign.sol\":2271:2282  r.approvals */\n      0x04\n      add\n        /* \"Campaign.sol\":2271:2294  r.approvals[msg.sender] */\n      0x00\n        /* \"Campaign.sol\":2283:2293  msg.sender */\n      caller\n        /* \"Campaign.sol\":2271:2294  r.approvals[msg.sender] */\n      0xffffffffffffffffffffffffffffffffffffffff\n      and\n      0xffffffffffffffffffffffffffffffffffffffff\n      and\n      dup2\n      mstore\n      0x20\n      add\n      swap1\n      dup2\n      mstore\n      0x20\n      add\n      0x00\n      keccak256\n      0x00\n        /* \"Campaign.sol\":2271:2301  r.approvals[msg.sender] = true */\n      0x0100\n      exp\n      dup2\n      sload\n      dup2\n      0xff\n      mul\n      not\n      and\n      swap1\n      dup4\n      iszero\n      iszero\n      mul\n      or\n      swap1\n      sstore\n      pop\n        /* \"Campaign.sol\":2312:2313  r */\n      dup1\n        /* \"Campaign.sol\":2312:2327  r.approvalCount */\n      0x03\n      add\n      0x00\n        /* \"Campaign.sol\":2312:2329  r.approvalCount++ */\n      dup2\n      sload\n      dup1\n      swap3\n      swap2\n      swap1\n      tag_118\n      swap1\n      tag_95\n      jump\t// in\n    tag_118:\n      swap2\n      swap1\n      pop\n      sstore\n      pop\n        /* \"Campaign.sol\":2125:2337  {... */\n      pop\n        /* \"Campaign.sol\":2079:2337  function approveRequest(uint256 index) public {... */\n      pop\n      jump\t// out\n        /* \"Campaign.sol\":3350:3988  function getRequestDetails(uint256 index)... */\n    tag_78:\n        /* \"Campaign.sol\":3454:3467  string memory */\n      0x60\n        /* \"Campaign.sol\":3482:3489  uint256 */\n      0x00\n        /* \"Campaign.sol\":3504:3519  address payable */\n      dup1\n        /* \"Campaign.sol\":3534:3538  bool */\n      0x00\n        /* \"Campaign.sol\":3609:3616  uint256 */\n      dup1\n        /* \"Campaign.sol\":3631:3638  uint256 */\n      0x00\n        /* \"Campaign.sol\":3712:3735  Request storage request */\n      dup1\n        /* \"Campaign.sol\":3738:3746  requests */\n      0x04\n        /* \"Campaign.sol\":3738:3753  requests[index] */\n      0x00\n        /* \"Campaign.sol\":3747:3752  index */\n      dup10\n        /* \"Campaign.sol\":3738:3753  requests[index] */\n      dup2\n      mstore\n      0x20\n      add\n      swap1\n      dup2\n      mstore\n      0x20\n      add\n      0x00\n      keccak256\n        /* \"Campaign.sol\":3712:3753  Request storage request = requests[index] */\n      swap1\n      pop\n        /* \"Campaign.sol\":3786:3793  request */\n      dup1\n        /* \"Campaign.sol\":3786:3805  request.description */\n      0x00\n      add\n        /* \"Campaign.sol\":3820:3827  request */\n      dup2\n        /* \"Campaign.sol\":3820:3833  request.value */\n      0x01\n      add\n      sload\n        /* \"Campaign.sol\":3848:3855  request */\n      dup3\n        /* \"Campaign.sol\":3848:3865  request.recipient */\n      0x02\n      add\n      0x00\n      swap1\n      sload\n      swap1\n      0x0100\n      exp\n      swap1\n      div\n      0xffffffffffffffffffffffffffffffffffffffff\n      and\n        /* \"Campaign.sol\":3880:3887  request */\n      dup4\n        /* \"Campaign.sol\":3880:3896  request.complete */\n      0x02\n      add\n      0x14\n      swap1\n      sload\n      swap1\n      0x0100\n      exp\n      swap1\n      div\n      0xff\n      and\n        /* \"Campaign.sol\":3911:3918  request */\n      dup5\n        /* \"Campaign.sol\":3911:3932  request.approvalCount */\n      0x03\n      add\n      sload\n        /* \"Campaign.sol\":3947:3969  compaignApproversCount */\n      sload(0x05)\n        /* \"Campaign.sol\":3764:3980  return (... */\n      dup6\n      dup1\n      sload\n      tag_120\n      swap1\n      tag_101\n      jump\t// in\n    tag_120:\n      dup1\n      0x1f\n      add\n      0x20\n      dup1\n      swap2\n      div\n      mul\n      0x20\n      add\n      mload(0x40)\n      swap1\n      dup2\n      add\n      0x40\n      mstore\n      dup1\n      swap3\n      swap2\n      swap1\n      dup2\n      dup2\n      mstore\n      0x20\n      add\n      dup3\n      dup1\n      sload\n      tag_121\n      swap1\n      tag_101\n      jump\t// in\n    tag_121:\n      dup1\n      iszero\n      tag_122\n      jumpi\n      dup1\n      0x1f\n      lt\n      tag_123\n      jumpi\n      0x0100\n      dup1\n      dup4\n      sload\n      div\n      mul\n      dup4\n      mstore\n      swap2\n      0x20\n      add\n      swap2\n      jump(tag_122)\n    tag_123:\n      dup3\n      add\n      swap2\n      swap1\n      0x00\n      mstore\n      keccak256(0x00, 0x20)\n      swap1\n    tag_124:\n      dup2\n      sload\n      dup2\n      mstore\n      swap1\n      0x01\n      add\n      swap1\n      0x20\n      add\n      dup1\n      dup4\n      gt\n      tag_124\n      jumpi\n      dup3\n      swap1\n      sub\n      0x1f\n      and\n      dup3\n      add\n      swap2\n    tag_122:\n      pop\n      pop\n      pop\n      pop\n      pop\n      swap6\n      pop\n      swap7\n      pop\n      swap7\n      pop\n      swap7\n      pop\n      swap7\n      pop\n      swap7\n      pop\n      swap7\n      pop\n      pop\n        /* \"Campaign.sol\":3350:3988  function getRequestDetails(uint256 index)... */\n      swap2\n      swap4\n      swap6\n      pop\n      swap2\n      swap4\n      swap6\n      jump\t// out\n        /* \"Campaign.sol\":1004:1032  uint256 public requestsCount */\n    tag_83:\n      sload(0x03)\n      dup2\n      jump\t// out\n    tag_111:\n      dup3\n      dup1\n      sload\n      tag_125\n      swap1\n      tag_101\n      jump\t// in\n    tag_125:\n      swap1\n      0x00\n      mstore\n      keccak256(0x00, 0x20)\n      swap1\n      0x1f\n      add\n      0x20\n      swap1\n      div\n      dup2\n      add\n      swap3\n      dup3\n      tag_127\n      jumpi\n      0x00\n      dup6\n      sstore\n      jump(tag_126)\n    tag_127:\n      dup3\n      0x1f\n      lt\n      tag_128\n      jumpi\n      dup1\n      calldataload\n      not(0xff)\n      and\n      dup4\n      dup1\n      add\n      or\n      dup6\n      sstore\n      jump(tag_126)\n    tag_128:\n      dup3\n      dup1\n      add\n      0x01\n      add\n      dup6\n      sstore\n      dup3\n      iszero\n      tag_126\n      jumpi\n      swap2\n      dup3\n      add\n    tag_129:\n      dup3\n      dup2\n      gt\n      iszero\n      tag_130\n      jumpi\n      dup3\n      calldataload\n      dup3\n      sstore\n      swap2\n      0x20\n      add\n      swap2\n      swap1\n      0x01\n      add\n      swap1\n      jump(tag_129)\n    tag_130:\n    tag_126:\n      pop\n      swap1\n      pop\n      tag_131\n      swap2\n      swap1\n      tag_132\n      jump\t// in\n    tag_131:\n      pop\n      swap1\n      jump\t// out\n    tag_132:\n    tag_133:\n      dup1\n      dup3\n      gt\n      iszero\n      tag_134\n      jumpi\n      0x00\n      dup2\n      0x00\n      swap1\n      sstore\n      pop\n      0x01\n      add\n      jump(tag_133)\n    tag_134:\n      pop\n      swap1\n      jump\t// out\n        /* \"#utility.yul\":88:205   */\n    tag_136:\n        /* \"#utility.yul\":197:198   */\n      0x00\n        /* \"#utility.yul\":194:195   */\n      dup1\n        /* \"#utility.yul\":187:199   */\n      revert\n        /* \"#utility.yul\":211:328   */\n    tag_137:\n        /* \"#utility.yul\":320:321   */\n      0x00\n        /* \"#utility.yul\":317:318   */\n      dup1\n        /* \"#utility.yul\":310:322   */\n      revert\n        /* \"#utility.yul\":334:411   */\n    tag_138:\n        /* \"#utility.yul\":371:378   */\n      0x00\n        /* \"#utility.yul\":400:405   */\n      dup2\n        /* \"#utility.yul\":389:405   */\n      swap1\n      pop\n        /* \"#utility.yul\":334:411   */\n      swap2\n      swap1\n      pop\n      jump\t// out\n        /* \"#utility.yul\":417:539   */\n    tag_139:\n        /* \"#utility.yul\":490:514   */\n      tag_171\n        /* \"#utility.yul\":508:513   */\n      dup2\n        /* \"#utility.yul\":490:514   */\n      tag_138\n      jump\t// in\n    tag_171:\n        /* \"#utility.yul\":483:488   */\n      dup2\n        /* \"#utility.yul\":480:515   */\n      eq\n        /* \"#utility.yul\":470:533   */\n      tag_172\n      jumpi\n        /* \"#utility.yul\":529:530   */\n      0x00\n        /* \"#utility.yul\":526:527   */\n      dup1\n        /* \"#utility.yul\":519:531   */\n      revert\n        /* \"#utility.yul\":470:533   */\n    tag_172:\n        /* \"#utility.yul\":417:539   */\n      pop\n      jump\t// out\n        /* \"#utility.yul\":545:684   */\n    tag_140:\n        /* \"#utility.yul\":591:596   */\n      0x00\n        /* \"#utility.yul\":629:635   */\n      dup2\n        /* \"#utility.yul\":616:636   */\n      calldataload\n        /* \"#utility.yul\":607:636   */\n      swap1\n      pop\n        /* \"#utility.yul\":645:678   */\n      tag_174\n        /* \"#utility.yul\":672:677   */\n      dup2\n        /* \"#utility.yul\":645:678   */\n      tag_139\n      jump\t// in\n    tag_174:\n        /* \"#utility.yul\":545:684   */\n      swap3\n      swap2\n      pop\n      pop\n      jump\t// out\n        /* \"#utility.yul\":690:1019   */\n    tag_22:\n        /* \"#utility.yul\":749:755   */\n      0x00\n        /* \"#utility.yul\":798:800   */\n      0x20\n        /* \"#utility.yul\":786:795   */\n      dup3\n        /* \"#utility.yul\":777:784   */\n      dup5\n        /* \"#utility.yul\":773:796   */\n      sub\n        /* \"#utility.yul\":769:801   */\n      slt\n        /* \"#utility.yul\":766:885   */\n      iszero\n      tag_176\n      jumpi\n        /* \"#utility.yul\":804:883   */\n      tag_177\n      tag_136\n      jump\t// in\n    tag_177:\n        /* \"#utility.yul\":766:885   */\n    tag_176:\n        /* \"#utility.yul\":924:925   */\n      0x00\n        /* \"#utility.yul\":949:1002   */\n      tag_178\n        /* \"#utility.yul\":994:1001   */\n      dup5\n        /* \"#utility.yul\":985:991   */\n      dup3\n        /* \"#utility.yul\":974:983   */\n      dup6\n        /* \"#utility.yul\":970:992   */\n      add\n        /* \"#utility.yul\":949:1002   */\n      tag_140\n      jump\t// in\n    tag_178:\n        /* \"#utility.yul\":939:1002   */\n      swap2\n      pop\n        /* \"#utility.yul\":895:1012   */\n      pop\n        /* \"#utility.yul\":690:1019   */\n      swap3\n      swap2\n      pop\n      pop\n      jump\t// out\n        /* \"#utility.yul\":1025:1151   */\n    tag_141:\n        /* \"#utility.yul\":1062:1069   */\n      0x00\n        /* \"#utility.yul\":1102:1144   */\n      0xffffffffffffffffffffffffffffffffffffffff\n        /* \"#utility.yul\":1095:1100   */\n      dup3\n        /* \"#utility.yul\":1091:1145   */\n      and\n        /* \"#utility.yul\":1080:1145   */\n      swap1\n      pop\n        /* \"#utility.yul\":1025:1151   */\n      swap2\n      swap1\n      pop\n      jump\t// out\n        /* \"#utility.yul\":1157:1253   */\n    tag_142:\n        /* \"#utility.yul\":1194:1201   */\n      0x00\n        /* \"#utility.yul\":1223:1247   */\n      tag_181\n        /* \"#utility.yul\":1241:1246   */\n      dup3\n        /* \"#utility.yul\":1223:1247   */\n      tag_141\n      jump\t// in\n    tag_181:\n        /* \"#utility.yul\":1212:1247   */\n      swap1\n      pop\n        /* \"#utility.yul\":1157:1253   */\n      swap2\n      swap1\n      pop\n      jump\t// out\n        /* \"#utility.yul\":1259:1381   */\n    tag_143:\n        /* \"#utility.yul\":1332:1356   */\n      tag_183\n        /* \"#utility.yul\":1350:1355   */\n      dup2\n        /* \"#utility.yul\":1332:1356   */\n      tag_142\n      jump\t// in\n    tag_183:\n        /* \"#utility.yul\":1325:1330   */\n      dup2\n        /* \"#utility.yul\":1322:1357   */\n      eq\n        /* \"#utility.yul\":1312:1375   */\n      tag_184\n      jumpi\n        /* \"#utility.yul\":1371:1372   */\n      0x00\n        /* \"#utility.yul\":1368:1369   */\n      dup1\n        /* \"#utility.yul\":1361:1373   */\n      revert\n        /* \"#utility.yul\":1312:1375   */\n    tag_184:\n        /* \"#utility.yul\":1259:1381   */\n      pop\n      jump\t// out\n        /* \"#utility.yul\":1387:1526   */\n    tag_144:\n        /* \"#utility.yul\":1433:1438   */\n      0x00\n        /* \"#utility.yul\":1471:1477   */\n      dup2\n        /* \"#utility.yul\":1458:1478   */\n      calldataload\n        /* \"#utility.yul\":1449:1478   */\n      swap1\n      pop\n        /* \"#utility.yul\":1487:1520   */\n      tag_186\n        /* \"#utility.yul\":1514:1519   */\n      dup2\n        /* \"#utility.yul\":1487:1520   */\n      tag_143\n      jump\t// in\n    tag_186:\n        /* \"#utility.yul\":1387:1526   */\n      swap3\n      swap2\n      pop\n      pop\n      jump\t// out\n        /* \"#utility.yul\":1532:1861   */\n    tag_27:\n        /* \"#utility.yul\":1591:1597   */\n      0x00\n        /* \"#utility.yul\":1640:1642   */\n      0x20\n        /* \"#utility.yul\":1628:1637   */\n      dup3\n        /* \"#utility.yul\":1619:1626   */\n      dup5\n        /* \"#utility.yul\":1615:1638   */\n      sub\n        /* \"#utility.yul\":1611:1643   */\n      slt\n        /* \"#utility.yul\":1608:1727   */\n      iszero\n      tag_188\n      jumpi\n        /* \"#utility.yul\":1646:1725   */\n      tag_189\n      tag_136\n      jump\t// in\n    tag_189:\n        /* \"#utility.yul\":1608:1727   */\n    tag_188:\n        /* \"#utility.yul\":1766:1767   */\n      0x00\n        /* \"#utility.yul\":1791:1844   */\n      tag_190\n        /* \"#utility.yul\":1836:1843   */\n      dup5\n        /* \"#utility.yul\":1827:1833   */\n      dup3\n        /* \"#utility.yul\":1816:1825   */\n      dup6\n        /* \"#utility.yul\":1812:1834   */\n      add\n        /* \"#utility.yul\":1791:1844   */\n      tag_144\n      jump\t// in\n    tag_190:\n        /* \"#utility.yul\":1781:1844   */\n      swap2\n      pop\n        /* \"#utility.yul\":1737:1854   */\n      pop\n        /* \"#utility.yul\":1532:1861   */\n      swap3\n      swap2\n      pop\n      pop\n      jump\t// out\n        /* \"#utility.yul\":1867:1957   */\n    tag_145:\n        /* \"#utility.yul\":1901:1908   */\n      0x00\n        /* \"#utility.yul\":1944:1949   */\n      dup2\n        /* \"#utility.yul\":1937:1950   */\n      iszero\n        /* \"#utility.yul\":1930:1951   */\n      iszero\n        /* \"#utility.yul\":1919:1951   */\n      swap1\n      pop\n        /* \"#utility.yul\":1867:1957   */\n      swap2\n      swap1\n      pop\n      jump\t// out\n        /* \"#utility.yul\":1963:2072   */\n    tag_146:\n        /* \"#utility.yul\":2044:2065   */\n      tag_193\n        /* \"#utility.yul\":2059:2064   */\n      dup2\n        /* \"#utility.yul\":2044:2065   */\n      tag_145\n      jump\t// in\n    tag_193:\n        /* \"#utility.yul\":2039:2042   */\n      dup3\n        /* \"#utility.yul\":2032:2066   */\n      mstore\n        /* \"#utility.yul\":1963:2072   */\n      pop\n      pop\n      jump\t// out\n        /* \"#utility.yul\":2078:2288   */\n    tag_30:\n        /* \"#utility.yul\":2165:2169   */\n      0x00\n        /* \"#utility.yul\":2203:2205   */\n      0x20\n        /* \"#utility.yul\":2192:2201   */\n      dup3\n        /* \"#utility.yul\":2188:2206   */\n      add\n        /* \"#utility.yul\":2180:2206   */\n      swap1\n      pop\n        /* \"#utility.yul\":2216:2281   */\n      tag_195\n        /* \"#utility.yul\":2278:2279   */\n      0x00\n        /* \"#utility.yul\":2267:2276   */\n      dup4\n        /* \"#utility.yul\":2263:2280   */\n      add\n        /* \"#utility.yul\":2254:2260   */\n      dup5\n        /* \"#utility.yul\":2216:2281   */\n      tag_146\n      jump\t// in\n    tag_195:\n        /* \"#utility.yul\":2078:2288   */\n      swap3\n      swap2\n      pop\n      pop\n      jump\t// out\n        /* \"#utility.yul\":2294:2412   */\n    tag_147:\n        /* \"#utility.yul\":2381:2405   */\n      tag_197\n        /* \"#utility.yul\":2399:2404   */\n      dup2\n        /* \"#utility.yul\":2381:2405   */\n      tag_138\n      jump\t// in\n    tag_197:\n        /* \"#utility.yul\":2376:2379   */\n      dup3\n        /* \"#utility.yul\":2369:2406   */\n      mstore\n        /* \"#utility.yul\":2294:2412   */\n      pop\n      pop\n      jump\t// out\n        /* \"#utility.yul\":2418:2640   */\n    tag_35:\n        /* \"#utility.yul\":2511:2515   */\n      0x00\n        /* \"#utility.yul\":2549:2551   */\n      0x20\n        /* \"#utility.yul\":2538:2547   */\n      dup3\n        /* \"#utility.yul\":2534:2552   */\n      add\n        /* \"#utility.yul\":2526:2552   */\n      swap1\n      pop\n        /* \"#utility.yul\":2562:2633   */\n      tag_199\n        /* \"#utility.yul\":2630:2631   */\n      0x00\n        /* \"#utility.yul\":2619:2628   */\n      dup4\n        /* \"#utility.yul\":2615:2632   */\n      add\n        /* \"#utility.yul\":2606:2612   */\n      dup5\n        /* \"#utility.yul\":2562:2633   */\n      tag_147\n      jump\t// in\n    tag_199:\n        /* \"#utility.yul\":2418:2640   */\n      swap3\n      swap2\n      pop\n      pop\n      jump\t// out\n        /* \"#utility.yul\":2646:2764   */\n    tag_148:\n        /* \"#utility.yul\":2733:2757   */\n      tag_201\n        /* \"#utility.yul\":2751:2756   */\n      dup2\n        /* \"#utility.yul\":2733:2757   */\n      tag_142\n      jump\t// in\n    tag_201:\n        /* \"#utility.yul\":2728:2731   */\n      dup3\n        /* \"#utility.yul\":2721:2758   */\n      mstore\n        /* \"#utility.yul\":2646:2764   */\n      pop\n      pop\n      jump\t// out\n        /* \"#utility.yul\":2770:3656   */\n    tag_48:\n        /* \"#utility.yul\":3031:3035   */\n      0x00\n        /* \"#utility.yul\":3069:3072   */\n      0xe0\n        /* \"#utility.yul\":3058:3067   */\n      dup3\n        /* \"#utility.yul\":3054:3073   */\n      add\n        /* \"#utility.yul\":3046:3073   */\n      swap1\n      pop\n        /* \"#utility.yul\":3083:3154   */\n      tag_203\n        /* \"#utility.yul\":3151:3152   */\n      0x00\n        /* \"#utility.yul\":3140:3149   */\n      dup4\n        /* \"#utility.yul\":3136:3153   */\n      add\n        /* \"#utility.yul\":3127:3133   */\n      dup11\n        /* \"#utility.yul\":3083:3154   */\n      tag_147\n      jump\t// in\n    tag_203:\n        /* \"#utility.yul\":3164:3236   */\n      tag_204\n        /* \"#utility.yul\":3232:3234   */\n      0x20\n        /* \"#utility.yul\":3221:3230   */\n      dup4\n        /* \"#utility.yul\":3217:3235   */\n      add\n        /* \"#utility.yul\":3208:3214   */\n      dup10\n        /* \"#utility.yul\":3164:3236   */\n      tag_147\n      jump\t// in\n    tag_204:\n        /* \"#utility.yul\":3246:3318   */\n      tag_205\n        /* \"#utility.yul\":3314:3316   */\n      0x40\n        /* \"#utility.yul\":3303:3312   */\n      dup4\n        /* \"#utility.yul\":3299:3317   */\n      add\n        /* \"#utility.yul\":3290:3296   */\n      dup9\n        /* \"#utility.yul\":3246:3318   */\n      tag_147\n      jump\t// in\n    tag_205:\n        /* \"#utility.yul\":3328:3400   */\n      tag_206\n        /* \"#utility.yul\":3396:3398   */\n      0x60\n        /* \"#utility.yul\":3385:3394   */\n      dup4\n        /* \"#utility.yul\":3381:3399   */\n      add\n        /* \"#utility.yul\":3372:3378   */\n      dup8\n        /* \"#utility.yul\":3328:3400   */\n      tag_147\n      jump\t// in\n    tag_206:\n        /* \"#utility.yul\":3410:3483   */\n      tag_207\n        /* \"#utility.yul\":3478:3481   */\n      0x80\n        /* \"#utility.yul\":3467:3476   */\n      dup4\n        /* \"#utility.yul\":3463:3482   */\n      add\n        /* \"#utility.yul\":3454:3460   */\n      dup7\n        /* \"#utility.yul\":3410:3483   */\n      tag_148\n      jump\t// in\n    tag_207:\n        /* \"#utility.yul\":3493:3566   */\n      tag_208\n        /* \"#utility.yul\":3561:3564   */\n      0xa0\n        /* \"#utility.yul\":3550:3559   */\n      dup4\n        /* \"#utility.yul\":3546:3565   */\n      add\n        /* \"#utility.yul\":3537:3543   */\n      dup6\n        /* \"#utility.yul\":3493:3566   */\n      tag_147\n      jump\t// in\n    tag_208:\n        /* \"#utility.yul\":3576:3649   */\n      tag_209\n        /* \"#utility.yul\":3644:3647   */\n      0xc0\n        /* \"#utility.yul\":3633:3642   */\n      dup4\n        /* \"#utility.yul\":3629:3648   */\n      add\n        /* \"#utility.yul\":3620:3626   */\n      dup5\n        /* \"#utility.yul\":3576:3649   */\n      tag_147\n      jump\t// in\n    tag_209:\n        /* \"#utility.yul\":2770:3656   */\n      swap9\n      swap8\n      pop\n      pop\n      pop\n      pop\n      pop\n      pop\n      pop\n      pop\n      jump\t// out\n        /* \"#utility.yul\":3662:3884   */\n    tag_53:\n        /* \"#utility.yul\":3755:3759   */\n      0x00\n        /* \"#utility.yul\":3793:3795   */\n      0x20\n        /* \"#utility.yul\":3782:3791   */\n      dup3\n        /* \"#utility.yul\":3778:3796   */\n      add\n        /* \"#utility.yul\":3770:3796   */\n      swap1\n      pop\n        /* \"#utility.yul\":3806:3877   */\n      tag_211\n        /* \"#utility.yul\":3874:3875   */\n      0x00\n        /* \"#utility.yul\":3863:3872   */\n      dup4\n        /* \"#utility.yul\":3859:3876   */\n      add\n        /* \"#utility.yul\":3850:3856   */\n      dup5\n        /* \"#utility.yul\":3806:3877   */\n      tag_148\n      jump\t// in\n    tag_211:\n        /* \"#utility.yul\":3662:3884   */\n      swap3\n      swap2\n      pop\n      pop\n      jump\t// out\n        /* \"#utility.yul\":3890:3989   */\n    tag_149:\n        /* \"#utility.yul\":3942:3948   */\n      0x00\n        /* \"#utility.yul\":3976:3981   */\n      dup2\n        /* \"#utility.yul\":3970:3982   */\n      mload\n        /* \"#utility.yul\":3960:3982   */\n      swap1\n      pop\n        /* \"#utility.yul\":3890:3989   */\n      swap2\n      swap1\n      pop\n      jump\t// out\n        /* \"#utility.yul\":3995:4164   */\n    tag_150:\n        /* \"#utility.yul\":4079:4090   */\n      0x00\n        /* \"#utility.yul\":4113:4119   */\n      dup3\n        /* \"#utility.yul\":4108:4111   */\n      dup3\n        /* \"#utility.yul\":4101:4120   */\n      mstore\n        /* \"#utility.yul\":4153:4157   */\n      0x20\n        /* \"#utility.yul\":4148:4151   */\n      dup3\n        /* \"#utility.yul\":4144:4158   */\n      add\n        /* \"#utility.yul\":4129:4158   */\n      swap1\n      pop\n        /* \"#utility.yul\":3995:4164   */\n      swap3\n      swap2\n      pop\n      pop\n      jump\t// out\n        /* \"#utility.yul\":4170:4477   */\n    tag_151:\n        /* \"#utility.yul\":4238:4239   */\n      0x00\n        /* \"#utility.yul\":4248:4361   */\n    tag_215:\n        /* \"#utility.yul\":4262:4268   */\n      dup4\n        /* \"#utility.yul\":4259:4260   */\n      dup2\n        /* \"#utility.yul\":4256:4269   */\n      lt\n        /* \"#utility.yul\":4248:4361   */\n      iszero\n      tag_217\n      jumpi\n        /* \"#utility.yul\":4347:4348   */\n      dup1\n        /* \"#utility.yul\":4342:4345   */\n      dup3\n        /* \"#utility.yul\":4338:4349   */\n      add\n        /* \"#utility.yul\":4332:4350   */\n      mload\n        /* \"#utility.yul\":4328:4329   */\n      dup2\n        /* \"#utility.yul\":4323:4326   */\n      dup5\n        /* \"#utility.yul\":4319:4330   */\n      add\n        /* \"#utility.yul\":4312:4351   */\n      mstore\n        /* \"#utility.yul\":4284:4286   */\n      0x20\n        /* \"#utility.yul\":4281:4282   */\n      dup2\n        /* \"#utility.yul\":4277:4287   */\n      add\n        /* \"#utility.yul\":4272:4287   */\n      swap1\n      pop\n        /* \"#utility.yul\":4248:4361   */\n      jump(tag_215)\n    tag_217:\n        /* \"#utility.yul\":4379:4385   */\n      dup4\n        /* \"#utility.yul\":4376:4377   */\n      dup2\n        /* \"#utility.yul\":4373:4386   */\n      gt\n        /* \"#utility.yul\":4370:4471   */\n      iszero\n      tag_218\n      jumpi\n        /* \"#utility.yul\":4459:4460   */\n      0x00\n        /* \"#utility.yul\":4450:4456   */\n      dup5\n        /* \"#utility.yul\":4445:4448   */\n      dup5\n        /* \"#utility.yul\":4441:4457   */\n      add\n        /* \"#utility.yul\":4434:4461   */\n      mstore\n        /* \"#utility.yul\":4370:4471   */\n    tag_218:\n        /* \"#utility.yul\":4219:4477   */\n      pop\n        /* \"#utility.yul\":4170:4477   */\n      pop\n      pop\n      pop\n      jump\t// out\n        /* \"#utility.yul\":4483:4585   */\n    tag_152:\n        /* \"#utility.yul\":4524:4530   */\n      0x00\n        /* \"#utility.yul\":4575:4577   */\n      0x1f\n        /* \"#utility.yul\":4571:4578   */\n      not\n        /* \"#utility.yul\":4566:4568   */\n      0x1f\n        /* \"#utility.yul\":4559:4564   */\n      dup4\n        /* \"#utility.yul\":4555:4569   */\n      add\n        /* \"#utility.yul\":4551:4579   */\n      and\n        /* \"#utility.yul\":4541:4579   */\n      swap1\n      pop\n        /* \"#utility.yul\":4483:4585   */\n      swap2\n      swap1\n      pop\n      jump\t// out\n        /* \"#utility.yul\":4591:4955   */\n    tag_153:\n        /* \"#utility.yul\":4679:4682   */\n      0x00\n        /* \"#utility.yul\":4707:4746   */\n      tag_221\n        /* \"#utility.yul\":4740:4745   */\n      dup3\n        /* \"#utility.yul\":4707:4746   */\n      tag_149\n      jump\t// in\n    tag_221:\n        /* \"#utility.yul\":4762:4833   */\n      tag_222\n        /* \"#utility.yul\":4826:4832   */\n      dup2\n        /* \"#utility.yul\":4821:4824   */\n      dup6\n        /* \"#utility.yul\":4762:4833   */\n      tag_150\n      jump\t// in\n    tag_222:\n        /* \"#utility.yul\":4755:4833   */\n      swap4\n      pop\n        /* \"#utility.yul\":4842:4894   */\n      tag_223\n        /* \"#utility.yul\":4887:4893   */\n      dup2\n        /* \"#utility.yul\":4882:4885   */\n      dup6\n        /* \"#utility.yul\":4875:4879   */\n      0x20\n        /* \"#utility.yul\":4868:4873   */\n      dup7\n        /* \"#utility.yul\":4864:4880   */\n      add\n        /* \"#utility.yul\":4842:4894   */\n      tag_151\n      jump\t// in\n    tag_223:\n        /* \"#utility.yul\":4919:4948   */\n      tag_224\n        /* \"#utility.yul\":4941:4947   */\n      dup2\n        /* \"#utility.yul\":4919:4948   */\n      tag_152\n      jump\t// in\n    tag_224:\n        /* \"#utility.yul\":4914:4917   */\n      dup5\n        /* \"#utility.yul\":4910:4949   */\n      add\n        /* \"#utility.yul\":4903:4949   */\n      swap2\n      pop\n        /* \"#utility.yul\":4683:4955   */\n      pop\n        /* \"#utility.yul\":4591:4955   */\n      swap3\n      swap2\n      pop\n      pop\n      jump\t// out\n        /* \"#utility.yul\":4961:5065   */\n    tag_154:\n        /* \"#utility.yul\":5006:5013   */\n      0x00\n        /* \"#utility.yul\":5035:5059   */\n      tag_226\n        /* \"#utility.yul\":5053:5058   */\n      dup3\n        /* \"#utility.yul\":5035:5059   */\n      tag_141\n      jump\t// in\n    tag_226:\n        /* \"#utility.yul\":5024:5059   */\n      swap1\n      pop\n        /* \"#utility.yul\":4961:5065   */\n      swap2\n      swap1\n      pop\n      jump\t// out\n        /* \"#utility.yul\":5071:5213   */\n    tag_155:\n        /* \"#utility.yul\":5174:5206   */\n      tag_228\n        /* \"#utility.yul\":5200:5205   */\n      dup2\n        /* \"#utility.yul\":5174:5206   */\n      tag_154\n      jump\t// in\n    tag_228:\n        /* \"#utility.yul\":5169:5172   */\n      dup3\n        /* \"#utility.yul\":5162:5207   */\n      mstore\n        /* \"#utility.yul\":5071:5213   */\n      pop\n      pop\n      jump\t// out\n        /* \"#utility.yul\":5219:5994   */\n    tag_59:\n        /* \"#utility.yul\":5454:5458   */\n      0x00\n        /* \"#utility.yul\":5492:5495   */\n      0xa0\n        /* \"#utility.yul\":5481:5490   */\n      dup3\n        /* \"#utility.yul\":5477:5496   */\n      add\n        /* \"#utility.yul\":5469:5496   */\n      swap1\n      pop\n        /* \"#utility.yul\":5542:5551   */\n      dup2\n        /* \"#utility.yul\":5536:5540   */\n      dup2\n        /* \"#utility.yul\":5532:5552   */\n      sub\n        /* \"#utility.yul\":5528:5529   */\n      0x00\n        /* \"#utility.yul\":5517:5526   */\n      dup4\n        /* \"#utility.yul\":5513:5530   */\n      add\n        /* \"#utility.yul\":5506:5553   */\n      mstore\n        /* \"#utility.yul\":5570:5648   */\n      tag_230\n        /* \"#utility.yul\":5643:5647   */\n      dup2\n        /* \"#utility.yul\":5634:5640   */\n      dup9\n        /* \"#utility.yul\":5570:5648   */\n      tag_153\n      jump\t// in\n    tag_230:\n        /* \"#utility.yul\":5562:5648   */\n      swap1\n      pop\n        /* \"#utility.yul\":5658:5730   */\n      tag_231\n        /* \"#utility.yul\":5726:5728   */\n      0x20\n        /* \"#utility.yul\":5715:5724   */\n      dup4\n        /* \"#utility.yul\":5711:5729   */\n      add\n        /* \"#utility.yul\":5702:5708   */\n      dup8\n        /* \"#utility.yul\":5658:5730   */\n      tag_147\n      jump\t// in\n    tag_231:\n        /* \"#utility.yul\":5740:5828   */\n      tag_232\n        /* \"#utility.yul\":5824:5826   */\n      0x40\n        /* \"#utility.yul\":5813:5822   */\n      dup4\n        /* \"#utility.yul\":5809:5827   */\n      add\n        /* \"#utility.yul\":5800:5806   */\n      dup7\n        /* \"#utility.yul\":5740:5828   */\n      tag_155\n      jump\t// in\n    tag_232:\n        /* \"#utility.yul\":5838:5904   */\n      tag_233\n        /* \"#utility.yul\":5900:5902   */\n      0x60\n        /* \"#utility.yul\":5889:5898   */\n      dup4\n        /* \"#utility.yul\":5885:5903   */\n      add\n        /* \"#utility.yul\":5876:5882   */\n      dup6\n        /* \"#utility.yul\":5838:5904   */\n      tag_146\n      jump\t// in\n    tag_233:\n        /* \"#utility.yul\":5914:5987   */\n      tag_234\n        /* \"#utility.yul\":5982:5985   */\n      0x80\n        /* \"#utility.yul\":5971:5980   */\n      dup4\n        /* \"#utility.yul\":5967:5986   */\n      add\n        /* \"#utility.yul\":5958:5964   */\n      dup5\n        /* \"#utility.yul\":5914:5987   */\n      tag_147\n      jump\t// in\n    tag_234:\n        /* \"#utility.yul\":5219:5994   */\n      swap7\n      swap6\n      pop\n      pop\n      pop\n      pop\n      pop\n      pop\n      jump\t// out\n        /* \"#utility.yul\":6000:6117   */\n    tag_156:\n        /* \"#utility.yul\":6109:6110   */\n      0x00\n        /* \"#utility.yul\":6106:6107   */\n      dup1\n        /* \"#utility.yul\":6099:6111   */\n      revert\n        /* \"#utility.yul\":6123:6240   */\n    tag_157:\n        /* \"#utility.yul\":6232:6233   */\n      0x00\n        /* \"#utility.yul\":6229:6230   */\n      dup1\n        /* \"#utility.yul\":6222:6234   */\n      revert\n        /* \"#utility.yul\":6246:6363   */\n    tag_158:\n        /* \"#utility.yul\":6355:6356   */\n      0x00\n        /* \"#utility.yul\":6352:6353   */\n      dup1\n        /* \"#utility.yul\":6345:6357   */\n      revert\n        /* \"#utility.yul\":6383:6936   */\n    tag_159:\n        /* \"#utility.yul\":6441:6449   */\n      0x00\n        /* \"#utility.yul\":6451:6457   */\n      dup1\n        /* \"#utility.yul\":6501:6504   */\n      dup4\n        /* \"#utility.yul\":6494:6498   */\n      0x1f\n        /* \"#utility.yul\":6486:6492   */\n      dup5\n        /* \"#utility.yul\":6482:6499   */\n      add\n        /* \"#utility.yul\":6478:6505   */\n      slt\n        /* \"#utility.yul\":6468:6590   */\n      tag_239\n      jumpi\n        /* \"#utility.yul\":6509:6588   */\n      tag_240\n      tag_156\n      jump\t// in\n    tag_240:\n        /* \"#utility.yul\":6468:6590   */\n    tag_239:\n        /* \"#utility.yul\":6622:6628   */\n      dup3\n        /* \"#utility.yul\":6609:6629   */\n      calldataload\n        /* \"#utility.yul\":6599:6629   */\n      swap1\n      pop\n        /* \"#utility.yul\":6652:6670   */\n      0xffffffffffffffff\n        /* \"#utility.yul\":6644:6650   */\n      dup2\n        /* \"#utility.yul\":6641:6671   */\n      gt\n        /* \"#utility.yul\":6638:6755   */\n      iszero\n      tag_241\n      jumpi\n        /* \"#utility.yul\":6674:6753   */\n      tag_242\n      tag_157\n      jump\t// in\n    tag_242:\n        /* \"#utility.yul\":6638:6755   */\n    tag_241:\n        /* \"#utility.yul\":6788:6792   */\n      0x20\n        /* \"#utility.yul\":6780:6786   */\n      dup4\n        /* \"#utility.yul\":6776:6793   */\n      add\n        /* \"#utility.yul\":6764:6793   */\n      swap2\n      pop\n        /* \"#utility.yul\":6842:6845   */\n      dup4\n        /* \"#utility.yul\":6834:6838   */\n      0x01\n        /* \"#utility.yul\":6826:6832   */\n      dup3\n        /* \"#utility.yul\":6822:6839   */\n      mul\n        /* \"#utility.yul\":6812:6820   */\n      dup4\n        /* \"#utility.yul\":6808:6840   */\n      add\n        /* \"#utility.yul\":6805:6846   */\n      gt\n        /* \"#utility.yul\":6802:6930   */\n      iszero\n      tag_243\n      jumpi\n        /* \"#utility.yul\":6849:6928   */\n      tag_244\n      tag_158\n      jump\t// in\n    tag_244:\n        /* \"#utility.yul\":6802:6930   */\n    tag_243:\n        /* \"#utility.yul\":6383:6936   */\n      swap3\n      pop\n      swap3\n      swap1\n      pop\n      jump\t// out\n        /* \"#utility.yul\":6942:7080   */\n    tag_160:\n        /* \"#utility.yul\":7023:7055   */\n      tag_246\n        /* \"#utility.yul\":7049:7054   */\n      dup2\n        /* \"#utility.yul\":7023:7055   */\n      tag_154\n      jump\t// in\n    tag_246:\n        /* \"#utility.yul\":7016:7021   */\n      dup2\n        /* \"#utility.yul\":7013:7056   */\n      eq\n        /* \"#utility.yul\":7003:7074   */\n      tag_247\n      jumpi\n        /* \"#utility.yul\":7070:7071   */\n      0x00\n        /* \"#utility.yul\":7067:7068   */\n      dup1\n        /* \"#utility.yul\":7060:7072   */\n      revert\n        /* \"#utility.yul\":7003:7074   */\n    tag_247:\n        /* \"#utility.yul\":6942:7080   */\n      pop\n      jump\t// out\n        /* \"#utility.yul\":7086:7241   */\n    tag_161:\n        /* \"#utility.yul\":7140:7145   */\n      0x00\n        /* \"#utility.yul\":7178:7184   */\n      dup2\n        /* \"#utility.yul\":7165:7185   */\n      calldataload\n        /* \"#utility.yul\":7156:7185   */\n      swap1\n      pop\n        /* \"#utility.yul\":7194:7235   */\n      tag_249\n        /* \"#utility.yul\":7229:7234   */\n      dup2\n        /* \"#utility.yul\":7194:7235   */\n      tag_160\n      jump\t// in\n    tag_249:\n        /* \"#utility.yul\":7086:7241   */\n      swap3\n      swap2\n      pop\n      pop\n      jump\t// out\n        /* \"#utility.yul\":7247:8082   */\n    tag_63:\n        /* \"#utility.yul\":7344:7350   */\n      0x00\n        /* \"#utility.yul\":7352:7358   */\n      dup1\n        /* \"#utility.yul\":7360:7366   */\n      0x00\n        /* \"#utility.yul\":7368:7374   */\n      dup1\n        /* \"#utility.yul\":7417:7419   */\n      0x60\n        /* \"#utility.yul\":7405:7414   */\n      dup6\n        /* \"#utility.yul\":7396:7403   */\n      dup8\n        /* \"#utility.yul\":7392:7415   */\n      sub\n        /* \"#utility.yul\":7388:7420   */\n      slt\n        /* \"#utility.yul\":7385:7504   */\n      iszero\n      tag_251\n      jumpi\n        /* \"#utility.yul\":7423:7502   */\n      tag_252\n      tag_136\n      jump\t// in\n    tag_252:\n        /* \"#utility.yul\":7385:7504   */\n    tag_251:\n        /* \"#utility.yul\":7571:7572   */\n      0x00\n        /* \"#utility.yul\":7560:7569   */\n      dup6\n        /* \"#utility.yul\":7556:7573   */\n      add\n        /* \"#utility.yul\":7543:7574   */\n      calldataload\n        /* \"#utility.yul\":7601:7619   */\n      0xffffffffffffffff\n        /* \"#utility.yul\":7593:7599   */\n      dup2\n        /* \"#utility.yul\":7590:7620   */\n      gt\n        /* \"#utility.yul\":7587:7704   */\n      iszero\n      tag_253\n      jumpi\n        /* \"#utility.yul\":7623:7702   */\n      tag_254\n      tag_137\n      jump\t// in\n    tag_254:\n        /* \"#utility.yul\":7587:7704   */\n    tag_253:\n        /* \"#utility.yul\":7736:7801   */\n      tag_255\n        /* \"#utility.yul\":7793:7800   */\n      dup8\n        /* \"#utility.yul\":7784:7790   */\n      dup3\n        /* \"#utility.yul\":7773:7782   */\n      dup9\n        /* \"#utility.yul\":7769:7791   */\n      add\n        /* \"#utility.yul\":7736:7801   */\n      tag_159\n      jump\t// in\n    tag_255:\n        /* \"#utility.yul\":7718:7801   */\n      swap5\n      pop\n      swap5\n      pop\n        /* \"#utility.yul\":7514:7811   */\n      pop\n        /* \"#utility.yul\":7850:7852   */\n      0x20\n        /* \"#utility.yul\":7876:7929   */\n      tag_256\n        /* \"#utility.yul\":7921:7928   */\n      dup8\n        /* \"#utility.yul\":7912:7918   */\n      dup3\n        /* \"#utility.yul\":7901:7910   */\n      dup9\n        /* \"#utility.yul\":7897:7919   */\n      add\n        /* \"#utility.yul\":7876:7929   */\n      tag_140\n      jump\t// in\n    tag_256:\n        /* \"#utility.yul\":7866:7929   */\n      swap3\n      pop\n        /* \"#utility.yul\":7821:7939   */\n      pop\n        /* \"#utility.yul\":7978:7980   */\n      0x40\n        /* \"#utility.yul\":8004:8065   */\n      tag_257\n        /* \"#utility.yul\":8057:8064   */\n      dup8\n        /* \"#utility.yul\":8048:8054   */\n      dup3\n        /* \"#utility.yul\":8037:8046   */\n      dup9\n        /* \"#utility.yul\":8033:8055   */\n      add\n        /* \"#utility.yul\":8004:8065   */\n      tag_161\n      jump\t// in\n    tag_257:\n        /* \"#utility.yul\":7994:8065   */\n      swap2\n      pop\n        /* \"#utility.yul\":7949:8075   */\n      pop\n        /* \"#utility.yul\":7247:8082   */\n      swap3\n      swap6\n      swap2\n      swap5\n      pop\n      swap3\n      pop\n      jump\t// out\n        /* \"#utility.yul\":8088:8974   */\n    tag_80:\n        /* \"#utility.yul\":8351:8355   */\n      0x00\n        /* \"#utility.yul\":8389:8392   */\n      0xc0\n        /* \"#utility.yul\":8378:8387   */\n      dup3\n        /* \"#utility.yul\":8374:8393   */\n      add\n        /* \"#utility.yul\":8366:8393   */\n      swap1\n      pop\n        /* \"#utility.yul\":8439:8448   */\n      dup2\n        /* \"#utility.yul\":8433:8437   */\n      dup2\n        /* \"#utility.yul\":8429:8449   */\n      sub\n        /* \"#utility.yul\":8425:8426   */\n      0x00\n        /* \"#utility.yul\":8414:8423   */\n      dup4\n        /* \"#utility.yul\":8410:8427   */\n      add\n        /* \"#utility.yul\":8403:8450   */\n      mstore\n        /* \"#utility.yul\":8467:8545   */\n      tag_259\n        /* \"#utility.yul\":8540:8544   */\n      dup2\n        /* \"#utility.yul\":8531:8537   */\n      dup10\n        /* \"#utility.yul\":8467:8545   */\n      tag_153\n      jump\t// in\n    tag_259:\n        /* \"#utility.yul\":8459:8545   */\n      swap1\n      pop\n        /* \"#utility.yul\":8555:8627   */\n      tag_260\n        /* \"#utility.yul\":8623:8625   */\n      0x20\n        /* \"#utility.yul\":8612:8621   */\n      dup4\n        /* \"#utility.yul\":8608:8626   */\n      add\n        /* \"#utility.yul\":8599:8605   */\n      dup9\n        /* \"#utility.yul\":8555:8627   */\n      tag_147\n      jump\t// in\n    tag_260:\n        /* \"#utility.yul\":8637:8725   */\n      tag_261\n        /* \"#utility.yul\":8721:8723   */\n      0x40\n        /* \"#utility.yul\":8710:8719   */\n      dup4\n        /* \"#utility.yul\":8706:8724   */\n      add\n        /* \"#utility.yul\":8697:8703   */\n      dup8\n        /* \"#utility.yul\":8637:8725   */\n      tag_155\n      jump\t// in\n    tag_261:\n        /* \"#utility.yul\":8735:8801   */\n      tag_262\n        /* \"#utility.yul\":8797:8799   */\n      0x60\n        /* \"#utility.yul\":8786:8795   */\n      dup4\n        /* \"#utility.yul\":8782:8800   */\n      add\n        /* \"#utility.yul\":8773:8779   */\n      dup7\n        /* \"#utility.yul\":8735:8801   */\n      tag_146\n      jump\t// in\n    tag_262:\n        /* \"#utility.yul\":8811:8884   */\n      tag_263\n        /* \"#utility.yul\":8879:8882   */\n      0x80\n        /* \"#utility.yul\":8868:8877   */\n      dup4\n        /* \"#utility.yul\":8864:8883   */\n      add\n        /* \"#utility.yul\":8855:8861   */\n      dup6\n        /* \"#utility.yul\":8811:8884   */\n      tag_147\n      jump\t// in\n    tag_263:\n        /* \"#utility.yul\":8894:8967   */\n      tag_264\n        /* \"#utility.yul\":8962:8965   */\n      0xa0\n        /* \"#utility.yul\":8951:8960   */\n      dup4\n        /* \"#utility.yul\":8947:8966   */\n      add\n        /* \"#utility.yul\":8938:8944   */\n      dup5\n        /* \"#utility.yul\":8894:8967   */\n      tag_147\n      jump\t// in\n    tag_264:\n        /* \"#utility.yul\":8088:8974   */\n      swap8\n      swap7\n      pop\n      pop\n      pop\n      pop\n      pop\n      pop\n      pop\n      jump\t// out\n        /* \"#utility.yul\":8980:9160   */\n    tag_162:\n        /* \"#utility.yul\":9028:9105   */\n      0x4e487b7100000000000000000000000000000000000000000000000000000000\n        /* \"#utility.yul\":9025:9026   */\n      0x00\n        /* \"#utility.yul\":9018:9106   */\n      mstore\n        /* \"#utility.yul\":9125:9129   */\n      0x12\n        /* \"#utility.yul\":9122:9123   */\n      0x04\n        /* \"#utility.yul\":9115:9130   */\n      mstore\n        /* \"#utility.yul\":9149:9153   */\n      0x24\n        /* \"#utility.yul\":9146:9147   */\n      0x00\n        /* \"#utility.yul\":9139:9154   */\n      revert\n        /* \"#utility.yul\":9166:9346   */\n    tag_163:\n        /* \"#utility.yul\":9214:9291   */\n      0x4e487b7100000000000000000000000000000000000000000000000000000000\n        /* \"#utility.yul\":9211:9212   */\n      0x00\n        /* \"#utility.yul\":9204:9292   */\n      mstore\n        /* \"#utility.yul\":9311:9315   */\n      0x11\n        /* \"#utility.yul\":9308:9309   */\n      0x04\n        /* \"#utility.yul\":9301:9316   */\n      mstore\n        /* \"#utility.yul\":9335:9339   */\n      0x24\n        /* \"#utility.yul\":9332:9333   */\n      0x00\n        /* \"#utility.yul\":9325:9340   */\n      revert\n        /* \"#utility.yul\":9352:9537   */\n    tag_90:\n        /* \"#utility.yul\":9392:9393   */\n      0x00\n        /* \"#utility.yul\":9409:9429   */\n      tag_268\n        /* \"#utility.yul\":9427:9428   */\n      dup3\n        /* \"#utility.yul\":9409:9429   */\n      tag_138\n      jump\t// in\n    tag_268:\n        /* \"#utility.yul\":9404:9429   */\n      swap2\n      pop\n        /* \"#utility.yul\":9443:9463   */\n      tag_269\n        /* \"#utility.yul\":9461:9462   */\n      dup4\n        /* \"#utility.yul\":9443:9463   */\n      tag_138\n      jump\t// in\n    tag_269:\n        /* \"#utility.yul\":9438:9463   */\n      swap3\n      pop\n        /* \"#utility.yul\":9482:9483   */\n      dup3\n        /* \"#utility.yul\":9472:9507   */\n      tag_270\n      jumpi\n        /* \"#utility.yul\":9487:9505   */\n      tag_271\n      tag_162\n      jump\t// in\n    tag_271:\n        /* \"#utility.yul\":9472:9507   */\n    tag_270:\n        /* \"#utility.yul\":9529:9530   */\n      dup3\n        /* \"#utility.yul\":9526:9527   */\n      dup3\n        /* \"#utility.yul\":9522:9531   */\n      div\n        /* \"#utility.yul\":9517:9531   */\n      swap1\n      pop\n        /* \"#utility.yul\":9352:9537   */\n      swap3\n      swap2\n      pop\n      pop\n      jump\t// out\n        /* \"#utility.yul\":9543:9776   */\n    tag_95:\n        /* \"#utility.yul\":9582:9585   */\n      0x00\n        /* \"#utility.yul\":9605:9629   */\n      tag_273\n        /* \"#utility.yul\":9623:9628   */\n      dup3\n        /* \"#utility.yul\":9605:9629   */\n      tag_138\n      jump\t// in\n    tag_273:\n        /* \"#utility.yul\":9596:9629   */\n      swap2\n      pop\n        /* \"#utility.yul\":9651:9717   */\n      0xffffffffffffffffffffffffffffffffffffffffffffffffffffffffffffffff\n        /* \"#utility.yul\":9644:9649   */\n      dup3\n        /* \"#utility.yul\":9641:9718   */\n      eq\n        /* \"#utility.yul\":9638:9741   */\n      iszero\n      tag_274\n      jumpi\n        /* \"#utility.yul\":9721:9739   */\n      tag_275\n      tag_163\n      jump\t// in\n    tag_275:\n        /* \"#utility.yul\":9638:9741   */\n    tag_274:\n        /* \"#utility.yul\":9768:9769   */\n      0x01\n        /* \"#utility.yul\":9761:9766   */\n      dup3\n        /* \"#utility.yul\":9757:9770   */\n      add\n        /* \"#utility.yul\":9750:9770   */\n      swap1\n      pop\n        /* \"#utility.yul\":9543:9776   */\n      swap2\n      swap1\n      pop\n      jump\t// out\n        /* \"#utility.yul\":9782:9973   */\n    tag_99:\n        /* \"#utility.yul\":9822:9826   */\n      0x00\n        /* \"#utility.yul\":9842:9862   */\n      tag_277\n        /* \"#utility.yul\":9860:9861   */\n      dup3\n        /* \"#utility.yul\":9842:9862   */\n      tag_138\n      jump\t// in\n    tag_277:\n        /* \"#utility.yul\":9837:9862   */\n      swap2\n      pop\n        /* \"#utility.yul\":9876:9896   */\n      tag_278\n        /* \"#utility.yul\":9894:9895   */\n      dup4\n        /* \"#utility.yul\":9876:9896   */\n      tag_138\n      jump\t// in\n    tag_278:\n        /* \"#utility.yul\":9871:9896   */\n      swap3\n      pop\n        /* \"#utility.yul\":9915:9916   */\n      dup3\n        /* \"#utility.yul\":9912:9913   */\n      dup3\n        /* \"#utility.yul\":9909:9917   */\n      lt\n        /* \"#utility.yul\":9906:9940   */\n      iszero\n      tag_279\n      jumpi\n        /* \"#utility.yul\":9920:9938   */\n      tag_280\n      tag_163\n      jump\t// in\n    tag_280:\n        /* \"#utility.yul\":9906:9940   */\n    tag_279:\n        /* \"#utility.yul\":9965:9966   */\n      dup3\n        /* \"#utility.yul\":9962:9963   */\n      dup3\n        /* \"#utility.yul\":9958:9967   */\n      sub\n        /* \"#utility.yul\":9950:9967   */\n      swap1\n      pop\n        /* \"#utility.yul\":9782:9973   */\n      swap3\n      swap2\n      pop\n      pop\n      jump\t// out\n        /* \"#utility.yul\":9979:10159   */\n    tag_164:\n        /* \"#utility.yul\":10027:10104   */\n      0x4e487b7100000000000000000000000000000000000000000000000000000000\n        /* \"#utility.yul\":10024:10025   */\n      0x00\n        /* \"#utility.yul\":10017:10105   */\n      mstore\n        /* \"#utility.yul\":10124:10128   */\n      0x22\n        /* \"#utility.yul\":10121:10122   */\n      0x04\n        /* \"#utility.yul\":10114:10129   */\n      mstore\n        /* \"#utility.yul\":10148:10152   */\n      0x24\n        /* \"#utility.yul\":10145:10146   */\n      0x00\n        /* \"#utility.yul\":10138:10153   */\n      revert\n        /* \"#utility.yul\":10165:10485   */\n    tag_101:\n        /* \"#utility.yul\":10209:10215   */\n      0x00\n        /* \"#utility.yul\":10246:10247   */\n      0x02\n        /* \"#utility.yul\":10240:10244   */\n      dup3\n        /* \"#utility.yul\":10236:10248   */\n      div\n        /* \"#utility.yul\":10226:10248   */\n      swap1\n      pop\n        /* \"#utility.yul\":10293:10294   */\n      0x01\n        /* \"#utility.yul\":10287:10291   */\n      dup3\n        /* \"#utility.yul\":10283:10295   */\n      and\n        /* \"#utility.yul\":10314:10332   */\n      dup1\n        /* \"#utility.yul\":10304:10385   */\n      tag_283\n      jumpi\n        /* \"#utility.yul\":10370:10374   */\n      0x7f\n        /* \"#utility.yul\":10362:10368   */\n      dup3\n        /* \"#utility.yul\":10358:10375   */\n      and\n        /* \"#utility.yul\":10348:10375   */\n      swap2\n      pop\n        /* \"#utility.yul\":10304:10385   */\n    tag_283:\n        /* \"#utility.yul\":10432:10434   */\n      0x20\n        /* \"#utility.yul\":10424:10430   */\n      dup3\n        /* \"#utility.yul\":10421:10435   */\n      lt\n        /* \"#utility.yul\":10401:10419   */\n      dup2\n        /* \"#utility.yul\":10398:10436   */\n      eq\n        /* \"#utility.yul\":10395:10479   */\n      iszero\n      tag_284\n      jumpi\n        /* \"#utility.yul\":10451:10469   */\n      tag_285\n      tag_164\n      jump\t// in\n    tag_285:\n        /* \"#utility.yul\":10395:10479   */\n    tag_284:\n        /* \"#utility.yul\":10216:10485   */\n      pop\n        /* \"#utility.yul\":10165:10485   */\n      swap2\n      swap1\n      pop\n      jump\t// out\n\n    auxdata: 0xa264697066735822122007537e725b50ab8920db6329262a1e21cfbbadc096e3177b8d246995abc4aa0b64736f6c634300080b0033\n}\n","bytecode":{"linkReferences":{},"object":"60806040523480156200001157600080fd5b50604051620012713803806200127183398181016040528101906200003791906200012b565b806000806101000a81548173ffffffffffffffffffffffffffffffffffffffff021916908373ffffffffffffffffffffffffffffffffffffffff16021790555081600181905550505062000172565b600080fd5b6000819050919050565b620000a0816200008b565b8114620000ac57600080fd5b50565b600081519050620000c08162000095565b92915050565b600073ffffffffffffffffffffffffffffffffffffffff82169050919050565b6000620000f382620000c6565b9050919050565b6200010581620000e6565b81146200011157600080fd5b50565b6000815190506200012581620000fa565b92915050565b6000806040838503121562000145576200014462000086565b5b60006200015585828601620000af565b9250506020620001688582860162000114565b9150509250929050565b6110ef80620001826000396000f3fe6080604052600436106100dd5760003560e01c806381d12c581161007f578063d7bb99ba11610059578063d7bb99ba146102ba578063d7d1bbdb146102c4578063f34d4c63146102ed578063fbfa4b7f1461032f576100dd565b806381d12c58146102255780638a9cfd5514610266578063937e09b11461028f576100dd565b8063168a0620116100bb578063168a0620146101735780633410452a1461019e5780634051ddac146101c9578063481c6a75146101fa576100dd565b806303441006146100e25780630a1443911461010b5780630ff237a514610148575b600080fd5b3480156100ee57600080fd5b5061010960048036038101906101049190610b1a565b61035a565b005b34801561011757600080fd5b50610132600480360381019061012d9190610ba5565b6104ab565b60405161013f9190610bed565b60405180910390f35b34801561015457600080fd5b5061015d6104cb565b60405161016a9190610c17565b60405180910390f35b34801561017f57600080fd5b506101886104d1565b6040516101959190610c17565b60405180910390f35b3480156101aa57600080fd5b506101b36104d7565b6040516101c09190610c17565b60405180910390f35b3480156101d557600080fd5b506101de6104e1565b6040516101f19796959493929190610c41565b60405180910390f35b34801561020657600080fd5b5061020f610541565b60405161021c9190610cb0565b60405180910390f35b34801561023157600080fd5b5061024c60048036038101906102479190610b1a565b610565565b60405161025d959493929190610d85565b60405180910390f35b34801561027257600080fd5b5061028d60048036038101906102889190610e70565b610650565b005b34801561029b57600080fd5b506102a4610763565b6040516102b19190610c17565b60405180910390f35b6102c2610769565b005b3480156102d057600080fd5b506102eb60048036038101906102e69190610b1a565b6107e9565b005b3480156102f957600080fd5b50610314600480360381019061030f9190610b1a565b610927565b60405161032696959493929190610ee4565b60405180910390f35b34801561033b57600080fd5b50610344610a31565b6040516103519190610c17565b60405180910390f35b60008054906101000a900473ffffffffffffffffffffffffffffffffffffffff1673ffffffffffffffffffffffffffffffffffffffff163373ffffffffffffffffffffffffffffffffffffffff16146103b257600080fd5b60006004600083815260200190815260200160002090508060020160149054906101000a900460ff16156103e557600080fd5b60026005546103f49190610faa565b81600301541161040357600080fd5b8060020160009054906101000a900473ffffffffffffffffffffffffffffffffffffffff1673ffffffffffffffffffffffffffffffffffffffff166108fc82600101549081150290604051600060405180830381858888f19350505050158015610471573d6000803e3d6000fd5b5060018160020160146101000a81548160ff021916908315150217905550600660008154809291906104a290610fdb565b91905055505050565b60026020528060005260406000206000915054906101000a900460ff1681565b60065481565b60055481565b6000600354905090565b60008060008060008060006001544760035460055460008054906101000a900473ffffffffffffffffffffffffffffffffffffffff1660065460065460035461052a9190611024565b965096509650965096509650965090919293949596565b60008054906101000a900473ffffffffffffffffffffffffffffffffffffffff1681565b600460205280600052604060002060009150905080600001805461058890611087565b80601f01602080910402602001604051908101604052809291908181526020018280546105b490611087565b80156106015780601f106105d657610100808354040283529160200191610601565b820191906000526020600020905b8154815290600101906020018083116105e457829003601f168201915b5050505050908060010154908060020160009054906101000a900473ffffffffffffffffffffffffffffffffffffffff16908060020160149054906101000a900460ff16908060030154905085565b60008054906101000a900473ffffffffffffffffffffffffffffffffffffffff1673ffffffffffffffffffffffffffffffffffffffff163373ffffffffffffffffffffffffffffffffffffffff16146106a857600080fd5b600060046000600360008154809291906106c190610fdb565b919050558152602001908152602001600020905084848260000191906106e8929190610a37565b50828160010181905550818160020160006101000a81548173ffffffffffffffffffffffffffffffffffffffff021916908373ffffffffffffffffffffffffffffffffffffffff16021790555060008160020160146101000a81548160ff021916908315150217905550600081600301819055505050505050565b60015481565b600154341161077757600080fd5b6001600260003373ffffffffffffffffffffffffffffffffffffffff1673ffffffffffffffffffffffffffffffffffffffff16815260200190815260200160002060006101000a81548160ff021916908315150217905550600560008154809291906107e290610fdb565b9190505550565b6000600460008381526020019081526020016000209050600260003373ffffffffffffffffffffffffffffffffffffffff1673ffffffffffffffffffffffffffffffffffffffff16815260200190815260200160002060009054906101000a900460ff1661085657600080fd5b8060040160003373ffffffffffffffffffffffffffffffffffffffff1673ffffffffffffffffffffffffffffffffffffffff16815260200190815260200160002060009054906101000a900460ff16156108af57600080fd5b60018160040160003373ffffffffffffffffffffffffffffffffffffffff1673ffffffffffffffffffffffffffffffffffffffff16815260200190815260200160002060006101000a81548160ff02191690831515021790555080600301600081548092919061091e90610fdb565b91905055505050565b60606000806000806000806004600089815260200190815260200160002090508060000181600101548260020160009054906101000a900473ffffffffffffffffffffffffffffffffffffffff168360020160149054906101000a900460ff16846003015460055485805461099b90611087565b80601f01602080910402602001604051908101604052809291908181526020018280546109c790611087565b8015610a145780601f106109e957610100808354040283529160200191610a14565b820191906000526020600020905b8154815290600101906020018083116109f757829003601f168201915b505050505095509650965096509650965096505091939550919395565b60035481565b828054610a4390611087565b90600052602060002090601f016020900481019282610a655760008555610aac565b82601f10610a7e57803560ff1916838001178555610aac565b82800160010185558215610aac579182015b82811115610aab578235825591602001919060010190610a90565b5b509050610ab99190610abd565b5090565b5b80821115610ad6576000816000905550600101610abe565b5090565b600080fd5b600080fd5b6000819050919050565b610af781610ae4565b8114610b0257600080fd5b50565b600081359050610b1481610aee565b92915050565b600060208284031215610b3057610b2f610ada565b5b6000610b3e84828501610b05565b91505092915050565b600073ffffffffffffffffffffffffffffffffffffffff82169050919050565b6000610b7282610b47565b9050919050565b610b8281610b67565b8114610b8d57600080fd5b50565b600081359050610b9f81610b79565b92915050565b600060208284031215610bbb57610bba610ada565b5b6000610bc984828501610b90565b91505092915050565b60008115159050919050565b610be781610bd2565b82525050565b6000602082019050610c026000830184610bde565b92915050565b610c1181610ae4565b82525050565b6000602082019050610c2c6000830184610c08565b92915050565b610c3b81610b67565b82525050565b600060e082019050610c56600083018a610c08565b610c636020830189610c08565b610c706040830188610c08565b610c7d6060830187610c08565b610c8a6080830186610c32565b610c9760a0830185610c08565b610ca460c0830184610c08565b98975050505050505050565b6000602082019050610cc56000830184610c32565b92915050565b600081519050919050565b600082825260208201905092915050565b60005b83811015610d05578082015181840152602081019050610cea565b83811115610d14576000848401525b50505050565b6000601f19601f8301169050919050565b6000610d3682610ccb565b610d408185610cd6565b9350610d50818560208601610ce7565b610d5981610d1a565b840191505092915050565b6000610d6f82610b47565b9050919050565b610d7f81610d64565b82525050565b600060a0820190508181036000830152610d9f8188610d2b565b9050610dae6020830187610c08565b610dbb6040830186610d76565b610dc86060830185610bde565b610dd56080830184610c08565b9695505050505050565b600080fd5b600080fd5b600080fd5b60008083601f840112610e0457610e03610ddf565b5b8235905067ffffffffffffffff811115610e2157610e20610de4565b5b602083019150836001820283011115610e3d57610e3c610de9565b5b9250929050565b610e4d81610d64565b8114610e5857600080fd5b50565b600081359050610e6a81610e44565b92915050565b60008060008060608587031215610e8a57610e89610ada565b5b600085013567ffffffffffffffff811115610ea857610ea7610adf565b5b610eb487828801610dee565b94509450506020610ec787828801610b05565b9250506040610ed887828801610e5b565b91505092959194509250565b600060c0820190508181036000830152610efe8189610d2b565b9050610f0d6020830188610c08565b610f1a6040830187610d76565b610f276060830186610bde565b610f346080830185610c08565b610f4160a0830184610c08565b979650505050505050565b7f4e487b7100000000000000000000000000000000000000000000000000000000600052601260045260246000fd5b7f4e487b7100000000000000000000000000000000000000000000000000000000600052601160045260246000fd5b6000610fb582610ae4565b9150610fc083610ae4565b925082610fd057610fcf610f4c565b5b828204905092915050565b6000610fe682610ae4565b91507fffffffffffffffffffffffffffffffffffffffffffffffffffffffffffffffff82141561101957611018610f7b565b5b600182019050919050565b600061102f82610ae4565b915061103a83610ae4565b92508282101561104d5761104c610f7b565b5b828203905092915050565b7f4e487b7100000000000000000000000000000000000000000000000000000000600052602260045260246000fd5b6000600282049050600182168061109f57607f821691505b602082108114156110b3576110b2611058565b5b5091905056fea264697066735822122007537e725b50ab8920db6329262a1e21cfbbadc096e3177b8d246995abc4aa0b64736f6c634300080b0033","opcodes":"PUSH1 0x80 PUSH1 0x40 MSTORE CALLVALUE DUP1 ISZERO PUSH3 0x11 JUMPI PUSH1 0x0 DUP1 REVERT JUMPDEST POP PUSH1 0x40 MLOAD PUSH3 0x1271 CODESIZE SUB DUP1 PUSH3 0x1271 DUP4 CODECOPY DUP2 DUP2 ADD PUSH1 0x40 MSTORE DUP2 ADD SWAP1 PUSH3 0x37 SWAP2 SWAP1 PUSH3 0x12B JUMP JUMPDEST DUP1 PUSH1 0x0 DUP1 PUSH2 0x100 EXP DUP2 SLOAD DUP2 PUSH20 0xFFFFFFFFFFFFFFFFFFFFFFFFFFFFFFFFFFFFFFFF MUL NOT AND SWAP1 DUP4 PUSH20 0xFFFFFFFFFFFFFFFFFFFFFFFFFFFFFFFFFFFFFFFF AND MUL OR SWAP1 SSTORE POP DUP2 PUSH1 0x1 DUP2 SWAP1 SSTORE POP POP POP PUSH3 0x172 JUMP JUMPDEST PUSH1 0x0 DUP1 REVERT JUMPDEST PUSH1 0x0 DUP2 SWAP1 POP SWAP2 SWAP1 POP JUMP JUMPDEST PUSH3 0xA0 DUP2 PUSH3 0x8B JUMP JUMPDEST DUP2 EQ PUSH3 0xAC JUMPI PUSH1 0x0 DUP1 REVERT JUMPDEST POP JUMP JUMPDEST PUSH1 0x0 DUP2 MLOAD SWAP1 POP PUSH3 0xC0 DUP2 PUSH3 0x95 JUMP JUMPDEST SWAP3 SWAP2 POP POP JUMP JUMPDEST PUSH1 0x0 PUSH20 0xFFFFFFFFFFFFFFFFFFFFFFFFFFFFFFFFFFFFFFFF DUP3 AND SWAP1 POP SWAP2 SWAP1 POP JUMP JUMPDEST PUSH1 0x0 PUSH3 0xF3 DUP3 PUSH3 0xC6 JUMP JUMPDEST SWAP1 POP SWAP2 SWAP1 POP JUMP JUMPDEST PUSH3 0x105 DUP2 PUSH3 0xE6 JUMP JUMPDEST DUP2 EQ PUSH3 0x111 JUMPI PUSH1 0x0 DUP1 REVERT JUMPDEST POP JUMP JUMPDEST PUSH1 0x0 DUP2 MLOAD SWAP1 POP PUSH3 0x125 DUP2 PUSH3 0xFA JUMP JUMPDEST SWAP3 SWAP2 POP POP JUMP JUMPDEST PUSH1 0x0 DUP1 PUSH1 0x40 DUP4 DUP6 SUB SLT ISZERO PUSH3 0x145 JUMPI PUSH3 0x144 PUSH3 0x86 JUMP JUMPDEST JUMPDEST PUSH1 0x0 PUSH3 0x155 DUP6 DUP3 DUP7 ADD PUSH3 0xAF JUMP JUMPDEST SWAP3 POP POP PUSH1 0x20 PUSH3 0x168 DUP6 DUP3 DUP7 ADD PUSH3 0x114 JUMP JUMPDEST SWAP2 POP POP SWAP3 POP SWAP3 SWAP1 POP JUMP JUMPDEST PUSH2 0x10EF DUP1 PUSH3 0x182 PUSH1 0x0 CODECOPY PUSH1 0x0 RETURN INVALID PUSH1 0x80 PUSH1 0x40 MSTORE PUSH1 0x4 CALLDATASIZE LT PUSH2 0xDD JUMPI PUSH1 0x0 CALLDATALOAD PUSH1 0xE0 SHR DUP1 PUSH4 0x81D12C58 GT PUSH2 0x7F JUMPI DUP1 PUSH4 0xD7BB99BA GT PUSH2 0x59 JUMPI DUP1 PUSH4 0xD7BB99BA EQ PUSH2 0x2BA JUMPI DUP1 PUSH4 0xD7D1BBDB EQ PUSH2 0x2C4 JUMPI DUP1 PUSH4 0xF34D4C63 EQ PUSH2 0x2ED JUMPI DUP1 PUSH4 0xFBFA4B7F EQ PUSH2 0x32F JUMPI PUSH2 0xDD JUMP JUMPDEST DUP1 PUSH4 0x81D12C58 EQ PUSH2 0x225 JUMPI DUP1 PUSH4 0x8A9CFD55 EQ PUSH2 0x266 JUMPI DUP1 PUSH4 0x937E09B1 EQ PUSH2 0x28F JUMPI PUSH2 0xDD JUMP JUMPDEST DUP1 PUSH4 0x168A0620 GT PUSH2 0xBB JUMPI DUP1 PUSH4 0x168A0620 EQ PUSH2 0x173 JUMPI DUP1 PUSH4 0x3410452A EQ PUSH2 0x19E JUMPI DUP1 PUSH4 0x4051DDAC EQ PUSH2 0x1C9 JUMPI DUP1 PUSH4 0x481C6A75 EQ PUSH2 0x1FA JUMPI PUSH2 0xDD JUMP JUMPDEST DUP1 PUSH4 0x3441006 EQ PUSH2 0xE2 JUMPI DUP1 PUSH4 0xA144391 EQ PUSH2 0x10B JUMPI DUP1 PUSH4 0xFF237A5 EQ PUSH2 0x148 JUMPI JUMPDEST PUSH1 0x0 DUP1 REVERT JUMPDEST CALLVALUE DUP1 ISZERO PUSH2 0xEE JUMPI PUSH1 0x0 DUP1 REVERT JUMPDEST POP PUSH2 0x109 PUSH1 0x4 DUP1 CALLDATASIZE SUB DUP2 ADD SWAP1 PUSH2 0x104 SWAP2 SWAP1 PUSH2 0xB1A JUMP JUMPDEST PUSH2 0x35A JUMP JUMPDEST STOP JUMPDEST CALLVALUE DUP1 ISZERO PUSH2 0x117 JUMPI PUSH1 0x0 DUP1 REVERT JUMPDEST POP PUSH2 0x132 PUSH1 0x4 DUP1 CALLDATASIZE SUB DUP2 ADD SWAP1 PUSH2 0x12D SWAP2 SWAP1 PUSH2 0xBA5 JUMP JUMPDEST PUSH2 0x4AB JUMP JUMPDEST PUSH1 0x40 MLOAD PUSH2 0x13F SWAP2 SWAP1 PUSH2 0xBED JUMP JUMPDEST PUSH1 0x40 MLOAD DUP1 SWAP2 SUB SWAP1 RETURN JUMPDEST CALLVALUE DUP1 ISZERO PUSH2 0x154 JUMPI PUSH1 0x0 DUP1 REVERT JUMPDEST POP PUSH2 0x15D PUSH2 0x4CB JUMP JUMPDEST PUSH1 0x40 MLOAD PUSH2 0x16A SWAP2 SWAP1 PUSH2 0xC17 JUMP JUMPDEST PUSH1 0x40 MLOAD DUP1 SWAP2 SUB SWAP1 RETURN JUMPDEST CALLVALUE DUP1 ISZERO PUSH2 0x17F JUMPI PUSH1 0x0 DUP1 REVERT JUMPDEST POP PUSH2 0x188 PUSH2 0x4D1 JUMP JUMPDEST PUSH1 0x40 MLOAD PUSH2 0x195 SWAP2 SWAP1 PUSH2 0xC17 JUMP JUMPDEST PUSH1 0x40 MLOAD DUP1 SWAP2 SUB SWAP1 RETURN JUMPDEST CALLVALUE DUP1 ISZERO PUSH2 0x1AA JUMPI PUSH1 0x0 DUP1 REVERT JUMPDEST POP PUSH2 0x1B3 PUSH2 0x4D7 JUMP JUMPDEST PUSH1 0x40 MLOAD PUSH2 0x1C0 SWAP2 SWAP1 PUSH2 0xC17 JUMP JUMPDEST PUSH1 0x40 MLOAD DUP1 SWAP2 SUB SWAP1 RETURN JUMPDEST CALLVALUE DUP1 ISZERO PUSH2 0x1D5 JUMPI PUSH1 0x0 DUP1 REVERT JUMPDEST POP PUSH2 0x1DE PUSH2 0x4E1 JUMP JUMPDEST PUSH1 0x40 MLOAD PUSH2 0x1F1 SWAP8 SWAP7 SWAP6 SWAP5 SWAP4 SWAP3 SWAP2 SWAP1 PUSH2 0xC41 JUMP JUMPDEST PUSH1 0x40 MLOAD DUP1 SWAP2 SUB SWAP1 RETURN JUMPDEST CALLVALUE DUP1 ISZERO PUSH2 0x206 JUMPI PUSH1 0x0 DUP1 REVERT JUMPDEST POP PUSH2 0x20F PUSH2 0x541 JUMP JUMPDEST PUSH1 0x40 MLOAD PUSH2 0x21C SWAP2 SWAP1 PUSH2 0xCB0 JUMP JUMPDEST PUSH1 0x40 MLOAD DUP1 SWAP2 SUB SWAP1 RETURN JUMPDEST CALLVALUE DUP1 ISZERO PUSH2 0x231 JUMPI PUSH1 0x0 DUP1 REVERT JUMPDEST POP PUSH2 0x24C PUSH1 0x4 DUP1 CALLDATASIZE SUB DUP2 ADD SWAP1 PUSH2 0x247 SWAP2 SWAP1 PUSH2 0xB1A JUMP JUMPDEST PUSH2 0x565 JUMP JUMPDEST PUSH1 0x40 MLOAD PUSH2 0x25D SWAP6 SWAP5 SWAP4 SWAP3 SWAP2 SWAP1 PUSH2 0xD85 JUMP JUMPDEST PUSH1 0x40 MLOAD DUP1 SWAP2 SUB SWAP1 RETURN JUMPDEST CALLVALUE DUP1 ISZERO PUSH2 0x272 JUMPI PUSH1 0x0 DUP1 REVERT JUMPDEST POP PUSH2 0x28D PUSH1 0x4 DUP1 CALLDATASIZE SUB DUP2 ADD SWAP1 PUSH2 0x288 SWAP2 SWAP1 PUSH2 0xE70 JUMP JUMPDEST PUSH2 0x650 JUMP JUMPDEST STOP JUMPDEST CALLVALUE DUP1 ISZERO PUSH2 0x29B JUMPI PUSH1 0x0 DUP1 REVERT JUMPDEST POP PUSH2 0x2A4 PUSH2 0x763 JUMP JUMPDEST PUSH1 0x40 MLOAD PUSH2 0x2B1 SWAP2 SWAP1 PUSH2 0xC17 JUMP JUMPDEST PUSH1 0x40 MLOAD DUP1 SWAP2 SUB SWAP1 RETURN JUMPDEST PUSH2 0x2C2 PUSH2 0x769 JUMP JUMPDEST STOP JUMPDEST CALLVALUE DUP1 ISZERO PUSH2 0x2D0 JUMPI PUSH1 0x0 DUP1 REVERT JUMPDEST POP PUSH2 0x2EB PUSH1 0x4 DUP1 CALLDATASIZE SUB DUP2 ADD SWAP1 PUSH2 0x2E6 SWAP2 SWAP1 PUSH2 0xB1A JUMP JUMPDEST PUSH2 0x7E9 JUMP JUMPDEST STOP JUMPDEST CALLVALUE DUP1 ISZERO PUSH2 0x2F9 JUMPI PUSH1 0x0 DUP1 REVERT JUMPDEST POP PUSH2 0x314 PUSH1 0x4 DUP1 CALLDATASIZE SUB DUP2 ADD SWAP1 PUSH2 0x30F SWAP2 SWAP1 PUSH2 0xB1A JUMP JUMPDEST PUSH2 0x927 JUMP JUMPDEST PUSH1 0x40 MLOAD PUSH2 0x326 SWAP7 SWAP6 SWAP5 SWAP4 SWAP3 SWAP2 SWAP1 PUSH2 0xEE4 JUMP JUMPDEST PUSH1 0x40 MLOAD DUP1 SWAP2 SUB SWAP1 RETURN JUMPDEST CALLVALUE DUP1 ISZERO PUSH2 0x33B JUMPI PUSH1 0x0 DUP1 REVERT JUMPDEST POP PUSH2 0x344 PUSH2 0xA31 JUMP JUMPDEST PUSH1 0x40 MLOAD PUSH2 0x351 SWAP2 SWAP1 PUSH2 0xC17 JUMP JUMPDEST PUSH1 0x40 MLOAD DUP1 SWAP2 SUB SWAP1 RETURN JUMPDEST PUSH1 0x0 DUP1 SLOAD SWAP1 PUSH2 0x100 EXP SWAP1 DIV PUSH20 0xFFFFFFFFFFFFFFFFFFFFFFFFFFFFFFFFFFFFFFFF AND PUSH20 0xFFFFFFFFFFFFFFFFFFFFFFFFFFFFFFFFFFFFFFFF AND CALLER PUSH20 0xFFFFFFFFFFFFFFFFFFFFFFFFFFFFFFFFFFFFFFFF AND EQ PUSH2 0x3B2 JUMPI PUSH1 0x0 DUP1 REVERT JUMPDEST PUSH1 0x0 PUSH1 0x4 PUSH1 0x0 DUP4 DUP2 MSTORE PUSH1 0x20 ADD SWAP1 DUP2 MSTORE PUSH1 0x20 ADD PUSH1 0x0 KECCAK256 SWAP1 POP DUP1 PUSH1 0x2 ADD PUSH1 0x14 SWAP1 SLOAD SWAP1 PUSH2 0x100 EXP SWAP1 DIV PUSH1 0xFF AND ISZERO PUSH2 0x3E5 JUMPI PUSH1 0x0 DUP1 REVERT JUMPDEST PUSH1 0x2 PUSH1 0x5 SLOAD PUSH2 0x3F4 SWAP2 SWAP1 PUSH2 0xFAA JUMP JUMPDEST DUP2 PUSH1 0x3 ADD SLOAD GT PUSH2 0x403 JUMPI PUSH1 0x0 DUP1 REVERT JUMPDEST DUP1 PUSH1 0x2 ADD PUSH1 0x0 SWAP1 SLOAD SWAP1 PUSH2 0x100 EXP SWAP1 DIV PUSH20 0xFFFFFFFFFFFFFFFFFFFFFFFFFFFFFFFFFFFFFFFF AND PUSH20 0xFFFFFFFFFFFFFFFFFFFFFFFFFFFFFFFFFFFFFFFF AND PUSH2 0x8FC DUP3 PUSH1 0x1 ADD SLOAD SWAP1 DUP2 ISZERO MUL SWAP1 PUSH1 0x40 MLOAD PUSH1 0x0 PUSH1 0x40 MLOAD DUP1 DUP4 SUB DUP2 DUP6 DUP9 DUP9 CALL SWAP4 POP POP POP POP ISZERO DUP1 ISZERO PUSH2 0x471 JUMPI RETURNDATASIZE PUSH1 0x0 DUP1 RETURNDATACOPY RETURNDATASIZE PUSH1 0x0 REVERT JUMPDEST POP PUSH1 0x1 DUP2 PUSH1 0x2 ADD PUSH1 0x14 PUSH2 0x100 EXP DUP2 SLOAD DUP2 PUSH1 0xFF MUL NOT AND SWAP1 DUP4 ISZERO ISZERO MUL OR SWAP1 SSTORE POP PUSH1 0x6 PUSH1 0x0 DUP2 SLOAD DUP1 SWAP3 SWAP2 SWAP1 PUSH2 0x4A2 SWAP1 PUSH2 0xFDB JUMP JUMPDEST SWAP2 SWAP1 POP SSTORE POP POP POP JUMP JUMPDEST PUSH1 0x2 PUSH1 0x20 MSTORE DUP1 PUSH1 0x0 MSTORE PUSH1 0x40 PUSH1 0x0 KECCAK256 PUSH1 0x0 SWAP2 POP SLOAD SWAP1 PUSH2 0x100 EXP SWAP1 DIV PUSH1 0xFF AND DUP2 JUMP JUMPDEST PUSH1 0x6 SLOAD DUP2 JUMP JUMPDEST PUSH1 0x5 SLOAD DUP2 JUMP JUMPDEST PUSH1 0x0 PUSH1 0x3 SLOAD SWAP1 POP SWAP1 JUMP JUMPDEST PUSH1 0x0 DUP1 PUSH1 0x0 DUP1 PUSH1 0x0 DUP1 PUSH1 0x0 PUSH1 0x1 SLOAD SELFBALANCE PUSH1 0x3 SLOAD PUSH1 0x5 SLOAD PUSH1 0x0 DUP1 SLOAD SWAP1 PUSH2 0x100 EXP SWAP1 DIV PUSH20 0xFFFFFFFFFFFFFFFFFFFFFFFFFFFFFFFFFFFFFFFF AND PUSH1 0x6 SLOAD PUSH1 0x6 SLOAD PUSH1 0x3 SLOAD PUSH2 0x52A SWAP2 SWAP1 PUSH2 0x1024 JUMP JUMPDEST SWAP7 POP SWAP7 POP SWAP7 POP SWAP7 POP SWAP7 POP SWAP7 POP SWAP7 POP SWAP1 SWAP2 SWAP3 SWAP4 SWAP5 SWAP6 SWAP7 JUMP JUMPDEST PUSH1 0x0 DUP1 SLOAD SWAP1 PUSH2 0x100 EXP SWAP1 DIV PUSH20 0xFFFFFFFFFFFFFFFFFFFFFFFFFFFFFFFFFFFFFFFF AND DUP2 JUMP JUMPDEST PUSH1 0x4 PUSH1 0x20 MSTORE DUP1 PUSH1 0x0 MSTORE PUSH1 0x40 PUSH1 0x0 KECCAK256 PUSH1 0x0 SWAP2 POP SWAP1 POP DUP1 PUSH1 0x0 ADD DUP1 SLOAD PUSH2 0x588 SWAP1 PUSH2 0x1087 JUMP JUMPDEST DUP1 PUSH1 0x1F ADD PUSH1 0x20 DUP1 SWAP2 DIV MUL PUSH1 0x20 ADD PUSH1 0x40 MLOAD SWAP1 DUP2 ADD PUSH1 0x40 MSTORE DUP1 SWAP3 SWAP2 SWAP1 DUP2 DUP2 MSTORE PUSH1 0x20 ADD DUP3 DUP1 SLOAD PUSH2 0x5B4 SWAP1 PUSH2 0x1087 JUMP JUMPDEST DUP1 ISZERO PUSH2 0x601 JUMPI DUP1 PUSH1 0x1F LT PUSH2 0x5D6 JUMPI PUSH2 0x100 DUP1 DUP4 SLOAD DIV MUL DUP4 MSTORE SWAP2 PUSH1 0x20 ADD SWAP2 PUSH2 0x601 JUMP JUMPDEST DUP3 ADD SWAP2 SWAP1 PUSH1 0x0 MSTORE PUSH1 0x20 PUSH1 0x0 KECCAK256 SWAP1 JUMPDEST DUP2 SLOAD DUP2 MSTORE SWAP1 PUSH1 0x1 ADD SWAP1 PUSH1 0x20 ADD DUP1 DUP4 GT PUSH2 0x5E4 JUMPI DUP3 SWAP1 SUB PUSH1 0x1F AND DUP3 ADD SWAP2 JUMPDEST POP POP POP POP POP SWAP1 DUP1 PUSH1 0x1 ADD SLOAD SWAP1 DUP1 PUSH1 0x2 ADD PUSH1 0x0 SWAP1 SLOAD SWAP1 PUSH2 0x100 EXP SWAP1 DIV PUSH20 0xFFFFFFFFFFFFFFFFFFFFFFFFFFFFFFFFFFFFFFFF AND SWAP1 DUP1 PUSH1 0x2 ADD PUSH1 0x14 SWAP1 SLOAD SWAP1 PUSH2 0x100 EXP SWAP1 DIV PUSH1 0xFF AND SWAP1 DUP1 PUSH1 0x3 ADD SLOAD SWAP1 POP DUP6 JUMP JUMPDEST PUSH1 0x0 DUP1 SLOAD SWAP1 PUSH2 0x100 EXP SWAP1 DIV PUSH20 0xFFFFFFFFFFFFFFFFFFFFFFFFFFFFFFFFFFFFFFFF AND PUSH20 0xFFFFFFFFFFFFFFFFFFFFFFFFFFFFFFFFFFFFFFFF AND CALLER PUSH20 0xFFFFFFFFFFFFFFFFFFFFFFFFFFFFFFFFFFFFFFFF AND EQ PUSH2 0x6A8 JUMPI PUSH1 0x0 DUP1 REVERT JUMPDEST PUSH1 0x0 PUSH1 0x4 PUSH1 0x0 PUSH1 0x3 PUSH1 0x0 DUP2 SLOAD DUP1 SWAP3 SWAP2 SWAP1 PUSH2 0x6C1 SWAP1 PUSH2 0xFDB JUMP JUMPDEST SWAP2 SWAP1 POP SSTORE DUP2 MSTORE PUSH1 0x20 ADD SWAP1 DUP2 MSTORE PUSH1 0x20 ADD PUSH1 0x0 KECCAK256 SWAP1 POP DUP5 DUP5 DUP3 PUSH1 0x0 ADD SWAP2 SWAP1 PUSH2 0x6E8 SWAP3 SWAP2 SWAP1 PUSH2 0xA37 JUMP JUMPDEST POP DUP3 DUP2 PUSH1 0x1 ADD DUP2 SWAP1 SSTORE POP DUP2 DUP2 PUSH1 0x2 ADD PUSH1 0x0 PUSH2 0x100 EXP DUP2 SLOAD DUP2 PUSH20 0xFFFFFFFFFFFFFFFFFFFFFFFFFFFFFFFFFFFFFFFF MUL NOT AND SWAP1 DUP4 PUSH20 0xFFFFFFFFFFFFFFFFFFFFFFFFFFFFFFFFFFFFFFFF AND MUL OR SWAP1 SSTORE POP PUSH1 0x0 DUP2 PUSH1 0x2 ADD PUSH1 0x14 PUSH2 0x100 EXP DUP2 SLOAD DUP2 PUSH1 0xFF MUL NOT AND SWAP1 DUP4 ISZERO ISZERO MUL OR SWAP1 SSTORE POP PUSH1 0x0 DUP2 PUSH1 0x3 ADD DUP2 SWAP1 SSTORE POP POP POP POP POP POP JUMP JUMPDEST PUSH1 0x1 SLOAD DUP2 JUMP JUMPDEST PUSH1 0x1 SLOAD CALLVALUE GT PUSH2 0x777 JUMPI PUSH1 0x0 DUP1 REVERT JUMPDEST PUSH1 0x1 PUSH1 0x2 PUSH1 0x0 CALLER PUSH20 0xFFFFFFFFFFFFFFFFFFFFFFFFFFFFFFFFFFFFFFFF AND PUSH20 0xFFFFFFFFFFFFFFFFFFFFFFFFFFFFFFFFFFFFFFFF AND DUP2 MSTORE PUSH1 0x20 ADD SWAP1 DUP2 MSTORE PUSH1 0x20 ADD PUSH1 0x0 KECCAK256 PUSH1 0x0 PUSH2 0x100 EXP DUP2 SLOAD DUP2 PUSH1 0xFF MUL NOT AND SWAP1 DUP4 ISZERO ISZERO MUL OR SWAP1 SSTORE POP PUSH1 0x5 PUSH1 0x0 DUP2 SLOAD DUP1 SWAP3 SWAP2 SWAP1 PUSH2 0x7E2 SWAP1 PUSH2 0xFDB JUMP JUMPDEST SWAP2 SWAP1 POP SSTORE POP JUMP JUMPDEST PUSH1 0x0 PUSH1 0x4 PUSH1 0x0 DUP4 DUP2 MSTORE PUSH1 0x20 ADD SWAP1 DUP2 MSTORE PUSH1 0x20 ADD PUSH1 0x0 KECCAK256 SWAP1 POP PUSH1 0x2 PUSH1 0x0 CALLER PUSH20 0xFFFFFFFFFFFFFFFFFFFFFFFFFFFFFFFFFFFFFFFF AND PUSH20 0xFFFFFFFFFFFFFFFFFFFFFFFFFFFFFFFFFFFFFFFF AND DUP2 MSTORE PUSH1 0x20 ADD SWAP1 DUP2 MSTORE PUSH1 0x20 ADD PUSH1 0x0 KECCAK256 PUSH1 0x0 SWAP1 SLOAD SWAP1 PUSH2 0x100 EXP SWAP1 DIV PUSH1 0xFF AND PUSH2 0x856 JUMPI PUSH1 0x0 DUP1 REVERT JUMPDEST DUP1 PUSH1 0x4 ADD PUSH1 0x0 CALLER PUSH20 0xFFFFFFFFFFFFFFFFFFFFFFFFFFFFFFFFFFFFFFFF AND PUSH20 0xFFFFFFFFFFFFFFFFFFFFFFFFFFFFFFFFFFFFFFFF AND DUP2 MSTORE PUSH1 0x20 ADD SWAP1 DUP2 MSTORE PUSH1 0x20 ADD PUSH1 0x0 KECCAK256 PUSH1 0x0 SWAP1 SLOAD SWAP1 PUSH2 0x100 EXP SWAP1 DIV PUSH1 0xFF AND ISZERO PUSH2 0x8AF JUMPI PUSH1 0x0 DUP1 REVERT JUMPDEST PUSH1 0x1 DUP2 PUSH1 0x4 ADD PUSH1 0x0 CALLER PUSH20 0xFFFFFFFFFFFFFFFFFFFFFFFFFFFFFFFFFFFFFFFF AND PUSH20 0xFFFFFFFFFFFFFFFFFFFFFFFFFFFFFFFFFFFFFFFF AND DUP2 MSTORE PUSH1 0x20 ADD SWAP1 DUP2 MSTORE PUSH1 0x20 ADD PUSH1 0x0 KECCAK256 PUSH1 0x0 PUSH2 0x100 EXP DUP2 SLOAD DUP2 PUSH1 0xFF MUL NOT AND SWAP1 DUP4 ISZERO ISZERO MUL OR SWAP1 SSTORE POP DUP1 PUSH1 0x3 ADD PUSH1 0x0 DUP2 SLOAD DUP1 SWAP3 SWAP2 SWAP1 PUSH2 0x91E SWAP1 PUSH2 0xFDB JUMP JUMPDEST SWAP2 SWAP1 POP SSTORE POP POP POP JUMP JUMPDEST PUSH1 0x60 PUSH1 0x0 DUP1 PUSH1 0x0 DUP1 PUSH1 0x0 DUP1 PUSH1 0x4 PUSH1 0x0 DUP10 DUP2 MSTORE PUSH1 0x20 ADD SWAP1 DUP2 MSTORE PUSH1 0x20 ADD PUSH1 0x0 KECCAK256 SWAP1 POP DUP1 PUSH1 0x0 ADD DUP2 PUSH1 0x1 ADD SLOAD DUP3 PUSH1 0x2 ADD PUSH1 0x0 SWAP1 SLOAD SWAP1 PUSH2 0x100 EXP SWAP1 DIV PUSH20 0xFFFFFFFFFFFFFFFFFFFFFFFFFFFFFFFFFFFFFFFF AND DUP4 PUSH1 0x2 ADD PUSH1 0x14 SWAP1 SLOAD SWAP1 PUSH2 0x100 EXP SWAP1 DIV PUSH1 0xFF AND DUP5 PUSH1 0x3 ADD SLOAD PUSH1 0x5 SLOAD DUP6 DUP1 SLOAD PUSH2 0x99B SWAP1 PUSH2 0x1087 JUMP JUMPDEST DUP1 PUSH1 0x1F ADD PUSH1 0x20 DUP1 SWAP2 DIV MUL PUSH1 0x20 ADD PUSH1 0x40 MLOAD SWAP1 DUP2 ADD PUSH1 0x40 MSTORE DUP1 SWAP3 SWAP2 SWAP1 DUP2 DUP2 MSTORE PUSH1 0x20 ADD DUP3 DUP1 SLOAD PUSH2 0x9C7 SWAP1 PUSH2 0x1087 JUMP JUMPDEST DUP1 ISZERO PUSH2 0xA14 JUMPI DUP1 PUSH1 0x1F LT PUSH2 0x9E9 JUMPI PUSH2 0x100 DUP1 DUP4 SLOAD DIV MUL DUP4 MSTORE SWAP2 PUSH1 0x20 ADD SWAP2 PUSH2 0xA14 JUMP JUMPDEST DUP3 ADD SWAP2 SWAP1 PUSH1 0x0 MSTORE PUSH1 0x20 PUSH1 0x0 KECCAK256 SWAP1 JUMPDEST DUP2 SLOAD DUP2 MSTORE SWAP1 PUSH1 0x1 ADD SWAP1 PUSH1 0x20 ADD DUP1 DUP4 GT PUSH2 0x9F7 JUMPI DUP3 SWAP1 SUB PUSH1 0x1F AND DUP3 ADD SWAP2 JUMPDEST POP POP POP POP POP SWAP6 POP SWAP7 POP SWAP7 POP SWAP7 POP SWAP7 POP SWAP7 POP SWAP7 POP POP SWAP2 SWAP4 SWAP6 POP SWAP2 SWAP4 SWAP6 JUMP JUMPDEST PUSH1 0x3 SLOAD DUP2 JUMP JUMPDEST DUP3 DUP1 SLOAD PUSH2 0xA43 SWAP1 PUSH2 0x1087 JUMP JUMPDEST SWAP1 PUSH1 0x0 MSTORE PUSH1 0x20 PUSH1 0x0 KECCAK256 SWAP1 PUSH1 0x1F ADD PUSH1 0x20 SWAP1 DIV DUP2 ADD SWAP3 DUP3 PUSH2 0xA65 JUMPI PUSH1 0x0 DUP6 SSTORE PUSH2 0xAAC JUMP JUMPDEST DUP3 PUSH1 0x1F LT PUSH2 0xA7E JUMPI DUP1 CALLDATALOAD PUSH1 0xFF NOT AND DUP4 DUP1 ADD OR DUP6 SSTORE PUSH2 0xAAC JUMP JUMPDEST DUP3 DUP1 ADD PUSH1 0x1 ADD DUP6 SSTORE DUP3 ISZERO PUSH2 0xAAC JUMPI SWAP2 DUP3 ADD JUMPDEST DUP3 DUP2 GT ISZERO PUSH2 0xAAB JUMPI DUP3 CALLDATALOAD DUP3 SSTORE SWAP2 PUSH1 0x20 ADD SWAP2 SWAP1 PUSH1 0x1 ADD SWAP1 PUSH2 0xA90 JUMP JUMPDEST JUMPDEST POP SWAP1 POP PUSH2 0xAB9 SWAP2 SWAP1 PUSH2 0xABD JUMP JUMPDEST POP SWAP1 JUMP JUMPDEST JUMPDEST DUP1 DUP3 GT ISZERO PUSH2 0xAD6 JUMPI PUSH1 0x0 DUP2 PUSH1 0x0 SWAP1 SSTORE POP PUSH1 0x1 ADD PUSH2 0xABE JUMP JUMPDEST POP SWAP1 JUMP JUMPDEST PUSH1 0x0 DUP1 REVERT JUMPDEST PUSH1 0x0 DUP1 REVERT JUMPDEST PUSH1 0x0 DUP2 SWAP1 POP SWAP2 SWAP1 POP JUMP JUMPDEST PUSH2 0xAF7 DUP2 PUSH2 0xAE4 JUMP JUMPDEST DUP2 EQ PUSH2 0xB02 JUMPI PUSH1 0x0 DUP1 REVERT JUMPDEST POP JUMP JUMPDEST PUSH1 0x0 DUP2 CALLDATALOAD SWAP1 POP PUSH2 0xB14 DUP2 PUSH2 0xAEE JUMP JUMPDEST SWAP3 SWAP2 POP POP JUMP JUMPDEST PUSH1 0x0 PUSH1 0x20 DUP3 DUP5 SUB SLT ISZERO PUSH2 0xB30 JUMPI PUSH2 0xB2F PUSH2 0xADA JUMP JUMPDEST JUMPDEST PUSH1 0x0 PUSH2 0xB3E DUP5 DUP3 DUP6 ADD PUSH2 0xB05 JUMP JUMPDEST SWAP2 POP POP SWAP3 SWAP2 POP POP JUMP JUMPDEST PUSH1 0x0 PUSH20 0xFFFFFFFFFFFFFFFFFFFFFFFFFFFFFFFFFFFFFFFF DUP3 AND SWAP1 POP SWAP2 SWAP1 POP JUMP JUMPDEST PUSH1 0x0 PUSH2 0xB72 DUP3 PUSH2 0xB47 JUMP JUMPDEST SWAP1 POP SWAP2 SWAP1 POP JUMP JUMPDEST PUSH2 0xB82 DUP2 PUSH2 0xB67 JUMP JUMPDEST DUP2 EQ PUSH2 0xB8D JUMPI PUSH1 0x0 DUP1 REVERT JUMPDEST POP JUMP JUMPDEST PUSH1 0x0 DUP2 CALLDATALOAD SWAP1 POP PUSH2 0xB9F DUP2 PUSH2 0xB79 JUMP JUMPDEST SWAP3 SWAP2 POP POP JUMP JUMPDEST PUSH1 0x0 PUSH1 0x20 DUP3 DUP5 SUB SLT ISZERO PUSH2 0xBBB JUMPI PUSH2 0xBBA PUSH2 0xADA JUMP JUMPDEST JUMPDEST PUSH1 0x0 PUSH2 0xBC9 DUP5 DUP3 DUP6 ADD PUSH2 0xB90 JUMP JUMPDEST SWAP2 POP POP SWAP3 SWAP2 POP POP JUMP JUMPDEST PUSH1 0x0 DUP2 ISZERO ISZERO SWAP1 POP SWAP2 SWAP1 POP JUMP JUMPDEST PUSH2 0xBE7 DUP2 PUSH2 0xBD2 JUMP JUMPDEST DUP3 MSTORE POP POP JUMP JUMPDEST PUSH1 0x0 PUSH1 0x20 DUP3 ADD SWAP1 POP PUSH2 0xC02 PUSH1 0x0 DUP4 ADD DUP5 PUSH2 0xBDE JUMP JUMPDEST SWAP3 SWAP2 POP POP JUMP JUMPDEST PUSH2 0xC11 DUP2 PUSH2 0xAE4 JUMP JUMPDEST DUP3 MSTORE POP POP JUMP JUMPDEST PUSH1 0x0 PUSH1 0x20 DUP3 ADD SWAP1 POP PUSH2 0xC2C PUSH1 0x0 DUP4 ADD DUP5 PUSH2 0xC08 JUMP JUMPDEST SWAP3 SWAP2 POP POP JUMP JUMPDEST PUSH2 0xC3B DUP2 PUSH2 0xB67 JUMP JUMPDEST DUP3 MSTORE POP POP JUMP JUMPDEST PUSH1 0x0 PUSH1 0xE0 DUP3 ADD SWAP1 POP PUSH2 0xC56 PUSH1 0x0 DUP4 ADD DUP11 PUSH2 0xC08 JUMP JUMPDEST PUSH2 0xC63 PUSH1 0x20 DUP4 ADD DUP10 PUSH2 0xC08 JUMP JUMPDEST PUSH2 0xC70 PUSH1 0x40 DUP4 ADD DUP9 PUSH2 0xC08 JUMP JUMPDEST PUSH2 0xC7D PUSH1 0x60 DUP4 ADD DUP8 PUSH2 0xC08 JUMP JUMPDEST PUSH2 0xC8A PUSH1 0x80 DUP4 ADD DUP7 PUSH2 0xC32 JUMP JUMPDEST PUSH2 0xC97 PUSH1 0xA0 DUP4 ADD DUP6 PUSH2 0xC08 JUMP JUMPDEST PUSH2 0xCA4 PUSH1 0xC0 DUP4 ADD DUP5 PUSH2 0xC08 JUMP JUMPDEST SWAP9 SWAP8 POP POP POP POP POP POP POP POP JUMP JUMPDEST PUSH1 0x0 PUSH1 0x20 DUP3 ADD SWAP1 POP PUSH2 0xCC5 PUSH1 0x0 DUP4 ADD DUP5 PUSH2 0xC32 JUMP JUMPDEST SWAP3 SWAP2 POP POP JUMP JUMPDEST PUSH1 0x0 DUP2 MLOAD SWAP1 POP SWAP2 SWAP1 POP JUMP JUMPDEST PUSH1 0x0 DUP3 DUP3 MSTORE PUSH1 0x20 DUP3 ADD SWAP1 POP SWAP3 SWAP2 POP POP JUMP JUMPDEST PUSH1 0x0 JUMPDEST DUP4 DUP2 LT ISZERO PUSH2 0xD05 JUMPI DUP1 DUP3 ADD MLOAD DUP2 DUP5 ADD MSTORE PUSH1 0x20 DUP2 ADD SWAP1 POP PUSH2 0xCEA JUMP JUMPDEST DUP4 DUP2 GT ISZERO PUSH2 0xD14 JUMPI PUSH1 0x0 DUP5 DUP5 ADD MSTORE JUMPDEST POP POP POP POP JUMP JUMPDEST PUSH1 0x0 PUSH1 0x1F NOT PUSH1 0x1F DUP4 ADD AND SWAP1 POP SWAP2 SWAP1 POP JUMP JUMPDEST PUSH1 0x0 PUSH2 0xD36 DUP3 PUSH2 0xCCB JUMP JUMPDEST PUSH2 0xD40 DUP2 DUP6 PUSH2 0xCD6 JUMP JUMPDEST SWAP4 POP PUSH2 0xD50 DUP2 DUP6 PUSH1 0x20 DUP7 ADD PUSH2 0xCE7 JUMP JUMPDEST PUSH2 0xD59 DUP2 PUSH2 0xD1A JUMP JUMPDEST DUP5 ADD SWAP2 POP POP SWAP3 SWAP2 POP POP JUMP JUMPDEST PUSH1 0x0 PUSH2 0xD6F DUP3 PUSH2 0xB47 JUMP JUMPDEST SWAP1 POP SWAP2 SWAP1 POP JUMP JUMPDEST PUSH2 0xD7F DUP2 PUSH2 0xD64 JUMP JUMPDEST DUP3 MSTORE POP POP JUMP JUMPDEST PUSH1 0x0 PUSH1 0xA0 DUP3 ADD SWAP1 POP DUP2 DUP2 SUB PUSH1 0x0 DUP4 ADD MSTORE PUSH2 0xD9F DUP2 DUP9 PUSH2 0xD2B JUMP JUMPDEST SWAP1 POP PUSH2 0xDAE PUSH1 0x20 DUP4 ADD DUP8 PUSH2 0xC08 JUMP JUMPDEST PUSH2 0xDBB PUSH1 0x40 DUP4 ADD DUP7 PUSH2 0xD76 JUMP JUMPDEST PUSH2 0xDC8 PUSH1 0x60 DUP4 ADD DUP6 PUSH2 0xBDE JUMP JUMPDEST PUSH2 0xDD5 PUSH1 0x80 DUP4 ADD DUP5 PUSH2 0xC08 JUMP JUMPDEST SWAP7 SWAP6 POP POP POP POP POP POP JUMP JUMPDEST PUSH1 0x0 DUP1 REVERT JUMPDEST PUSH1 0x0 DUP1 REVERT JUMPDEST PUSH1 0x0 DUP1 REVERT JUMPDEST PUSH1 0x0 DUP1 DUP4 PUSH1 0x1F DUP5 ADD SLT PUSH2 0xE04 JUMPI PUSH2 0xE03 PUSH2 0xDDF JUMP JUMPDEST JUMPDEST DUP3 CALLDATALOAD SWAP1 POP PUSH8 0xFFFFFFFFFFFFFFFF DUP2 GT ISZERO PUSH2 0xE21 JUMPI PUSH2 0xE20 PUSH2 0xDE4 JUMP JUMPDEST JUMPDEST PUSH1 0x20 DUP4 ADD SWAP2 POP DUP4 PUSH1 0x1 DUP3 MUL DUP4 ADD GT ISZERO PUSH2 0xE3D JUMPI PUSH2 0xE3C PUSH2 0xDE9 JUMP JUMPDEST JUMPDEST SWAP3 POP SWAP3 SWAP1 POP JUMP JUMPDEST PUSH2 0xE4D DUP2 PUSH2 0xD64 JUMP JUMPDEST DUP2 EQ PUSH2 0xE58 JUMPI PUSH1 0x0 DUP1 REVERT JUMPDEST POP JUMP JUMPDEST PUSH1 0x0 DUP2 CALLDATALOAD SWAP1 POP PUSH2 0xE6A DUP2 PUSH2 0xE44 JUMP JUMPDEST SWAP3 SWAP2 POP POP JUMP JUMPDEST PUSH1 0x0 DUP1 PUSH1 0x0 DUP1 PUSH1 0x60 DUP6 DUP8 SUB SLT ISZERO PUSH2 0xE8A JUMPI PUSH2 0xE89 PUSH2 0xADA JUMP JUMPDEST JUMPDEST PUSH1 0x0 DUP6 ADD CALLDATALOAD PUSH8 0xFFFFFFFFFFFFFFFF DUP2 GT ISZERO PUSH2 0xEA8 JUMPI PUSH2 0xEA7 PUSH2 0xADF JUMP JUMPDEST JUMPDEST PUSH2 0xEB4 DUP8 DUP3 DUP9 ADD PUSH2 0xDEE JUMP JUMPDEST SWAP5 POP SWAP5 POP POP PUSH1 0x20 PUSH2 0xEC7 DUP8 DUP3 DUP9 ADD PUSH2 0xB05 JUMP JUMPDEST SWAP3 POP POP PUSH1 0x40 PUSH2 0xED8 DUP8 DUP3 DUP9 ADD PUSH2 0xE5B JUMP JUMPDEST SWAP2 POP POP SWAP3 SWAP6 SWAP2 SWAP5 POP SWAP3 POP JUMP JUMPDEST PUSH1 0x0 PUSH1 0xC0 DUP3 ADD SWAP1 POP DUP2 DUP2 SUB PUSH1 0x0 DUP4 ADD MSTORE PUSH2 0xEFE DUP2 DUP10 PUSH2 0xD2B JUMP JUMPDEST SWAP1 POP PUSH2 0xF0D PUSH1 0x20 DUP4 ADD DUP9 PUSH2 0xC08 JUMP JUMPDEST PUSH2 0xF1A PUSH1 0x40 DUP4 ADD DUP8 PUSH2 0xD76 JUMP JUMPDEST PUSH2 0xF27 PUSH1 0x60 DUP4 ADD DUP7 PUSH2 0xBDE JUMP JUMPDEST PUSH2 0xF34 PUSH1 0x80 DUP4 ADD DUP6 PUSH2 0xC08 JUMP JUMPDEST PUSH2 0xF41 PUSH1 0xA0 DUP4 ADD DUP5 PUSH2 0xC08 JUMP JUMPDEST SWAP8 SWAP7 POP POP POP POP POP POP POP JUMP JUMPDEST PUSH32 0x4E487B7100000000000000000000000000000000000000000000000000000000 PUSH1 0x0 MSTORE PUSH1 0x12 PUSH1 0x4 MSTORE PUSH1 0x24 PUSH1 0x0 REVERT JUMPDEST PUSH32 0x4E487B7100000000000000000000000000000000000000000000000000000000 PUSH1 0x0 MSTORE PUSH1 0x11 PUSH1 0x4 MSTORE PUSH1 0x24 PUSH1 0x0 REVERT JUMPDEST PUSH1 0x0 PUSH2 0xFB5 DUP3 PUSH2 0xAE4 JUMP JUMPDEST SWAP2 POP PUSH2 0xFC0 DUP4 PUSH2 0xAE4 JUMP JUMPDEST SWAP3 POP DUP3 PUSH2 0xFD0 JUMPI PUSH2 0xFCF PUSH2 0xF4C JUMP JUMPDEST JUMPDEST DUP3 DUP3 DIV SWAP1 POP SWAP3 SWAP2 POP POP JUMP JUMPDEST PUSH1 0x0 PUSH2 0xFE6 DUP3 PUSH2 0xAE4 JUMP JUMPDEST SWAP2 POP PUSH32 0xFFFFFFFFFFFFFFFFFFFFFFFFFFFFFFFFFFFFFFFFFFFFFFFFFFFFFFFFFFFFFFFF DUP3 EQ ISZERO PUSH2 0x1019 JUMPI PUSH2 0x1018 PUSH2 0xF7B JUMP JUMPDEST JUMPDEST PUSH1 0x1 DUP3 ADD SWAP1 POP SWAP2 SWAP1 POP JUMP JUMPDEST PUSH1 0x0 PUSH2 0x102F DUP3 PUSH2 0xAE4 JUMP JUMPDEST SWAP2 POP PUSH2 0x103A DUP4 PUSH2 0xAE4 JUMP JUMPDEST SWAP3 POP DUP3 DUP3 LT ISZERO PUSH2 0x104D JUMPI PUSH2 0x104C PUSH2 0xF7B JUMP JUMPDEST JUMPDEST DUP3 DUP3 SUB SWAP1 POP SWAP3 SWAP2 POP POP JUMP JUMPDEST PUSH32 0x4E487B7100000000000000000000000000000000000000000000000000000000 PUSH1 0x0 MSTORE PUSH1 0x22 PUSH1 0x4 MSTORE PUSH1 0x24 PUSH1 0x0 REVERT JUMPDEST PUSH1 0x0 PUSH1 0x2 DUP3 DIV SWAP1 POP PUSH1 0x1 DUP3 AND DUP1 PUSH2 0x109F JUMPI PUSH1 0x7F DUP3 AND SWAP2 POP JUMPDEST PUSH1 0x20 DUP3 LT DUP2 EQ ISZERO PUSH2 0x10B3 JUMPI PUSH2 0x10B2 PUSH2 0x1058 JUMP JUMPDEST JUMPDEST POP SWAP2 SWAP1 POP JUMP INVALID LOG2 PUSH5 0x6970667358 0x22 SLT KECCAK256 SMOD MSTORE8 PUSH31 0x725B50AB8920DB6329262A1E21CFBBADC096E3177B8D246995ABC4AA0B6473 PUSH16 0x6C634300080B00330000000000000000 "},"gasEstimates":{"creation":{"codeDepositCost":"867000","executionCost":"infinite","totalCost":"infinite"},"external":{"approveRequest(uint256)":"infinite","approvers(address)":"2891","compaignApproversCount()":"2452","contribute()":"50980","createRequest(string,uint256,address)":"infinite","finalizeRequest(uint256)":"infinite","finalizedRequestsCount()":"2497","getRequestDetails(uint256)":"infinite","getRequestsCount()":"2482","getSummary()":"infinite","manager()":"2600","minimumContribution()":"2496","requests(uint256)":"infinite","requestsCount()":"2517"}},"methodIdentifiers":{"approveRequest(uint256)":"d7d1bbdb","approvers(address)":"0a144391","compaignApproversCount()":"168a0620","contribute()":"d7bb99ba","createRequest(string,uint256,address)":"8a9cfd55","finalizeRequest(uint256)":"03441006","finalizedRequestsCount()":"0ff237a5","getRequestDetails(uint256)":"f34d4c63","getRequestsCount()":"3410452a","getSummary()":"4051ddac","manager()":"481c6a75","minimumContribution()":"937e09b1","requests(uint256)":"81d12c58","requestsCount()":"fbfa4b7f"}},"storageLayout":{"storage":[{"astId":56,"contract":"Campaign.sol:Compaign","label":"manager","offset":0,"slot":"0","type":"t_address"},{"astId":58,"contract":"Campaign.sol:Compaign","label":"minimumContribution","offset":0,"slot":"1","type":"t_uint256"},{"astId":62,"contract":"Campaign.sol:Compaign","label":"approvers","offset":0,"slot":"2","type":"t_mapping(t_address,t_bool)"},{"astId":64,"contract":"Campaign.sol:Compaign","label":"requestsCount","offset":0,"slot":"3","type":"t_uint256"},{"astId":69,"contract":"Campaign.sol:Compaign","label":"requests","offset":0,"slot":"4","type":"t_mapping(t_uint256,t_struct(Request)54_storage)"},{"astId":71,"contract":"Campaign.sol:Compaign","label":"compaignApproversCount","offset":0,"slot":"5","type":"t_uint256"},{"astId":73,"contract":"Campaign.sol:Compaign","label":"finalizedRequestsCount","offset":0,"slot":"6","type":"t_uint256"}],"types":{"t_address":{"encoding":"inplace","label":"address","numberOfBytes":"20"},"t_address_payable":{"encoding":"inplace","label":"address payable","numberOfBytes":"20"},"t_bool":{"encoding":"inplace","label":"bool","numberOfBytes":"1"},"t_mapping(t_address,t_bool)":{"encoding":"mapping","key":"t_address","label":"mapping(address => bool)","numberOfBytes":"32","value":"t_bool"},"t_mapping(t_uint256,t_struct(Request)54_storage)":{"encoding":"mapping","key":"t_uint256","label":"mapping(uint256 => struct Compaign.Request)","numberOfBytes":"32","value":"t_struct(Request)54_storage"},"t_string_storage":{"encoding":"bytes","label":"string","numberOfBytes":"32"},"t_struct(Request)54_storage":{"encoding":"inplace","label":"struct Compaign.Request","members":[{"astId":41,"contract":"Campaign.sol:Compaign","label":"description","offset":0,"slot":"0","type":"t_string_storage"},{"astId":43,"contract":"Campaign.sol:Compaign","label":"value","offset":0,"slot":"1","type":"t_uint256"},{"astId":45,"contract":"Campaign.sol:Compaign","label":"recipient","offset":0,"slot":"2","type":"t_address_payable"},{"astId":47,"contract":"Campaign.sol:Compaign","label":"complete","offset":20,"slot":"2","type":"t_bool"},{"astId":49,"contract":"Campaign.sol:Compaign","label":"approvalCount","offset":0,"slot":"3","type":"t_uint256"},{"astId":53,"contract":"Campaign.sol:Compaign","label":"approvals","offset":0,"slot":"4","type":"t_mapping(t_address,t_bool)"}],"numberOfBytes":"160"},"t_uint256":{"encoding":"inplace","label":"uint256","numberOfBytes":"32"}}},"userdoc":{"kind":"user","methods":{},"version":1}}