{"abi":[{"inputs":[],"stateMutability":"nonpayable","type":"constructor"},{"inputs":[],"name":"enter","outputs":[],"stateMutability":"payable","type":"function"},{"inputs":[],"name":"getPlayers","outputs":[{"internalType":"address payable[]","name":"","type":"address[]"}],"stateMutability":"view","type":"function"},{"inputs":[],"name":"manager","outputs":[{"internalType":"address","name":"","type":"address"}],"stateMutability":"view","type":"function"},{"inputs":[],"name":"pickWinner","outputs":[],"stateMutability":"nonpayable","type":"function"},{"inputs":[{"internalType":"uint256","name":"","type":"uint256"}],"name":"players","outputs":[{"internalType":"address payable","name":"","type":"address"}],"stateMutability":"view","type":"function"},{"inputs":[],"name":"random","outputs":[{"internalType":"uint256","name":"","type":"uint256"}],"stateMutability":"view","type":"function"}],"devdoc":{"kind":"dev","methods":{},"version":1},"evm":{"assembly":"    /* \"Lottery.sol\":69:1037  contract Lottery {... */\n  mstore(0x40, 0x80)\n    /* \"Lottery.sol\":163:216  constructor() {... */\n  callvalue\n  dup1\n  iszero\n  tag_1\n  jumpi\n  0x00\n  dup1\n  revert\ntag_1:\n  pop\n    /* \"Lottery.sol\":198:208  msg.sender */\n  caller\n    /* \"Lottery.sol\":188:195  manager */\n  0x00\n  dup1\n    /* \"Lottery.sol\":188:208  manager = msg.sender */\n  0x0100\n  exp\n  dup2\n  sload\n  dup2\n  0xffffffffffffffffffffffffffffffffffffffff\n  mul\n  not\n  and\n  swap1\n  dup4\n  0xffffffffffffffffffffffffffffffffffffffff\n  and\n  mul\n  or\n  swap1\n  sstore\n  pop\n    /* \"Lottery.sol\":69:1037  contract Lottery {... */\n  dataSize(sub_0)\n  dup1\n  dataOffset(sub_0)\n  0x00\n  codecopy\n  0x00\n  return\nstop\n\nsub_0: assembly {\n        /* \"Lottery.sol\":69:1037  contract Lottery {... */\n      mstore(0x40, 0x80)\n      jumpi(tag_1, lt(calldatasize, 0x04))\n      shr(0xe0, calldataload(0x00))\n      dup1\n      0x481c6a75\n      eq\n      tag_2\n      jumpi\n      dup1\n      0x5d495aea\n      eq\n      tag_3\n      jumpi\n      dup1\n      0x5ec01e4d\n      eq\n      tag_4\n      jumpi\n      dup1\n      0x8b5b9ccc\n      eq\n      tag_5\n      jumpi\n      dup1\n      0xe97dcb62\n      eq\n      tag_6\n      jumpi\n      dup1\n      0xf71d96cb\n      eq\n      tag_7\n      jumpi\n    tag_1:\n      0x00\n      dup1\n      revert\n        /* \"Lottery.sol\":93:115  address public manager */\n    tag_2:\n      callvalue\n      dup1\n      iszero\n      tag_8\n      jumpi\n      0x00\n      dup1\n      revert\n    tag_8:\n      pop\n      tag_9\n      tag_10\n      jump\t// in\n    tag_9:\n      mload(0x40)\n      tag_11\n      swap2\n      swap1\n      tag_12\n      jump\t// in\n    tag_11:\n      mload(0x40)\n      dup1\n      swap2\n      sub\n      swap1\n      return\n        /* \"Lottery.sol\":604:824  function pickWinner() public restrictedToManager {... */\n    tag_3:\n      callvalue\n      dup1\n      iszero\n      tag_13\n      jumpi\n      0x00\n      dup1\n      revert\n    tag_13:\n      pop\n      tag_14\n      tag_15\n      jump\t// in\n    tag_14:\n      stop\n        /* \"Lottery.sol\":357:596  function random() public view returns (uint256) {... */\n    tag_4:\n      callvalue\n      dup1\n      iszero\n      tag_16\n      jumpi\n      0x00\n      dup1\n      revert\n    tag_16:\n      pop\n      tag_17\n      tag_18\n      jump\t// in\n    tag_17:\n      mload(0x40)\n      tag_19\n      swap2\n      swap1\n      tag_20\n      jump\t// in\n    tag_19:\n      mload(0x40)\n      dup1\n      swap2\n      sub\n      swap1\n      return\n        /* \"Lottery.sol\":932:1034  function getPlayers() public view returns (address payable[] memory) {... */\n    tag_5:\n      callvalue\n      dup1\n      iszero\n      tag_21\n      jumpi\n      0x00\n      dup1\n      revert\n    tag_21:\n      pop\n      tag_22\n      tag_23\n      jump\t// in\n    tag_22:\n      mload(0x40)\n      tag_24\n      swap2\n      swap1\n      tag_25\n      jump\t// in\n    tag_24:\n      mload(0x40)\n      dup1\n      swap2\n      sub\n      swap1\n      return\n        /* \"Lottery.sol\":224:349  function enter() public payable {... */\n    tag_6:\n      tag_26\n      tag_27\n      jump\t// in\n    tag_26:\n      stop\n        /* \"Lottery.sol\":122:154  address payable[] public players */\n    tag_7:\n      callvalue\n      dup1\n      iszero\n      tag_28\n      jumpi\n      0x00\n      dup1\n      revert\n    tag_28:\n      pop\n      tag_29\n      0x04\n      dup1\n      calldatasize\n      sub\n      dup2\n      add\n      swap1\n      tag_30\n      swap2\n      swap1\n      tag_31\n      jump\t// in\n    tag_30:\n      tag_32\n      jump\t// in\n    tag_29:\n      mload(0x40)\n      tag_33\n      swap2\n      swap1\n      tag_34\n      jump\t// in\n    tag_33:\n      mload(0x40)\n      dup1\n      swap2\n      sub\n      swap1\n      return\n        /* \"Lottery.sol\":93:115  address public manager */\n    tag_10:\n      0x00\n      dup1\n      sload\n      swap1\n      0x0100\n      exp\n      swap1\n      div\n      0xffffffffffffffffffffffffffffffffffffffff\n      and\n      dup2\n      jump\t// out\n        /* \"Lottery.sol\":604:824  function pickWinner() public restrictedToManager {... */\n    tag_15:\n        /* \"Lottery.sol\":896:903  manager */\n      0x00\n      dup1\n      sload\n      swap1\n      0x0100\n      exp\n      swap1\n      div\n      0xffffffffffffffffffffffffffffffffffffffff\n      and\n        /* \"Lottery.sol\":882:903  msg.sender == manager */\n      0xffffffffffffffffffffffffffffffffffffffff\n      and\n        /* \"Lottery.sol\":882:892  msg.sender */\n      caller\n        /* \"Lottery.sol\":882:903  msg.sender == manager */\n      0xffffffffffffffffffffffffffffffffffffffff\n      and\n      eq\n        /* \"Lottery.sol\":874:904  require(msg.sender == manager) */\n      tag_36\n      jumpi\n      0x00\n      dup1\n      revert\n    tag_36:\n        /* \"Lottery.sol\":664:677  uint256 index */\n      0x00\n        /* \"Lottery.sol\":691:698  players */\n      0x01\n        /* \"Lottery.sol\":691:705  players.length */\n      dup1\n      sload\n      swap1\n      pop\n        /* \"Lottery.sol\":680:688  random() */\n      tag_38\n        /* \"Lottery.sol\":680:686  random */\n      tag_18\n        /* \"Lottery.sol\":680:688  random() */\n      jump\t// in\n    tag_38:\n        /* \"Lottery.sol\":680:705  random() % players.length */\n      tag_39\n      swap2\n      swap1\n      tag_40\n      jump\t// in\n    tag_39:\n        /* \"Lottery.sol\":664:705  uint256 index = random() % players.length */\n      swap1\n      pop\n        /* \"Lottery.sol\":724:731  players */\n      0x01\n        /* \"Lottery.sol\":732:737  index */\n      dup2\n        /* \"Lottery.sol\":724:738  players[index] */\n      dup2\n      sload\n      dup2\n      lt\n      tag_41\n      jumpi\n      tag_42\n      tag_43\n      jump\t// in\n    tag_42:\n    tag_41:\n      swap1\n      0x00\n      mstore\n      keccak256(0x00, 0x20)\n      add\n      0x00\n      swap1\n      sload\n      swap1\n      0x0100\n      exp\n      swap1\n      div\n      0xffffffffffffffffffffffffffffffffffffffff\n      and\n        /* \"Lottery.sol\":716:748  payable(players[index]).transfer */\n      0xffffffffffffffffffffffffffffffffffffffff\n      and\n        /* \"Lottery.sol\":716:771  payable(players[index]).transfer(address(this).balance) */\n      0x08fc\n        /* \"Lottery.sol\":749:770  address(this).balance */\n      selfbalance\n        /* \"Lottery.sol\":716:771  payable(players[index]).transfer(address(this).balance) */\n      swap1\n      dup2\n      iszero\n      mul\n      swap1\n      mload(0x40)\n      0x00\n      mload(0x40)\n      dup1\n      dup4\n      sub\n      dup2\n      dup6\n      dup9\n      dup9\n      call\n      swap4\n      pop\n      pop\n      pop\n      pop\n      iszero\n      dup1\n      iszero\n      tag_46\n      jumpi\n      returndatasize\n      0x00\n      dup1\n      returndatacopy\n      revert(0x00, returndatasize)\n    tag_46:\n      pop\n        /* \"Lottery.sol\":814:815  0 */\n      0x00\n        /* \"Lottery.sol\":792:816  new address payable[](0) */\n      0xffffffffffffffff\n      dup2\n      gt\n      iszero\n      tag_47\n      jumpi\n      tag_48\n      tag_49\n      jump\t// in\n    tag_48:\n    tag_47:\n      mload(0x40)\n      swap1\n      dup1\n      dup3\n      mstore\n      dup1\n      0x20\n      mul\n      0x20\n      add\n      dup3\n      add\n      0x40\n      mstore\n      dup1\n      iszero\n      tag_50\n      jumpi\n      dup2\n      0x20\n      add\n      0x20\n      dup3\n      mul\n      dup1\n      calldatasize\n      dup4\n      calldatacopy\n      dup1\n      dup3\n      add\n      swap2\n      pop\n      pop\n      swap1\n      pop\n    tag_50:\n      pop\n        /* \"Lottery.sol\":782:789  players */\n      0x01\n        /* \"Lottery.sol\":782:816  players = new address payable[](0) */\n      swap1\n      dup1\n      mload\n      swap1\n      0x20\n      add\n      swap1\n      tag_51\n      swap3\n      swap2\n      swap1\n      tag_52\n      jump\t// in\n    tag_51:\n      pop\n        /* \"Lottery.sol\":653:824  {... */\n      pop\n        /* \"Lottery.sol\":604:824  function pickWinner() public restrictedToManager {... */\n      jump\t// out\n        /* \"Lottery.sol\":357:596  function random() public view returns (uint256) {... */\n    tag_18:\n        /* \"Lottery.sol\":396:403  uint256 */\n      0x00\n        /* \"Lottery.sol\":511:527  block.difficulty */\n      difficulty\n        /* \"Lottery.sol\":529:544  block.timestamp */\n      timestamp\n        /* \"Lottery.sol\":546:553  players */\n      0x01\n        /* \"Lottery.sol\":494:554  abi.encodePacked(block.difficulty, block.timestamp, players) */\n      add(0x20, mload(0x40))\n      tag_54\n      swap4\n      swap3\n      swap2\n      swap1\n      tag_55\n      jump\t// in\n    tag_54:\n      mload(0x40)\n      0x20\n      dup2\n      dup4\n      sub\n      sub\n      dup2\n      mstore\n      swap1\n      0x40\n      mstore\n        /* \"Lottery.sol\":462:573  keccak256(... */\n      dup1\n      mload\n      swap1\n      0x20\n      add\n      keccak256\n        /* \"Lottery.sol\":436:588  uint256(... */\n      0x00\n      shr\n        /* \"Lottery.sol\":416:588  return... */\n      swap1\n      pop\n        /* \"Lottery.sol\":357:596  function random() public view returns (uint256) {... */\n      swap1\n      jump\t// out\n        /* \"Lottery.sol\":932:1034  function getPlayers() public view returns (address payable[] memory) {... */\n    tag_23:\n        /* \"Lottery.sol\":975:999  address payable[] memory */\n      0x60\n        /* \"Lottery.sol\":1019:1026  players */\n      0x01\n        /* \"Lottery.sol\":1012:1026  return players */\n      dup1\n      sload\n      dup1\n      0x20\n      mul\n      0x20\n      add\n      mload(0x40)\n      swap1\n      dup2\n      add\n      0x40\n      mstore\n      dup1\n      swap3\n      swap2\n      swap1\n      dup2\n      dup2\n      mstore\n      0x20\n      add\n      dup3\n      dup1\n      sload\n      dup1\n      iszero\n      tag_57\n      jumpi\n      0x20\n      mul\n      dup3\n      add\n      swap2\n      swap1\n      0x00\n      mstore\n      keccak256(0x00, 0x20)\n      swap1\n    tag_58:\n      dup2\n      0x00\n      swap1\n      sload\n      swap1\n      0x0100\n      exp\n      swap1\n      div\n      0xffffffffffffffffffffffffffffffffffffffff\n      and\n      0xffffffffffffffffffffffffffffffffffffffff\n      and\n      dup2\n      mstore\n      0x20\n      add\n      swap1\n      0x01\n      add\n      swap1\n      dup1\n      dup4\n      gt\n      tag_58\n      jumpi\n    tag_57:\n      pop\n      pop\n      pop\n      pop\n      pop\n      swap1\n      pop\n        /* \"Lottery.sol\":932:1034  function getPlayers() public view returns (address payable[] memory) {... */\n      swap1\n      jump\t// out\n        /* \"Lottery.sol\":224:349  function enter() public payable {... */\n    tag_27:\n        /* \"Lottery.sol\":287:296  .01 ether */\n      0x2386f26fc10000\n        /* \"Lottery.sol\":275:284  msg.value */\n      callvalue\n        /* \"Lottery.sol\":275:296  msg.value > .01 ether */\n      gt\n        /* \"Lottery.sol\":267:297  require(msg.value > .01 ether) */\n      tag_60\n      jumpi\n      0x00\n      dup1\n      revert\n    tag_60:\n        /* \"Lottery.sol\":308:315  players */\n      0x01\n        /* \"Lottery.sol\":329:339  msg.sender */\n      caller\n        /* \"Lottery.sol\":308:341  players.push(payable(msg.sender)) */\n      swap1\n      dup1\n      0x01\n      dup2\n      sload\n      add\n      dup1\n      dup3\n      sstore\n      dup1\n      swap2\n      pop\n      pop\n      0x01\n      swap1\n      sub\n      swap1\n      0x00\n      mstore\n      keccak256(0x00, 0x20)\n      add\n      0x00\n      swap1\n      swap2\n      swap1\n      swap2\n      swap1\n      swap2\n      0x0100\n      exp\n      dup2\n      sload\n      dup2\n      0xffffffffffffffffffffffffffffffffffffffff\n      mul\n      not\n      and\n      swap1\n      dup4\n      0xffffffffffffffffffffffffffffffffffffffff\n      and\n      mul\n      or\n      swap1\n      sstore\n      pop\n        /* \"Lottery.sol\":224:349  function enter() public payable {... */\n      jump\t// out\n        /* \"Lottery.sol\":122:154  address payable[] public players */\n    tag_32:\n      0x01\n      dup2\n      dup2\n      sload\n      dup2\n      lt\n      tag_62\n      jumpi\n      0x00\n      dup1\n      revert\n    tag_62:\n      swap1\n      0x00\n      mstore\n      keccak256(0x00, 0x20)\n      add\n      0x00\n      swap2\n      pop\n      sload\n      swap1\n      0x0100\n      exp\n      swap1\n      div\n      0xffffffffffffffffffffffffffffffffffffffff\n      and\n      dup2\n      jump\t// out\n    tag_52:\n      dup3\n      dup1\n      sload\n      dup3\n      dup3\n      sstore\n      swap1\n      0x00\n      mstore\n      keccak256(0x00, 0x20)\n      swap1\n      dup2\n      add\n      swap3\n      dup3\n      iszero\n      tag_64\n      jumpi\n      swap2\n      0x20\n      mul\n      dup3\n      add\n    tag_65:\n      dup3\n      dup2\n      gt\n      iszero\n      tag_66\n      jumpi\n      dup3\n      mload\n      dup3\n      exp(0x0100, 0x00)\n      dup2\n      sload\n      dup2\n      0xffffffffffffffffffffffffffffffffffffffff\n      mul\n      not\n      and\n      swap1\n      dup4\n      0xffffffffffffffffffffffffffffffffffffffff\n      and\n      mul\n      or\n      swap1\n      sstore\n      pop\n      swap2\n      0x20\n      add\n      swap2\n      swap1\n      0x01\n      add\n      swap1\n      jump(tag_65)\n    tag_66:\n    tag_64:\n      pop\n      swap1\n      pop\n      tag_67\n      swap2\n      swap1\n      tag_68\n      jump\t// in\n    tag_67:\n      pop\n      swap1\n      jump\t// out\n    tag_68:\n    tag_69:\n      dup1\n      dup3\n      gt\n      iszero\n      tag_70\n      jumpi\n      0x00\n      dup2\n      0x00\n      swap1\n      sstore\n      pop\n      0x01\n      add\n      jump(tag_69)\n    tag_70:\n      pop\n      swap1\n      jump\t// out\n        /* \"#utility.yul\":7:133   */\n    tag_71:\n        /* \"#utility.yul\":44:51   */\n      0x00\n        /* \"#utility.yul\":84:126   */\n      0xffffffffffffffffffffffffffffffffffffffff\n        /* \"#utility.yul\":77:82   */\n      dup3\n        /* \"#utility.yul\":73:127   */\n      and\n        /* \"#utility.yul\":62:127   */\n      swap1\n      pop\n        /* \"#utility.yul\":7:133   */\n      swap2\n      swap1\n      pop\n      jump\t// out\n        /* \"#utility.yul\":139:235   */\n    tag_72:\n        /* \"#utility.yul\":176:183   */\n      0x00\n        /* \"#utility.yul\":205:229   */\n      tag_107\n        /* \"#utility.yul\":223:228   */\n      dup3\n        /* \"#utility.yul\":205:229   */\n      tag_71\n      jump\t// in\n    tag_107:\n        /* \"#utility.yul\":194:229   */\n      swap1\n      pop\n        /* \"#utility.yul\":139:235   */\n      swap2\n      swap1\n      pop\n      jump\t// out\n        /* \"#utility.yul\":241:359   */\n    tag_73:\n        /* \"#utility.yul\":328:352   */\n      tag_109\n        /* \"#utility.yul\":346:351   */\n      dup2\n        /* \"#utility.yul\":328:352   */\n      tag_72\n      jump\t// in\n    tag_109:\n        /* \"#utility.yul\":323:326   */\n      dup3\n        /* \"#utility.yul\":316:353   */\n      mstore\n        /* \"#utility.yul\":241:359   */\n      pop\n      pop\n      jump\t// out\n        /* \"#utility.yul\":365:587   */\n    tag_12:\n        /* \"#utility.yul\":458:462   */\n      0x00\n        /* \"#utility.yul\":496:498   */\n      0x20\n        /* \"#utility.yul\":485:494   */\n      dup3\n        /* \"#utility.yul\":481:499   */\n      add\n        /* \"#utility.yul\":473:499   */\n      swap1\n      pop\n        /* \"#utility.yul\":509:580   */\n      tag_111\n        /* \"#utility.yul\":577:578   */\n      0x00\n        /* \"#utility.yul\":566:575   */\n      dup4\n        /* \"#utility.yul\":562:579   */\n      add\n        /* \"#utility.yul\":553:559   */\n      dup5\n        /* \"#utility.yul\":509:580   */\n      tag_73\n      jump\t// in\n    tag_111:\n        /* \"#utility.yul\":365:587   */\n      swap3\n      swap2\n      pop\n      pop\n      jump\t// out\n        /* \"#utility.yul\":593:670   */\n    tag_74:\n        /* \"#utility.yul\":630:637   */\n      0x00\n        /* \"#utility.yul\":659:664   */\n      dup2\n        /* \"#utility.yul\":648:664   */\n      swap1\n      pop\n        /* \"#utility.yul\":593:670   */\n      swap2\n      swap1\n      pop\n      jump\t// out\n        /* \"#utility.yul\":676:794   */\n    tag_75:\n        /* \"#utility.yul\":763:787   */\n      tag_114\n        /* \"#utility.yul\":781:786   */\n      dup2\n        /* \"#utility.yul\":763:787   */\n      tag_74\n      jump\t// in\n    tag_114:\n        /* \"#utility.yul\":758:761   */\n      dup3\n        /* \"#utility.yul\":751:788   */\n      mstore\n        /* \"#utility.yul\":676:794   */\n      pop\n      pop\n      jump\t// out\n        /* \"#utility.yul\":800:1022   */\n    tag_20:\n        /* \"#utility.yul\":893:897   */\n      0x00\n        /* \"#utility.yul\":931:933   */\n      0x20\n        /* \"#utility.yul\":920:929   */\n      dup3\n        /* \"#utility.yul\":916:934   */\n      add\n        /* \"#utility.yul\":908:934   */\n      swap1\n      pop\n        /* \"#utility.yul\":944:1015   */\n      tag_116\n        /* \"#utility.yul\":1012:1013   */\n      0x00\n        /* \"#utility.yul\":1001:1010   */\n      dup4\n        /* \"#utility.yul\":997:1014   */\n      add\n        /* \"#utility.yul\":988:994   */\n      dup5\n        /* \"#utility.yul\":944:1015   */\n      tag_75\n      jump\t// in\n    tag_116:\n        /* \"#utility.yul\":800:1022   */\n      swap3\n      swap2\n      pop\n      pop\n      jump\t// out\n        /* \"#utility.yul\":1028:1150   */\n    tag_76:\n        /* \"#utility.yul\":1103:1109   */\n      0x00\n        /* \"#utility.yul\":1137:1142   */\n      dup2\n        /* \"#utility.yul\":1131:1143   */\n      mload\n        /* \"#utility.yul\":1121:1143   */\n      swap1\n      pop\n        /* \"#utility.yul\":1028:1150   */\n      swap2\n      swap1\n      pop\n      jump\t// out\n        /* \"#utility.yul\":1156:1348   */\n    tag_77:\n        /* \"#utility.yul\":1263:1274   */\n      0x00\n        /* \"#utility.yul\":1297:1303   */\n      dup3\n        /* \"#utility.yul\":1292:1295   */\n      dup3\n        /* \"#utility.yul\":1285:1304   */\n      mstore\n        /* \"#utility.yul\":1337:1341   */\n      0x20\n        /* \"#utility.yul\":1332:1335   */\n      dup3\n        /* \"#utility.yul\":1328:1342   */\n      add\n        /* \"#utility.yul\":1313:1342   */\n      swap1\n      pop\n        /* \"#utility.yul\":1156:1348   */\n      swap3\n      swap2\n      pop\n      pop\n      jump\t// out\n        /* \"#utility.yul\":1354:1494   */\n    tag_78:\n        /* \"#utility.yul\":1429:1433   */\n      0x00\n        /* \"#utility.yul\":1452:1455   */\n      dup2\n        /* \"#utility.yul\":1444:1455   */\n      swap1\n      pop\n        /* \"#utility.yul\":1482:1486   */\n      0x20\n        /* \"#utility.yul\":1477:1480   */\n      dup3\n        /* \"#utility.yul\":1473:1487   */\n      add\n        /* \"#utility.yul\":1465:1487   */\n      swap1\n      pop\n        /* \"#utility.yul\":1354:1494   */\n      swap2\n      swap1\n      pop\n      jump\t// out\n        /* \"#utility.yul\":1500:1604   */\n    tag_79:\n        /* \"#utility.yul\":1545:1552   */\n      0x00\n        /* \"#utility.yul\":1574:1598   */\n      tag_121\n        /* \"#utility.yul\":1592:1597   */\n      dup3\n        /* \"#utility.yul\":1574:1598   */\n      tag_71\n      jump\t// in\n    tag_121:\n        /* \"#utility.yul\":1563:1598   */\n      swap1\n      pop\n        /* \"#utility.yul\":1500:1604   */\n      swap2\n      swap1\n      pop\n      jump\t// out\n        /* \"#utility.yul\":1610:1742   */\n    tag_80:\n        /* \"#utility.yul\":1703:1735   */\n      tag_123\n        /* \"#utility.yul\":1729:1734   */\n      dup2\n        /* \"#utility.yul\":1703:1735   */\n      tag_79\n      jump\t// in\n    tag_123:\n        /* \"#utility.yul\":1698:1701   */\n      dup3\n        /* \"#utility.yul\":1691:1736   */\n      mstore\n        /* \"#utility.yul\":1610:1742   */\n      pop\n      pop\n      jump\t// out\n        /* \"#utility.yul\":1748:1959   */\n    tag_81:\n        /* \"#utility.yul\":1833:1843   */\n      0x00\n        /* \"#utility.yul\":1854:1916   */\n      tag_125\n        /* \"#utility.yul\":1912:1915   */\n      dup4\n        /* \"#utility.yul\":1904:1910   */\n      dup4\n        /* \"#utility.yul\":1854:1916   */\n      tag_80\n      jump\t// in\n    tag_125:\n        /* \"#utility.yul\":1948:1952   */\n      0x20\n        /* \"#utility.yul\":1943:1946   */\n      dup4\n        /* \"#utility.yul\":1939:1953   */\n      add\n        /* \"#utility.yul\":1925:1953   */\n      swap1\n      pop\n        /* \"#utility.yul\":1748:1959   */\n      swap3\n      swap2\n      pop\n      pop\n      jump\t// out\n        /* \"#utility.yul\":1965:2086   */\n    tag_82:\n        /* \"#utility.yul\":2043:2047   */\n      0x00\n        /* \"#utility.yul\":2075:2079   */\n      0x20\n        /* \"#utility.yul\":2070:2073   */\n      dup3\n        /* \"#utility.yul\":2066:2080   */\n      add\n        /* \"#utility.yul\":2058:2080   */\n      swap1\n      pop\n        /* \"#utility.yul\":1965:2086   */\n      swap2\n      swap1\n      pop\n      jump\t// out\n        /* \"#utility.yul\":2138:2934   */\n    tag_83:\n        /* \"#utility.yul\":2273:2276   */\n      0x00\n        /* \"#utility.yul\":2302:2364   */\n      tag_128\n        /* \"#utility.yul\":2358:2363   */\n      dup3\n        /* \"#utility.yul\":2302:2364   */\n      tag_76\n      jump\t// in\n    tag_128:\n        /* \"#utility.yul\":2380:2474   */\n      tag_129\n        /* \"#utility.yul\":2467:2473   */\n      dup2\n        /* \"#utility.yul\":2462:2465   */\n      dup6\n        /* \"#utility.yul\":2380:2474   */\n      tag_77\n      jump\t// in\n    tag_129:\n        /* \"#utility.yul\":2373:2474   */\n      swap4\n      pop\n        /* \"#utility.yul\":2498:2562   */\n      tag_130\n        /* \"#utility.yul\":2556:2561   */\n      dup4\n        /* \"#utility.yul\":2498:2562   */\n      tag_78\n      jump\t// in\n    tag_130:\n        /* \"#utility.yul\":2585:2592   */\n      dup1\n        /* \"#utility.yul\":2616:2617   */\n      0x00\n        /* \"#utility.yul\":2601:2909   */\n    tag_131:\n        /* \"#utility.yul\":2626:2632   */\n      dup4\n        /* \"#utility.yul\":2623:2624   */\n      dup2\n        /* \"#utility.yul\":2620:2633   */\n      lt\n        /* \"#utility.yul\":2601:2909   */\n      iszero\n      tag_133\n      jumpi\n        /* \"#utility.yul\":2702:2708   */\n      dup2\n        /* \"#utility.yul\":2696:2709   */\n      mload\n        /* \"#utility.yul\":2729:2808   */\n      tag_134\n        /* \"#utility.yul\":2804:2807   */\n      dup9\n        /* \"#utility.yul\":2789:2802   */\n      dup3\n        /* \"#utility.yul\":2729:2808   */\n      tag_81\n      jump\t// in\n    tag_134:\n        /* \"#utility.yul\":2722:2808   */\n      swap8\n      pop\n        /* \"#utility.yul\":2831:2899   */\n      tag_135\n        /* \"#utility.yul\":2892:2898   */\n      dup4\n        /* \"#utility.yul\":2831:2899   */\n      tag_82\n      jump\t// in\n    tag_135:\n        /* \"#utility.yul\":2821:2899   */\n      swap3\n      pop\n        /* \"#utility.yul\":2661:2909   */\n      pop\n        /* \"#utility.yul\":2648:2649   */\n      0x01\n        /* \"#utility.yul\":2645:2646   */\n      dup2\n        /* \"#utility.yul\":2641:2650   */\n      add\n        /* \"#utility.yul\":2636:2650   */\n      swap1\n      pop\n        /* \"#utility.yul\":2601:2909   */\n      jump(tag_131)\n    tag_133:\n        /* \"#utility.yul\":2605:2619   */\n      pop\n        /* \"#utility.yul\":2925:2928   */\n      dup6\n        /* \"#utility.yul\":2918:2928   */\n      swap4\n      pop\n        /* \"#utility.yul\":2278:2934   */\n      pop\n      pop\n      pop\n        /* \"#utility.yul\":2138:2934   */\n      swap3\n      swap2\n      pop\n      pop\n      jump\t// out\n        /* \"#utility.yul\":2940:3345   */\n    tag_25:\n        /* \"#utility.yul\":3099:3103   */\n      0x00\n        /* \"#utility.yul\":3137:3139   */\n      0x20\n        /* \"#utility.yul\":3126:3135   */\n      dup3\n        /* \"#utility.yul\":3122:3140   */\n      add\n        /* \"#utility.yul\":3114:3140   */\n      swap1\n      pop\n        /* \"#utility.yul\":3186:3195   */\n      dup2\n        /* \"#utility.yul\":3180:3184   */\n      dup2\n        /* \"#utility.yul\":3176:3196   */\n      sub\n        /* \"#utility.yul\":3172:3173   */\n      0x00\n        /* \"#utility.yul\":3161:3170   */\n      dup4\n        /* \"#utility.yul\":3157:3174   */\n      add\n        /* \"#utility.yul\":3150:3197   */\n      mstore\n        /* \"#utility.yul\":3214:3338   */\n      tag_137\n        /* \"#utility.yul\":3333:3337   */\n      dup2\n        /* \"#utility.yul\":3324:3330   */\n      dup5\n        /* \"#utility.yul\":3214:3338   */\n      tag_83\n      jump\t// in\n    tag_137:\n        /* \"#utility.yul\":3206:3338   */\n      swap1\n      pop\n        /* \"#utility.yul\":2940:3345   */\n      swap3\n      swap2\n      pop\n      pop\n      jump\t// out\n        /* \"#utility.yul\":3432:3549   */\n    tag_85:\n        /* \"#utility.yul\":3541:3542   */\n      0x00\n        /* \"#utility.yul\":3538:3539   */\n      dup1\n        /* \"#utility.yul\":3531:3543   */\n      revert\n        /* \"#utility.yul\":3678:3800   */\n    tag_87:\n        /* \"#utility.yul\":3751:3775   */\n      tag_142\n        /* \"#utility.yul\":3769:3774   */\n      dup2\n        /* \"#utility.yul\":3751:3775   */\n      tag_74\n      jump\t// in\n    tag_142:\n        /* \"#utility.yul\":3744:3749   */\n      dup2\n        /* \"#utility.yul\":3741:3776   */\n      eq\n        /* \"#utility.yul\":3731:3794   */\n      tag_143\n      jumpi\n        /* \"#utility.yul\":3790:3791   */\n      0x00\n        /* \"#utility.yul\":3787:3788   */\n      dup1\n        /* \"#utility.yul\":3780:3792   */\n      revert\n        /* \"#utility.yul\":3731:3794   */\n    tag_143:\n        /* \"#utility.yul\":3678:3800   */\n      pop\n      jump\t// out\n        /* \"#utility.yul\":3806:3945   */\n    tag_88:\n        /* \"#utility.yul\":3852:3857   */\n      0x00\n        /* \"#utility.yul\":3890:3896   */\n      dup2\n        /* \"#utility.yul\":3877:3897   */\n      calldataload\n        /* \"#utility.yul\":3868:3897   */\n      swap1\n      pop\n        /* \"#utility.yul\":3906:3939   */\n      tag_145\n        /* \"#utility.yul\":3933:3938   */\n      dup2\n        /* \"#utility.yul\":3906:3939   */\n      tag_87\n      jump\t// in\n    tag_145:\n        /* \"#utility.yul\":3806:3945   */\n      swap3\n      swap2\n      pop\n      pop\n      jump\t// out\n        /* \"#utility.yul\":3951:4280   */\n    tag_31:\n        /* \"#utility.yul\":4010:4016   */\n      0x00\n        /* \"#utility.yul\":4059:4061   */\n      0x20\n        /* \"#utility.yul\":4047:4056   */\n      dup3\n        /* \"#utility.yul\":4038:4045   */\n      dup5\n        /* \"#utility.yul\":4034:4057   */\n      sub\n        /* \"#utility.yul\":4030:4062   */\n      slt\n        /* \"#utility.yul\":4027:4146   */\n      iszero\n      tag_147\n      jumpi\n        /* \"#utility.yul\":4065:4144   */\n      tag_148\n      tag_85\n      jump\t// in\n    tag_148:\n        /* \"#utility.yul\":4027:4146   */\n    tag_147:\n        /* \"#utility.yul\":4185:4186   */\n      0x00\n        /* \"#utility.yul\":4210:4263   */\n      tag_149\n        /* \"#utility.yul\":4255:4262   */\n      dup5\n        /* \"#utility.yul\":4246:4252   */\n      dup3\n        /* \"#utility.yul\":4235:4244   */\n      dup6\n        /* \"#utility.yul\":4231:4253   */\n      add\n        /* \"#utility.yul\":4210:4263   */\n      tag_88\n      jump\t// in\n    tag_149:\n        /* \"#utility.yul\":4200:4263   */\n      swap2\n      pop\n        /* \"#utility.yul\":4156:4273   */\n      pop\n        /* \"#utility.yul\":3951:4280   */\n      swap3\n      swap2\n      pop\n      pop\n      jump\t// out\n        /* \"#utility.yul\":4286:4428   */\n    tag_89:\n        /* \"#utility.yul\":4389:4421   */\n      tag_151\n        /* \"#utility.yul\":4415:4420   */\n      dup2\n        /* \"#utility.yul\":4389:4421   */\n      tag_79\n      jump\t// in\n    tag_151:\n        /* \"#utility.yul\":4384:4387   */\n      dup3\n        /* \"#utility.yul\":4377:4422   */\n      mstore\n        /* \"#utility.yul\":4286:4428   */\n      pop\n      pop\n      jump\t// out\n        /* \"#utility.yul\":4434:4688   */\n    tag_34:\n        /* \"#utility.yul\":4543:4547   */\n      0x00\n        /* \"#utility.yul\":4581:4583   */\n      0x20\n        /* \"#utility.yul\":4570:4579   */\n      dup3\n        /* \"#utility.yul\":4566:4584   */\n      add\n        /* \"#utility.yul\":4558:4584   */\n      swap1\n      pop\n        /* \"#utility.yul\":4594:4681   */\n      tag_153\n        /* \"#utility.yul\":4678:4679   */\n      0x00\n        /* \"#utility.yul\":4667:4676   */\n      dup4\n        /* \"#utility.yul\":4663:4680   */\n      add\n        /* \"#utility.yul\":4654:4660   */\n      dup5\n        /* \"#utility.yul\":4594:4681   */\n      tag_89\n      jump\t// in\n    tag_153:\n        /* \"#utility.yul\":4434:4688   */\n      swap3\n      swap2\n      pop\n      pop\n      jump\t// out\n        /* \"#utility.yul\":4694:4874   */\n    tag_90:\n        /* \"#utility.yul\":4742:4819   */\n      0x4e487b7100000000000000000000000000000000000000000000000000000000\n        /* \"#utility.yul\":4739:4740   */\n      0x00\n        /* \"#utility.yul\":4732:4820   */\n      mstore\n        /* \"#utility.yul\":4839:4843   */\n      0x12\n        /* \"#utility.yul\":4836:4837   */\n      0x04\n        /* \"#utility.yul\":4829:4844   */\n      mstore\n        /* \"#utility.yul\":4863:4867   */\n      0x24\n        /* \"#utility.yul\":4860:4861   */\n      0x00\n        /* \"#utility.yul\":4853:4868   */\n      revert\n        /* \"#utility.yul\":4880:5056   */\n    tag_40:\n        /* \"#utility.yul\":4912:4913   */\n      0x00\n        /* \"#utility.yul\":4929:4949   */\n      tag_156\n        /* \"#utility.yul\":4947:4948   */\n      dup3\n        /* \"#utility.yul\":4929:4949   */\n      tag_74\n      jump\t// in\n    tag_156:\n        /* \"#utility.yul\":4924:4949   */\n      swap2\n      pop\n        /* \"#utility.yul\":4963:4983   */\n      tag_157\n        /* \"#utility.yul\":4981:4982   */\n      dup4\n        /* \"#utility.yul\":4963:4983   */\n      tag_74\n      jump\t// in\n    tag_157:\n        /* \"#utility.yul\":4958:4983   */\n      swap3\n      pop\n        /* \"#utility.yul\":5002:5003   */\n      dup3\n        /* \"#utility.yul\":4992:5027   */\n      tag_158\n      jumpi\n        /* \"#utility.yul\":5007:5025   */\n      tag_159\n      tag_90\n      jump\t// in\n    tag_159:\n        /* \"#utility.yul\":4992:5027   */\n    tag_158:\n        /* \"#utility.yul\":5048:5049   */\n      dup3\n        /* \"#utility.yul\":5045:5046   */\n      dup3\n        /* \"#utility.yul\":5041:5050   */\n      mod\n        /* \"#utility.yul\":5036:5050   */\n      swap1\n      pop\n        /* \"#utility.yul\":4880:5056   */\n      swap3\n      swap2\n      pop\n      pop\n      jump\t// out\n        /* \"#utility.yul\":5062:5242   */\n    tag_43:\n        /* \"#utility.yul\":5110:5187   */\n      0x4e487b7100000000000000000000000000000000000000000000000000000000\n        /* \"#utility.yul\":5107:5108   */\n      0x00\n        /* \"#utility.yul\":5100:5188   */\n      mstore\n        /* \"#utility.yul\":5207:5211   */\n      0x32\n        /* \"#utility.yul\":5204:5205   */\n      0x04\n        /* \"#utility.yul\":5197:5212   */\n      mstore\n        /* \"#utility.yul\":5231:5235   */\n      0x24\n        /* \"#utility.yul\":5228:5229   */\n      0x00\n        /* \"#utility.yul\":5221:5236   */\n      revert\n        /* \"#utility.yul\":5248:5428   */\n    tag_49:\n        /* \"#utility.yul\":5296:5373   */\n      0x4e487b7100000000000000000000000000000000000000000000000000000000\n        /* \"#utility.yul\":5293:5294   */\n      0x00\n        /* \"#utility.yul\":5286:5374   */\n      mstore\n        /* \"#utility.yul\":5393:5397   */\n      0x41\n        /* \"#utility.yul\":5390:5391   */\n      0x04\n        /* \"#utility.yul\":5383:5398   */\n      mstore\n        /* \"#utility.yul\":5417:5421   */\n      0x24\n        /* \"#utility.yul\":5414:5415   */\n      0x00\n        /* \"#utility.yul\":5407:5422   */\n      revert\n        /* \"#utility.yul\":5434:5513   */\n    tag_91:\n        /* \"#utility.yul\":5473:5480   */\n      0x00\n        /* \"#utility.yul\":5502:5507   */\n      dup2\n        /* \"#utility.yul\":5491:5507   */\n      swap1\n      pop\n        /* \"#utility.yul\":5434:5513   */\n      swap2\n      swap1\n      pop\n      jump\t// out\n        /* \"#utility.yul\":5519:5676   */\n    tag_92:\n        /* \"#utility.yul\":5624:5669   */\n      tag_164\n        /* \"#utility.yul\":5644:5668   */\n      tag_165\n        /* \"#utility.yul\":5662:5667   */\n      dup3\n        /* \"#utility.yul\":5644:5668   */\n      tag_74\n      jump\t// in\n    tag_165:\n        /* \"#utility.yul\":5624:5669   */\n      tag_91\n      jump\t// in\n    tag_164:\n        /* \"#utility.yul\":5619:5622   */\n      dup3\n        /* \"#utility.yul\":5612:5670   */\n      mstore\n        /* \"#utility.yul\":5519:5676   */\n      pop\n      pop\n      jump\t// out\n        /* \"#utility.yul\":5682:5801   */\n    tag_93:\n        /* \"#utility.yul\":5754:5760   */\n      0x00\n        /* \"#utility.yul\":5788:5793   */\n      dup2\n        /* \"#utility.yul\":5782:5794   */\n      sload\n        /* \"#utility.yul\":5772:5794   */\n      swap1\n      pop\n        /* \"#utility.yul\":5682:5801   */\n      swap2\n      swap1\n      pop\n      jump\t// out\n        /* \"#utility.yul\":5807:5978   */\n    tag_94:\n        /* \"#utility.yul\":5932:5943   */\n      0x00\n        /* \"#utility.yul\":5969:5972   */\n      dup2\n        /* \"#utility.yul\":5954:5972   */\n      swap1\n      pop\n        /* \"#utility.yul\":5807:5978   */\n      swap3\n      swap2\n      pop\n      pop\n      jump\t// out\n        /* \"#utility.yul\":5984:6148   */\n    tag_95:\n        /* \"#utility.yul\":6056:6060   */\n      0x00\n        /* \"#utility.yul\":6079:6082   */\n      dup2\n        /* \"#utility.yul\":6071:6082   */\n      swap1\n      pop\n        /* \"#utility.yul\":6102:6105   */\n      dup2\n        /* \"#utility.yul\":6099:6100   */\n      0x00\n        /* \"#utility.yul\":6092:6106   */\n      mstore\n        /* \"#utility.yul\":6136:6140   */\n      0x20\n        /* \"#utility.yul\":6133:6134   */\n      0x00\n        /* \"#utility.yul\":6123:6141   */\n      keccak256\n        /* \"#utility.yul\":6115:6141   */\n      swap1\n      pop\n        /* \"#utility.yul\":5984:6148   */\n      swap2\n      swap1\n      pop\n      jump\t// out\n        /* \"#utility.yul\":6154:6294   */\n    tag_96:\n        /* \"#utility.yul\":6255:6287   */\n      tag_170\n        /* \"#utility.yul\":6281:6286   */\n      dup2\n        /* \"#utility.yul\":6255:6287   */\n      tag_79\n      jump\t// in\n    tag_170:\n        /* \"#utility.yul\":6250:6253   */\n      dup3\n        /* \"#utility.yul\":6243:6288   */\n      mstore\n        /* \"#utility.yul\":6154:6294   */\n      pop\n      pop\n      jump\t// out\n        /* \"#utility.yul\":6300:6527   */\n    tag_97:\n        /* \"#utility.yul\":6393:6403   */\n      0x00\n        /* \"#utility.yul\":6414:6484   */\n      tag_172\n        /* \"#utility.yul\":6480:6483   */\n      dup4\n        /* \"#utility.yul\":6472:6478   */\n      dup4\n        /* \"#utility.yul\":6414:6484   */\n      tag_96\n      jump\t// in\n    tag_172:\n        /* \"#utility.yul\":6516:6520   */\n      0x20\n        /* \"#utility.yul\":6511:6514   */\n      dup4\n        /* \"#utility.yul\":6507:6521   */\n      add\n        /* \"#utility.yul\":6493:6521   */\n      swap1\n      pop\n        /* \"#utility.yul\":6300:6527   */\n      swap3\n      swap2\n      pop\n      pop\n      jump\t// out\n        /* \"#utility.yul\":6533:6635   */\n    tag_98:\n        /* \"#utility.yul\":6575:6583   */\n      0x00\n        /* \"#utility.yul\":6622:6627   */\n      dup2\n        /* \"#utility.yul\":6619:6620   */\n      0x00\n        /* \"#utility.yul\":6615:6628   */\n      shr\n        /* \"#utility.yul\":6594:6628   */\n      swap1\n      pop\n        /* \"#utility.yul\":6533:6635   */\n      swap2\n      swap1\n      pop\n      jump\t// out\n        /* \"#utility.yul\":6641:6788   */\n    tag_99:\n        /* \"#utility.yul\":6699:6706   */\n      0x00\n        /* \"#utility.yul\":6739:6781   */\n      0xffffffffffffffffffffffffffffffffffffffff\n        /* \"#utility.yul\":6732:6737   */\n      dup3\n        /* \"#utility.yul\":6728:6782   */\n      and\n        /* \"#utility.yul\":6717:6782   */\n      swap1\n      pop\n        /* \"#utility.yul\":6641:6788   */\n      swap2\n      swap1\n      pop\n      jump\t// out\n        /* \"#utility.yul\":6794:6976   */\n    tag_100:\n        /* \"#utility.yul\":6871:6876   */\n      0x00\n        /* \"#utility.yul\":6896:6970   */\n      tag_176\n        /* \"#utility.yul\":6935:6969   */\n      tag_177\n        /* \"#utility.yul\":6958:6968   */\n      dup4\n        /* \"#utility.yul\":6935:6969   */\n      tag_98\n      jump\t// in\n    tag_177:\n        /* \"#utility.yul\":6896:6970   */\n      tag_99\n      jump\t// in\n    tag_176:\n        /* \"#utility.yul\":6887:6970   */\n      swap1\n      pop\n        /* \"#utility.yul\":6794:6976   */\n      swap2\n      swap1\n      pop\n      jump\t// out\n        /* \"#utility.yul\":6982:7142   */\n    tag_101:\n        /* \"#utility.yul\":7045:7050   */\n      0x00\n        /* \"#utility.yul\":7070:7135   */\n      tag_179\n        /* \"#utility.yul\":7129:7133   */\n      dup3\n        /* \"#utility.yul\":7123:7134   */\n      sload\n        /* \"#utility.yul\":7070:7135   */\n      tag_100\n      jump\t// in\n    tag_179:\n        /* \"#utility.yul\":7061:7135   */\n      swap1\n      pop\n        /* \"#utility.yul\":6982:7142   */\n      swap2\n      swap1\n      pop\n      jump\t// out\n        /* \"#utility.yul\":7148:7266   */\n    tag_102:\n        /* \"#utility.yul\":7223:7227   */\n      0x00\n        /* \"#utility.yul\":7255:7259   */\n      0x01\n        /* \"#utility.yul\":7250:7253   */\n      dup3\n        /* \"#utility.yul\":7246:7260   */\n      add\n        /* \"#utility.yul\":7238:7260   */\n      swap1\n      pop\n        /* \"#utility.yul\":7148:7266   */\n      swap2\n      swap1\n      pop\n      jump\t// out\n        /* \"#utility.yul\":7318:8185   */\n    tag_103:\n        /* \"#utility.yul\":7468:7471   */\n      0x00\n        /* \"#utility.yul\":7497:7556   */\n      tag_182\n        /* \"#utility.yul\":7550:7555   */\n      dup3\n        /* \"#utility.yul\":7497:7556   */\n      tag_93\n      jump\t// in\n    tag_182:\n        /* \"#utility.yul\":7572:7684   */\n      tag_183\n        /* \"#utility.yul\":7677:7683   */\n      dup2\n        /* \"#utility.yul\":7672:7675   */\n      dup6\n        /* \"#utility.yul\":7572:7684   */\n      tag_94\n      jump\t// in\n    tag_183:\n        /* \"#utility.yul\":7565:7684   */\n      swap4\n      pop\n        /* \"#utility.yul\":7708:7769   */\n      tag_184\n        /* \"#utility.yul\":7763:7768   */\n      dup4\n        /* \"#utility.yul\":7708:7769   */\n      tag_95\n      jump\t// in\n    tag_184:\n        /* \"#utility.yul\":7792:7799   */\n      dup1\n        /* \"#utility.yul\":7823:7824   */\n      0x00\n        /* \"#utility.yul\":7808:8160   */\n    tag_185:\n        /* \"#utility.yul\":7833:7839   */\n      dup4\n        /* \"#utility.yul\":7830:7831   */\n      dup2\n        /* \"#utility.yul\":7827:7840   */\n      lt\n        /* \"#utility.yul\":7808:8160   */\n      iszero\n      tag_187\n      jumpi\n        /* \"#utility.yul\":7903:7955   */\n      tag_188\n        /* \"#utility.yul\":7948:7954   */\n      dup3\n        /* \"#utility.yul\":7903:7955   */\n      tag_101\n      jump\t// in\n    tag_188:\n        /* \"#utility.yul\":7975:8062   */\n      tag_189\n        /* \"#utility.yul\":8058:8061   */\n      dup9\n        /* \"#utility.yul\":8043:8056   */\n      dup3\n        /* \"#utility.yul\":7975:8062   */\n      tag_97\n      jump\t// in\n    tag_189:\n        /* \"#utility.yul\":7968:8062   */\n      swap8\n      pop\n        /* \"#utility.yul\":8085:8150   */\n      tag_190\n        /* \"#utility.yul\":8143:8149   */\n      dup4\n        /* \"#utility.yul\":8085:8150   */\n      tag_102\n      jump\t// in\n    tag_190:\n        /* \"#utility.yul\":8075:8150   */\n      swap3\n      pop\n        /* \"#utility.yul\":7868:8160   */\n      pop\n        /* \"#utility.yul\":7855:7856   */\n      0x01\n        /* \"#utility.yul\":7852:7853   */\n      dup2\n        /* \"#utility.yul\":7848:7857   */\n      add\n        /* \"#utility.yul\":7843:7857   */\n      swap1\n      pop\n        /* \"#utility.yul\":7808:8160   */\n      jump(tag_185)\n    tag_187:\n        /* \"#utility.yul\":7812:7826   */\n      pop\n        /* \"#utility.yul\":8176:8179   */\n      dup6\n        /* \"#utility.yul\":8169:8179   */\n      swap4\n      pop\n        /* \"#utility.yul\":7473:8185   */\n      pop\n      pop\n      pop\n        /* \"#utility.yul\":7318:8185   */\n      swap3\n      swap2\n      pop\n      pop\n      jump\t// out\n        /* \"#utility.yul\":8191:8834   */\n    tag_55:\n        /* \"#utility.yul\":8422:8425   */\n      0x00\n        /* \"#utility.yul\":8437:8512   */\n      tag_192\n        /* \"#utility.yul\":8508:8511   */\n      dup3\n        /* \"#utility.yul\":8499:8505   */\n      dup7\n        /* \"#utility.yul\":8437:8512   */\n      tag_92\n      jump\t// in\n    tag_192:\n        /* \"#utility.yul\":8537:8539   */\n      0x20\n        /* \"#utility.yul\":8532:8535   */\n      dup3\n        /* \"#utility.yul\":8528:8540   */\n      add\n        /* \"#utility.yul\":8521:8540   */\n      swap2\n      pop\n        /* \"#utility.yul\":8550:8625   */\n      tag_193\n        /* \"#utility.yul\":8621:8624   */\n      dup3\n        /* \"#utility.yul\":8612:8618   */\n      dup6\n        /* \"#utility.yul\":8550:8625   */\n      tag_92\n      jump\t// in\n    tag_193:\n        /* \"#utility.yul\":8650:8652   */\n      0x20\n        /* \"#utility.yul\":8645:8648   */\n      dup3\n        /* \"#utility.yul\":8641:8653   */\n      add\n        /* \"#utility.yul\":8634:8653   */\n      swap2\n      pop\n        /* \"#utility.yul\":8670:8808   */\n      tag_194\n        /* \"#utility.yul\":8804:8807   */\n      dup3\n        /* \"#utility.yul\":8795:8801   */\n      dup5\n        /* \"#utility.yul\":8670:8808   */\n      tag_103\n      jump\t// in\n    tag_194:\n        /* \"#utility.yul\":8663:8808   */\n      swap2\n      pop\n        /* \"#utility.yul\":8825:8828   */\n      dup2\n        /* \"#utility.yul\":8818:8828   */\n      swap1\n      pop\n        /* \"#utility.yul\":8191:8834   */\n      swap5\n      swap4\n      pop\n      pop\n      pop\n      pop\n      jump\t// out\n\n    auxdata: 0xa2646970667358221220075627ef584c30501ba410f98548ac53dd85fea3d52312924ec1b0e40577f0c364736f6c634300080b0033\n}\n","bytecode":{"linkReferences":{},"object":"608060405234801561001057600080fd5b50336000806101000a81548173ffffffffffffffffffffffffffffffffffffffff021916908373ffffffffffffffffffffffffffffffffffffffff160217905550610951806100606000396000f3fe6080604052600436106100555760003560e01c8063481c6a751461005a5780635d495aea146100855780635ec01e4d1461009c5780638b5b9ccc146100c7578063e97dcb62146100f2578063f71d96cb146100fc575b600080fd5b34801561006657600080fd5b5061006f610139565b60405161007c919061051c565b60405180910390f35b34801561009157600080fd5b5061009a61015d565b005b3480156100a857600080fd5b506100b16102b9565b6040516100be9190610550565b60405180910390f35b3480156100d357600080fd5b506100dc6102ef565b6040516100e9919061063b565b60405180910390f35b6100fa61037d565b005b34801561010857600080fd5b50610123600480360381019061011e919061068e565b6103f5565b60405161013091906106ca565b60405180910390f35b60008054906101000a900473ffffffffffffffffffffffffffffffffffffffff1681565b60008054906101000a900473ffffffffffffffffffffffffffffffffffffffff1673ffffffffffffffffffffffffffffffffffffffff163373ffffffffffffffffffffffffffffffffffffffff16146101b557600080fd5b60006001805490506101c56102b9565b6101cf9190610714565b9050600181815481106101e5576101e4610745565b5b9060005260206000200160009054906101000a900473ffffffffffffffffffffffffffffffffffffffff1673ffffffffffffffffffffffffffffffffffffffff166108fc479081150290604051600060405180830381858888f19350505050158015610255573d6000803e3d6000fd5b50600067ffffffffffffffff81111561027157610270610774565b5b60405190808252806020026020018201604052801561029f5781602001602082028036833780820191505090505b50600190805190602001906102b5929190610434565b5050565b6000444260016040516020016102d1939291906108e2565b6040516020818303038152906040528051906020012060001c905090565b6060600180548060200260200160405190810160405280929190818152602001828054801561037357602002820191906000526020600020905b8160009054906101000a900473ffffffffffffffffffffffffffffffffffffffff1673ffffffffffffffffffffffffffffffffffffffff1681526020019060010190808311610329575b5050505050905090565b662386f26fc10000341161039057600080fd5b6001339080600181540180825580915050600190039060005260206000200160009091909190916101000a81548173ffffffffffffffffffffffffffffffffffffffff021916908373ffffffffffffffffffffffffffffffffffffffff160217905550565b6001818154811061040557600080fd5b906000526020600020016000915054906101000a900473ffffffffffffffffffffffffffffffffffffffff1681565b8280548282559060005260206000209081019282156104ad579160200282015b828111156104ac5782518260006101000a81548173ffffffffffffffffffffffffffffffffffffffff021916908373ffffffffffffffffffffffffffffffffffffffff16021790555091602001919060010190610454565b5b5090506104ba91906104be565b5090565b5b808211156104d75760008160009055506001016104bf565b5090565b600073ffffffffffffffffffffffffffffffffffffffff82169050919050565b6000610506826104db565b9050919050565b610516816104fb565b82525050565b6000602082019050610531600083018461050d565b92915050565b6000819050919050565b61054a81610537565b82525050565b60006020820190506105656000830184610541565b92915050565b600081519050919050565b600082825260208201905092915050565b6000819050602082019050919050565b60006105a2826104db565b9050919050565b6105b281610597565b82525050565b60006105c483836105a9565b60208301905092915050565b6000602082019050919050565b60006105e88261056b565b6105f28185610576565b93506105fd83610587565b8060005b8381101561062e57815161061588826105b8565b9750610620836105d0565b925050600181019050610601565b5085935050505092915050565b6000602082019050818103600083015261065581846105dd565b905092915050565b600080fd5b61066b81610537565b811461067657600080fd5b50565b60008135905061068881610662565b92915050565b6000602082840312156106a4576106a361065d565b5b60006106b284828501610679565b91505092915050565b6106c481610597565b82525050565b60006020820190506106df60008301846106bb565b92915050565b7f4e487b7100000000000000000000000000000000000000000000000000000000600052601260045260246000fd5b600061071f82610537565b915061072a83610537565b92508261073a576107396106e5565b5b828206905092915050565b7f4e487b7100000000000000000000000000000000000000000000000000000000600052603260045260246000fd5b7f4e487b7100000000000000000000000000000000000000000000000000000000600052604160045260246000fd5b6000819050919050565b6107be6107b982610537565b6107a3565b82525050565b600081549050919050565b600081905092915050565b60008190508160005260206000209050919050565b6107f881610597565b82525050565b600061080a83836107ef565b60208301905092915050565b60008160001c9050919050565b600073ffffffffffffffffffffffffffffffffffffffff82169050919050565b600061085661085183610816565b610823565b9050919050565b60006108698254610843565b9050919050565b6000600182019050919050565b6000610888826107c4565b61089281856107cf565b935061089d836107da565b8060005b838110156108d5576108b28261085d565b6108bc88826107fe565b97506108c783610870565b9250506001810190506108a1565b5085935050505092915050565b60006108ee82866107ad565b6020820191506108fe82856107ad565b60208201915061090e828461087d565b915081905094935050505056fea2646970667358221220075627ef584c30501ba410f98548ac53dd85fea3d52312924ec1b0e40577f0c364736f6c634300080b0033","opcodes":"PUSH1 0x80 PUSH1 0x40 MSTORE CALLVALUE DUP1 ISZERO PUSH2 0x10 JUMPI PUSH1 0x0 DUP1 REVERT JUMPDEST POP CALLER PUSH1 0x0 DUP1 PUSH2 0x100 EXP DUP2 SLOAD DUP2 PUSH20 0xFFFFFFFFFFFFFFFFFFFFFFFFFFFFFFFFFFFFFFFF MUL NOT AND SWAP1 DUP4 PUSH20 0xFFFFFFFFFFFFFFFFFFFFFFFFFFFFFFFFFFFFFFFF AND MUL OR SWAP1 SSTORE POP PUSH2 0x951 DUP1 PUSH2 0x60 PUSH1 0x0 CODECOPY PUSH1 0x0 RETURN INVALID PUSH1 0x80 PUSH1 0x40 MSTORE PUSH1 0x4 CALLDATASIZE LT PUSH2 0x55 JUMPI PUSH1 0x0 CALLDATALOAD PUSH1 0xE0 SHR DUP1 PUSH4 0x481C6A75 EQ PUSH2 0x5A JUMPI DUP1 PUSH4 0x5D495AEA EQ PUSH2 0x85 JUMPI DUP1 PUSH4 0x5EC01E4D EQ PUSH2 0x9C JUMPI DUP1 PUSH4 0x8B5B9CCC EQ PUSH2 0xC7 JUMPI DUP1 PUSH4 0xE97DCB62 EQ PUSH2 0xF2 JUMPI DUP1 PUSH4 0xF71D96CB EQ PUSH2 0xFC JUMPI JUMPDEST PUSH1 0x0 DUP1 REVERT JUMPDEST CALLVALUE DUP1 ISZERO PUSH2 0x66 JUMPI PUSH1 0x0 DUP1 REVERT JUMPDEST POP PUSH2 0x6F PUSH2 0x139 JUMP JUMPDEST PUSH1 0x40 MLOAD PUSH2 0x7C SWAP2 SWAP1 PUSH2 0x51C JUMP JUMPDEST PUSH1 0x40 MLOAD DUP1 SWAP2 SUB SWAP1 RETURN JUMPDEST CALLVALUE DUP1 ISZERO PUSH2 0x91 JUMPI PUSH1 0x0 DUP1 REVERT JUMPDEST POP PUSH2 0x9A PUSH2 0x15D JUMP JUMPDEST STOP JUMPDEST CALLVALUE DUP1 ISZERO PUSH2 0xA8 JUMPI PUSH1 0x0 DUP1 REVERT JUMPDEST POP PUSH2 0xB1 PUSH2 0x2B9 JUMP JUMPDEST PUSH1 0x40 MLOAD PUSH2 0xBE SWAP2 SWAP1 PUSH2 0x550 JUMP JUMPDEST PUSH1 0x40 MLOAD DUP1 SWAP2 SUB SWAP1 RETURN JUMPDEST CALLVALUE DUP1 ISZERO PUSH2 0xD3 JUMPI PUSH1 0x0 DUP1 REVERT JUMPDEST POP PUSH2 0xDC PUSH2 0x2EF JUMP JUMPDEST PUSH1 0x40 MLOAD PUSH2 0xE9 SWAP2 SWAP1 PUSH2 0x63B JUMP JUMPDEST PUSH1 0x40 MLOAD DUP1 SWAP2 SUB SWAP1 RETURN JUMPDEST PUSH2 0xFA PUSH2 0x37D JUMP JUMPDEST STOP JUMPDEST CALLVALUE DUP1 ISZERO PUSH2 0x108 JUMPI PUSH1 0x0 DUP1 REVERT JUMPDEST POP PUSH2 0x123 PUSH1 0x4 DUP1 CALLDATASIZE SUB DUP2 ADD SWAP1 PUSH2 0x11E SWAP2 SWAP1 PUSH2 0x68E JUMP JUMPDEST PUSH2 0x3F5 JUMP JUMPDEST PUSH1 0x40 MLOAD PUSH2 0x130 SWAP2 SWAP1 PUSH2 0x6CA JUMP JUMPDEST PUSH1 0x40 MLOAD DUP1 SWAP2 SUB SWAP1 RETURN JUMPDEST PUSH1 0x0 DUP1 SLOAD SWAP1 PUSH2 0x100 EXP SWAP1 DIV PUSH20 0xFFFFFFFFFFFFFFFFFFFFFFFFFFFFFFFFFFFFFFFF AND DUP2 JUMP JUMPDEST PUSH1 0x0 DUP1 SLOAD SWAP1 PUSH2 0x100 EXP SWAP1 DIV PUSH20 0xFFFFFFFFFFFFFFFFFFFFFFFFFFFFFFFFFFFFFFFF AND PUSH20 0xFFFFFFFFFFFFFFFFFFFFFFFFFFFFFFFFFFFFFFFF AND CALLER PUSH20 0xFFFFFFFFFFFFFFFFFFFFFFFFFFFFFFFFFFFFFFFF AND EQ PUSH2 0x1B5 JUMPI PUSH1 0x0 DUP1 REVERT JUMPDEST PUSH1 0x0 PUSH1 0x1 DUP1 SLOAD SWAP1 POP PUSH2 0x1C5 PUSH2 0x2B9 JUMP JUMPDEST PUSH2 0x1CF SWAP2 SWAP1 PUSH2 0x714 JUMP JUMPDEST SWAP1 POP PUSH1 0x1 DUP2 DUP2 SLOAD DUP2 LT PUSH2 0x1E5 JUMPI PUSH2 0x1E4 PUSH2 0x745 JUMP JUMPDEST JUMPDEST SWAP1 PUSH1 0x0 MSTORE PUSH1 0x20 PUSH1 0x0 KECCAK256 ADD PUSH1 0x0 SWAP1 SLOAD SWAP1 PUSH2 0x100 EXP SWAP1 DIV PUSH20 0xFFFFFFFFFFFFFFFFFFFFFFFFFFFFFFFFFFFFFFFF AND PUSH20 0xFFFFFFFFFFFFFFFFFFFFFFFFFFFFFFFFFFFFFFFF AND PUSH2 0x8FC SELFBALANCE SWAP1 DUP2 ISZERO MUL SWAP1 PUSH1 0x40 MLOAD PUSH1 0x0 PUSH1 0x40 MLOAD DUP1 DUP4 SUB DUP2 DUP6 DUP9 DUP9 CALL SWAP4 POP POP POP POP ISZERO DUP1 ISZERO PUSH2 0x255 JUMPI RETURNDATASIZE PUSH1 0x0 DUP1 RETURNDATACOPY RETURNDATASIZE PUSH1 0x0 REVERT JUMPDEST POP PUSH1 0x0 PUSH8 0xFFFFFFFFFFFFFFFF DUP2 GT ISZERO PUSH2 0x271 JUMPI PUSH2 0x270 PUSH2 0x774 JUMP JUMPDEST JUMPDEST PUSH1 0x40 MLOAD SWAP1 DUP1 DUP3 MSTORE DUP1 PUSH1 0x20 MUL PUSH1 0x20 ADD DUP3 ADD PUSH1 0x40 MSTORE DUP1 ISZERO PUSH2 0x29F JUMPI DUP2 PUSH1 0x20 ADD PUSH1 0x20 DUP3 MUL DUP1 CALLDATASIZE DUP4 CALLDATACOPY DUP1 DUP3 ADD SWAP2 POP POP SWAP1 POP JUMPDEST POP PUSH1 0x1 SWAP1 DUP1 MLOAD SWAP1 PUSH1 0x20 ADD SWAP1 PUSH2 0x2B5 SWAP3 SWAP2 SWAP1 PUSH2 0x434 JUMP JUMPDEST POP POP JUMP JUMPDEST PUSH1 0x0 DIFFICULTY TIMESTAMP PUSH1 0x1 PUSH1 0x40 MLOAD PUSH1 0x20 ADD PUSH2 0x2D1 SWAP4 SWAP3 SWAP2 SWAP1 PUSH2 0x8E2 JUMP JUMPDEST PUSH1 0x40 MLOAD PUSH1 0x20 DUP2 DUP4 SUB SUB DUP2 MSTORE SWAP1 PUSH1 0x40 MSTORE DUP1 MLOAD SWAP1 PUSH1 0x20 ADD KECCAK256 PUSH1 0x0 SHR SWAP1 POP SWAP1 JUMP JUMPDEST PUSH1 0x60 PUSH1 0x1 DUP1 SLOAD DUP1 PUSH1 0x20 MUL PUSH1 0x20 ADD PUSH1 0x40 MLOAD SWAP1 DUP2 ADD PUSH1 0x40 MSTORE DUP1 SWAP3 SWAP2 SWAP1 DUP2 DUP2 MSTORE PUSH1 0x20 ADD DUP3 DUP1 SLOAD DUP1 ISZERO PUSH2 0x373 JUMPI PUSH1 0x20 MUL DUP3 ADD SWAP2 SWAP1 PUSH1 0x0 MSTORE PUSH1 0x20 PUSH1 0x0 KECCAK256 SWAP1 JUMPDEST DUP2 PUSH1 0x0 SWAP1 SLOAD SWAP1 PUSH2 0x100 EXP SWAP1 DIV PUSH20 0xFFFFFFFFFFFFFFFFFFFFFFFFFFFFFFFFFFFFFFFF AND PUSH20 0xFFFFFFFFFFFFFFFFFFFFFFFFFFFFFFFFFFFFFFFF AND DUP2 MSTORE PUSH1 0x20 ADD SWAP1 PUSH1 0x1 ADD SWAP1 DUP1 DUP4 GT PUSH2 0x329 JUMPI JUMPDEST POP POP POP POP POP SWAP1 POP SWAP1 JUMP JUMPDEST PUSH7 0x2386F26FC10000 CALLVALUE GT PUSH2 0x390 JUMPI PUSH1 0x0 DUP1 REVERT JUMPDEST PUSH1 0x1 CALLER SWAP1 DUP1 PUSH1 0x1 DUP2 SLOAD ADD DUP1 DUP3 SSTORE DUP1 SWAP2 POP POP PUSH1 0x1 SWAP1 SUB SWAP1 PUSH1 0x0 MSTORE PUSH1 0x20 PUSH1 0x0 KECCAK256 ADD PUSH1 0x0 SWAP1 SWAP2 SWAP1 SWAP2 SWAP1 SWAP2 PUSH2 0x100 EXP DUP2 SLOAD DUP2 PUSH20 0xFFFFFFFFFFFFFFFFFFFFFFFFFFFFFFFFFFFFFFFF MUL NOT AND SWAP1 DUP4 PUSH20 0xFFFFFFFFFFFFFFFFFFFFFFFFFFFFFFFFFFFFFFFF AND MUL OR SWAP1 SSTORE POP JUMP JUMPDEST PUSH1 0x1 DUP2 DUP2 SLOAD DUP2 LT PUSH2 0x405 JUMPI PUSH1 0x0 DUP1 REVERT JUMPDEST SWAP1 PUSH1 0x0 MSTORE PUSH1 0x20 PUSH1 0x0 KECCAK256 ADD PUSH1 0x0 SWAP2 POP SLOAD SWAP1 PUSH2 0x100 EXP SWAP1 DIV PUSH20 0xFFFFFFFFFFFFFFFFFFFFFFFFFFFFFFFFFFFFFFFF AND DUP2 JUMP JUMPDEST DUP3 DUP1 SLOAD DUP3 DUP3 SSTORE SWAP1 PUSH1 0x0 MSTORE PUSH1 0x20 PUSH1 0x0 KECCAK256 SWAP1 DUP2 ADD SWAP3 DUP3 ISZERO PUSH2 0x4AD JUMPI SWAP2 PUSH1 0x20 MUL DUP3 ADD JUMPDEST DUP3 DUP2 GT ISZERO PUSH2 0x4AC JUMPI DUP3 MLOAD DUP3 PUSH1 0x0 PUSH2 0x100 EXP DUP2 SLOAD DUP2 PUSH20 0xFFFFFFFFFFFFFFFFFFFFFFFFFFFFFFFFFFFFFFFF MUL NOT AND SWAP1 DUP4 PUSH20 0xFFFFFFFFFFFFFFFFFFFFFFFFFFFFFFFFFFFFFFFF AND MUL OR SWAP1 SSTORE POP SWAP2 PUSH1 0x20 ADD SWAP2 SWAP1 PUSH1 0x1 ADD SWAP1 PUSH2 0x454 JUMP JUMPDEST JUMPDEST POP SWAP1 POP PUSH2 0x4BA SWAP2 SWAP1 PUSH2 0x4BE JUMP JUMPDEST POP SWAP1 JUMP JUMPDEST JUMPDEST DUP1 DUP3 GT ISZERO PUSH2 0x4D7 JUMPI PUSH1 0x0 DUP2 PUSH1 0x0 SWAP1 SSTORE POP PUSH1 0x1 ADD PUSH2 0x4BF JUMP JUMPDEST POP SWAP1 JUMP JUMPDEST PUSH1 0x0 PUSH20 0xFFFFFFFFFFFFFFFFFFFFFFFFFFFFFFFFFFFFFFFF DUP3 AND SWAP1 POP SWAP2 SWAP1 POP JUMP JUMPDEST PUSH1 0x0 PUSH2 0x506 DUP3 PUSH2 0x4DB JUMP JUMPDEST SWAP1 POP SWAP2 SWAP1 POP JUMP JUMPDEST PUSH2 0x516 DUP2 PUSH2 0x4FB JUMP JUMPDEST DUP3 MSTORE POP POP JUMP JUMPDEST PUSH1 0x0 PUSH1 0x20 DUP3 ADD SWAP1 POP PUSH2 0x531 PUSH1 0x0 DUP4 ADD DUP5 PUSH2 0x50D JUMP JUMPDEST SWAP3 SWAP2 POP POP JUMP JUMPDEST PUSH1 0x0 DUP2 SWAP1 POP SWAP2 SWAP1 POP JUMP JUMPDEST PUSH2 0x54A DUP2 PUSH2 0x537 JUMP JUMPDEST DUP3 MSTORE POP POP JUMP JUMPDEST PUSH1 0x0 PUSH1 0x20 DUP3 ADD SWAP1 POP PUSH2 0x565 PUSH1 0x0 DUP4 ADD DUP5 PUSH2 0x541 JUMP JUMPDEST SWAP3 SWAP2 POP POP JUMP JUMPDEST PUSH1 0x0 DUP2 MLOAD SWAP1 POP SWAP2 SWAP1 POP JUMP JUMPDEST PUSH1 0x0 DUP3 DUP3 MSTORE PUSH1 0x20 DUP3 ADD SWAP1 POP SWAP3 SWAP2 POP POP JUMP JUMPDEST PUSH1 0x0 DUP2 SWAP1 POP PUSH1 0x20 DUP3 ADD SWAP1 POP SWAP2 SWAP1 POP JUMP JUMPDEST PUSH1 0x0 PUSH2 0x5A2 DUP3 PUSH2 0x4DB JUMP JUMPDEST SWAP1 POP SWAP2 SWAP1 POP JUMP JUMPDEST PUSH2 0x5B2 DUP2 PUSH2 0x597 JUMP JUMPDEST DUP3 MSTORE POP POP JUMP JUMPDEST PUSH1 0x0 PUSH2 0x5C4 DUP4 DUP4 PUSH2 0x5A9 JUMP JUMPDEST PUSH1 0x20 DUP4 ADD SWAP1 POP SWAP3 SWAP2 POP POP JUMP JUMPDEST PUSH1 0x0 PUSH1 0x20 DUP3 ADD SWAP1 POP SWAP2 SWAP1 POP JUMP JUMPDEST PUSH1 0x0 PUSH2 0x5E8 DUP3 PUSH2 0x56B JUMP JUMPDEST PUSH2 0x5F2 DUP2 DUP6 PUSH2 0x576 JUMP JUMPDEST SWAP4 POP PUSH2 0x5FD DUP4 PUSH2 0x587 JUMP JUMPDEST DUP1 PUSH1 0x0 JUMPDEST DUP4 DUP2 LT ISZERO PUSH2 0x62E JUMPI DUP2 MLOAD PUSH2 0x615 DUP9 DUP3 PUSH2 0x5B8 JUMP JUMPDEST SWAP8 POP PUSH2 0x620 DUP4 PUSH2 0x5D0 JUMP JUMPDEST SWAP3 POP POP PUSH1 0x1 DUP2 ADD SWAP1 POP PUSH2 0x601 JUMP JUMPDEST POP DUP6 SWAP4 POP POP POP POP SWAP3 SWAP2 POP POP JUMP JUMPDEST PUSH1 0x0 PUSH1 0x20 DUP3 ADD SWAP1 POP DUP2 DUP2 SUB PUSH1 0x0 DUP4 ADD MSTORE PUSH2 0x655 DUP2 DUP5 PUSH2 0x5DD JUMP JUMPDEST SWAP1 POP SWAP3 SWAP2 POP POP JUMP JUMPDEST PUSH1 0x0 DUP1 REVERT JUMPDEST PUSH2 0x66B DUP2 PUSH2 0x537 JUMP JUMPDEST DUP2 EQ PUSH2 0x676 JUMPI PUSH1 0x0 DUP1 REVERT JUMPDEST POP JUMP JUMPDEST PUSH1 0x0 DUP2 CALLDATALOAD SWAP1 POP PUSH2 0x688 DUP2 PUSH2 0x662 JUMP JUMPDEST SWAP3 SWAP2 POP POP JUMP JUMPDEST PUSH1 0x0 PUSH1 0x20 DUP3 DUP5 SUB SLT ISZERO PUSH2 0x6A4 JUMPI PUSH2 0x6A3 PUSH2 0x65D JUMP JUMPDEST JUMPDEST PUSH1 0x0 PUSH2 0x6B2 DUP5 DUP3 DUP6 ADD PUSH2 0x679 JUMP JUMPDEST SWAP2 POP POP SWAP3 SWAP2 POP POP JUMP JUMPDEST PUSH2 0x6C4 DUP2 PUSH2 0x597 JUMP JUMPDEST DUP3 MSTORE POP POP JUMP JUMPDEST PUSH1 0x0 PUSH1 0x20 DUP3 ADD SWAP1 POP PUSH2 0x6DF PUSH1 0x0 DUP4 ADD DUP5 PUSH2 0x6BB JUMP JUMPDEST SWAP3 SWAP2 POP POP JUMP JUMPDEST PUSH32 0x4E487B7100000000000000000000000000000000000000000000000000000000 PUSH1 0x0 MSTORE PUSH1 0x12 PUSH1 0x4 MSTORE PUSH1 0x24 PUSH1 0x0 REVERT JUMPDEST PUSH1 0x0 PUSH2 0x71F DUP3 PUSH2 0x537 JUMP JUMPDEST SWAP2 POP PUSH2 0x72A DUP4 PUSH2 0x537 JUMP JUMPDEST SWAP3 POP DUP3 PUSH2 0x73A JUMPI PUSH2 0x739 PUSH2 0x6E5 JUMP JUMPDEST JUMPDEST DUP3 DUP3 MOD SWAP1 POP SWAP3 SWAP2 POP POP JUMP JUMPDEST PUSH32 0x4E487B7100000000000000000000000000000000000000000000000000000000 PUSH1 0x0 MSTORE PUSH1 0x32 PUSH1 0x4 MSTORE PUSH1 0x24 PUSH1 0x0 REVERT JUMPDEST PUSH32 0x4E487B7100000000000000000000000000000000000000000000000000000000 PUSH1 0x0 MSTORE PUSH1 0x41 PUSH1 0x4 MSTORE PUSH1 0x24 PUSH1 0x0 REVERT JUMPDEST PUSH1 0x0 DUP2 SWAP1 POP SWAP2 SWAP1 POP JUMP JUMPDEST PUSH2 0x7BE PUSH2 0x7B9 DUP3 PUSH2 0x537 JUMP JUMPDEST PUSH2 0x7A3 JUMP JUMPDEST DUP3 MSTORE POP POP JUMP JUMPDEST PUSH1 0x0 DUP2 SLOAD SWAP1 POP SWAP2 SWAP1 POP JUMP JUMPDEST PUSH1 0x0 DUP2 SWAP1 POP SWAP3 SWAP2 POP POP JUMP JUMPDEST PUSH1 0x0 DUP2 SWAP1 POP DUP2 PUSH1 0x0 MSTORE PUSH1 0x20 PUSH1 0x0 KECCAK256 SWAP1 POP SWAP2 SWAP1 POP JUMP JUMPDEST PUSH2 0x7F8 DUP2 PUSH2 0x597 JUMP JUMPDEST DUP3 MSTORE POP POP JUMP JUMPDEST PUSH1 0x0 PUSH2 0x80A DUP4 DUP4 PUSH2 0x7EF JUMP JUMPDEST PUSH1 0x20 DUP4 ADD SWAP1 POP SWAP3 SWAP2 POP POP JUMP JUMPDEST PUSH1 0x0 DUP2 PUSH1 0x0 SHR SWAP1 POP SWAP2 SWAP1 POP JUMP JUMPDEST PUSH1 0x0 PUSH20 0xFFFFFFFFFFFFFFFFFFFFFFFFFFFFFFFFFFFFFFFF DUP3 AND SWAP1 POP SWAP2 SWAP1 POP JUMP JUMPDEST PUSH1 0x0 PUSH2 0x856 PUSH2 0x851 DUP4 PUSH2 0x816 JUMP JUMPDEST PUSH2 0x823 JUMP JUMPDEST SWAP1 POP SWAP2 SWAP1 POP JUMP JUMPDEST PUSH1 0x0 PUSH2 0x869 DUP3 SLOAD PUSH2 0x843 JUMP JUMPDEST SWAP1 POP SWAP2 SWAP1 POP JUMP JUMPDEST PUSH1 0x0 PUSH1 0x1 DUP3 ADD SWAP1 POP SWAP2 SWAP1 POP JUMP JUMPDEST PUSH1 0x0 PUSH2 0x888 DUP3 PUSH2 0x7C4 JUMP JUMPDEST PUSH2 0x892 DUP2 DUP6 PUSH2 0x7CF JUMP JUMPDEST SWAP4 POP PUSH2 0x89D DUP4 PUSH2 0x7DA JUMP JUMPDEST DUP1 PUSH1 0x0 JUMPDEST DUP4 DUP2 LT ISZERO PUSH2 0x8D5 JUMPI PUSH2 0x8B2 DUP3 PUSH2 0x85D JUMP JUMPDEST PUSH2 0x8BC DUP9 DUP3 PUSH2 0x7FE JUMP JUMPDEST SWAP8 POP PUSH2 0x8C7 DUP4 PUSH2 0x870 JUMP JUMPDEST SWAP3 POP POP PUSH1 0x1 DUP2 ADD SWAP1 POP PUSH2 0x8A1 JUMP JUMPDEST POP DUP6 SWAP4 POP POP POP POP SWAP3 SWAP2 POP POP JUMP JUMPDEST PUSH1 0x0 PUSH2 0x8EE DUP3 DUP7 PUSH2 0x7AD JUMP JUMPDEST PUSH1 0x20 DUP3 ADD SWAP2 POP PUSH2 0x8FE DUP3 DUP6 PUSH2 0x7AD JUMP JUMPDEST PUSH1 0x20 DUP3 ADD SWAP2 POP PUSH2 0x90E DUP3 DUP5 PUSH2 0x87D JUMP JUMPDEST SWAP2 POP DUP2 SWAP1 POP SWAP5 SWAP4 POP POP POP POP JUMP INVALID LOG2 PUSH5 0x6970667358 0x22 SLT KECCAK256 SMOD JUMP 0x27 0xEF PC 0x4C ADDRESS POP SHL LOG4 LT 0xF9 DUP6 BASEFEE 0xAC MSTORE8 0xDD DUP6 INVALID LOG3 0xD5 0x23 SLT SWAP3 0x4E 0xC1 0xB0 0xE4 SDIV PUSH24 0xF0C364736F6C634300080B00330000000000000000000000 "},"gasEstimates":{"creation":{"codeDepositCost":"477000","executionCost":"24777","totalCost":"501777"},"external":{"enter()":"48786","getPlayers()":"infinite","manager()":"2489","pickWinner()":"infinite","players(uint256)":"5044","random()":"infinite"}},"methodIdentifiers":{"enter()":"e97dcb62","getPlayers()":"8b5b9ccc","manager()":"481c6a75","pickWinner()":"5d495aea","players(uint256)":"f71d96cb","random()":"5ec01e4d"}},"storageLayout":{"storage":[{"astId":3,"contract":"Lottery.sol:Lottery","label":"manager","offset":0,"slot":"0","type":"t_address"},{"astId":6,"contract":"Lottery.sol:Lottery","label":"players","offset":0,"slot":"1","type":"t_array(t_address_payable)dyn_storage"}],"types":{"t_address":{"encoding":"inplace","label":"address","numberOfBytes":"20"},"t_address_payable":{"encoding":"inplace","label":"address payable","numberOfBytes":"20"},"t_array(t_address_payable)dyn_storage":{"base":"t_address_payable","encoding":"dynamic_array","label":"address payable[]","numberOfBytes":"32"}}},"userdoc":{"kind":"user","methods":{},"version":1}}